:020000041FFFDC
:10000000000000005D6AFF1FE47CFF1FEC7CFF1F07
:10001000387DFF1F0000000000000000000000000D
:1000200000000000000000000000000000000000D0
:1000300000000000000000000000000000000000C0
:1000400000000000000000000000000000000000B0
:1000500000000000000000000000000000000000A0
:100060000000000000000000000000000000000090
:100070000000000000000000000000000000000080
:100080000000000000000000000000000000000070
:100090000000000000000000000000000000000060
:1000A0000000000000000000000000000000000050
:1000B0000000000000000000000000000000000040
:1000C0000000000000000000000000000000000030
:1000D0000000000000000000000000000000000020
:1000E0000000000000000000000000000000000010
:1000F0000000000000000000000000000000000000
:1001000000000000000000000000000000000000EF
:1001100000000000000000000000000000000000DF
:1001200000000000000000000000000000000000CF
:1001300000000000000000000000000000000000BF
:1001400000000000000000000000000000000000AF
:10015000000000000000000000000000000000009F
:10016000000000000000000000000000000000008F
:10017000000000000000000000000000000000007F
:10018000000000000000000000000000000000006F
:100190009950FF1F6951FF1FFD70FF1F00000000F5
:1001A000000000000000000000000000000000004F
:1001B000000000000000000000000000000000003F
:1001C000000000000000000000000000000000002F
:1001D000000000000000000000000000000000001F
:1001E000000000000000000000000000000000000F
:1001F00000000000000000000000000000000000FF
:1002000000000000000000000000000000000000EE
:1002100000000000000000000000000000000000DE
:1002200000000000000000000000000000000000CE
:1002300000000000000000000000000000000000BE
:1002400000000000000000000000000000000000AE
:10025000000000000000000000000000000000009E
:10026000000000000000000000000000000000008E
:10027000000000000000000000000000000000007E
:10028000000000000000000000000000000000006E
:10029000000000000000000000000000000000005E
:1002A000000000000000000000000000000000004E
:1002B000000000000000000000000000000000003E
:1002C000000000000000000000000000000000002E
:1002D000000000000000000000000000000000001E
:1002E000000000000000000000000000000000000E
:1002F00000000000000000000000000000000000FE
:1003000000000000000000000000000000000000ED
:1003100000000000000000000000000000000000DD
:1003200000000000000000000000000000000000CD
:1003300000000000000000000000000000000000BD
:1003400000000000000000000000000000000000AD
:10035000000000000000000000000000000000009D
:10036000000000000000000000000000000000008D
:100370000D19FF1F00000000000000000000000039
:10038000000000000000000000000000000000006D
:10039000000000000000000000000000000000005D
:1003A000000000000000000000000000353FFF1FBB
:1003B000000000000000000000000000000000003D
:1003C000000000000000000000000000000000002D
:1003D000000000000000000000000000000000001D
:1003E000000000000000000000000000000000000D
:1003F00000000000000000000000000000000000FD
:0C04000001FF01FF01FF01FF41000000AF
:020000041FFFDC
:10183800C087FF1F4519FF1F81840000F1280000A1
:101848000000000000000000000000000000000090
:101858000000000000000000000000005119FF1FF8
:101868000000000000000000CD8400005519FF1F93
:101878005719FF1F5719FF1F5719FF1F5719FF1F28
:101888005719FF1F5719FF1F5719FF1F5719FF1F18
:101898005719FF1F5719FF1F5719FF1F5719FF1F08
:1018A8005719FF1F5719FF1F5719FF1F5719FF1FF8
:1018B8005719FF1F5719FF1F5719FF1F5719FF1FE8
:1018C8000000000000000000000000000000000010
:1018D8000000000000000000000000000000000000
:1018E8005719FF1F000000005719FF1F5719FF1F46
:1018F8000348854600F030F800480047AD66FF1FF2
:10190800C087FF1F0A484838694601600430F0C0A4
:1019180044464D4656465F46F0C030BCF0BCF0C069
:10192800F0BCF0C044380349034A95460847000014
:101938000008FF1F292FFF1F3018FF1F044880478A
:1019480004480047FEE7FEE7FEE7FEE7FEE7FEE79E
:10195800DD2DFF1FF918FF1F064C0125064E05E077
:10196800E36807CC2B430C3C98471034B442F7D3B8
:10197800FFF7C2FFB47CFF1FE47CFF1F70B58C1813
:101988000578401C6B075B0F01D10378401C2A11B6
:1019980006D10278401C03E006780E70401C491CF2
:1019A8005B1EF9D12B0705D40023521E0DD40B70F2
:1019B800491CFAE70378401CCB1A921C03E01D78F7
:1019C8000D70491C5B1C521EF9D5A142D8D30020CA
:1019D80070BD000003B40148019001BD75A9000065
:1019E80003B40148019001BDC93E000003B4014899
:1019F800019001BD9DA9000003B40148019001BDFB
:101A0800116E000003B40148019001BD8BB90000BC
:101A180003B40148019001BDD1D4000003B40148CA
:101A2800019001BDF9A6000003B40148019001BD71
:101A3800A1AF000003B40148019001BDA93C00001A
:101A480003B40148019001BDADAE000003B40148E4
:101A5800019001BD456B010003B40148019001BD2F
:101A68008B52010003B40148019001BD5952010095
:101A780003B40148019001BDDD3F000003B40148F3
:101A8800019001BD8944000003B40148019001BDE3
:101A98002144000003B40148019001BD750F000006
:101AA80003B40148019001BDC95C010003B40148B9
:101AB800019001BD1907010003B40148019001BD5F
:101AC800BD0B010003B40148019001BDDD0C01000C
:101AD80003B40148019001BDDD0A010003B40148C7
:101AE800019001BD0134010003B40148019001BD1A
:101AF8000934010003B40148019001BD0534010017
:101B080003B40148019001BDF535010003B4014853
:101B1800019001BDF935010003B40148019001BDF0
:101B2800E917010003B40148019001BD61370100C4
:101B380003B40148019001BD01D7000003B4014876
:101B4800019001BD6DF6000003B40148019001BD8C
:101B58007912010003B40148019001BD4DF900005C
:101B680003B40148019001BDC1F7000003B4014866
:101B7800019001BD413F000003B40148019001BD3F
:101B8800095A000003B40148019001BD096600002C
:101B980003B40148019001BD8D82000003B40148DF
:101BA800019001BD79B3000003B40148019001BD63
:101BB800E53A010003B40148019001BD156B01002D
:101BC80003B40148019001BDE1AC000003B4014831
:101BD800019001BD496D010003B40148019001BDA8
:101BE8003D71010003B40148019001BD0189000065
:101BF80003B40148019001BD016C010003B4014820
:101C0800019001BDB30E000003B40148019001BD6D
:101C1800BD5C010003B40148019001BD85120100BB
:101C280003B40148019001BDD1AE000003B40148DE
:101C3800019001BDCD4C010003B40148019001BDE4
:101C48004D74010003B40148019001BD6D7301009A
:101C580003B40148019001BD0972010003B40148B1
:101C6800019001BD810E000003B40148019001BD3F
:101C780021A9000003B40148019001BDC56D010010
:101C880003B40148019001BDE9AF000003B4014865
:101C9800019001BDB352010003B40148019001BD98
:101CA800E9D4000003B40148019001BD79D50000D2
:101CB80003B40148019001BDADFF000003B4014821
:101CC800019001BD5DB0000003B40148019001BD61
:101CD800E1B0000003B40148019001BD6142000079
:101CE80003B40148019001BD810E000003B401480E
:101CF800019001BD8576010003B40148019001BD42
:101D0800C115010003B40148019001BDCD0C0100CB
:101D180003B40148019001BD71B0000003B401484B
:101D2800019001BDD9B0000003B40148019001BD84
:101D38005976010003B40148019001BD53B9000070
:101D480003B40148019001BD8D11010003B401489D
:101D5800019001BDB9B0000003B40148019001BD74
:101D68001DB0000003B40148019001BDED6B0100F6
:101D780003B40148019001BDAD0F010003B401484F
:101D8800019001BD3D4B010003B40148019001BD24
:101D9800CD36010003B40148019001BD090E0000D1
:101DA80003B40148019001BD154D010003B4014879
:101DB800019001BDB14E000003B40148019001BD7E
:101DC800D94F010003B40148019001BD2D11010054
:101DD80003B40148019001BD8914010003B401480E
:101DE800019001BD6189000003B40148019001BD63
:101DF800D1A5000003B40148019001BDC9A90000A4
:101E080003B40148019001BDD544010003B4014861
:101E1800019001BD2D6C010003B40148019001BD82
:101E28007997000003B40148019001BD8552010073
:101E380003B40148019001BD6911010003B40148D0
:101E4800019001BDE512010003B40148019001BDF4
:101E5800F90D010070B50C460546FFF7BBFD21469C
:101E68002846FFF7BDFD0446FFF7C0FD204670BDBC
:101E780010B5FB2908D8084B9A4205D81B2903D36B
:101E8800FF2349339A4201D2302010BD034B1982F7
:101E98005A82FFF7B1FD10BD480800008410FF1FEB
:101EA800FFB50D46A12189004843234981B009683F
:101EB8001E464418002D09D0FF20D930015B039835
:101EC800814203D3002E04D0012E02D0122005B087
:101ED800F0BDE07800280AD00520C001271817486F
:101EE800F9780078801C814203D30720EFE70220AD
:101EF800EDE7FFF76FFDF878A91E401CF87003980E
:101F08000870002E10D00120487020467C30091F30
:101F1800FFF778FDFFF76AFD09480078082805D023
:101F2800072803D00020D2E70220EDE70021204651
:101F3800FFF76EFDF6E700003409FF1F1509FF1FC4
:101F48001C09FF1FF3B587B00446484F012C00D188
:101F5800474F600147494018007E00280BD0842075
:101F6800C059C6B2002503E0387803A948556D1C4E
:101F7800B542F9DB04E00126387D387869460873F4
:101F880060013C494018C06900280CD0694608988F
:101F9800087003A801900E726001364A8018C16962
:101FA8006846884700BF09B0F0BDF0B585B0054662
:101FB800680130494018041D2C4803906801085CEA
:101FC800002801D105B0F0BD68012A494018007EFB
:101FD800002800D1F6E7680126494018807E0028CD
:101FE80000D1EFE72078022800D0EBE7A768A088A7
:101FF8006188401A86B2102E01DD102000E03046BC
:102008000646002E1FD10120207000206080A0808D
:10201800680118494018C06900280AD0164A07CA3A
:102028006B4607C36801134A8018C1696846884728
:1020380000BF002D03D1082003F050F802E019205A
:1020480003F04CF8BEE7012D01D10948039005E0E3
:102058006188481C6080795C039801703046711E65
:102068008EB20028F4D100BFACE700000040004069
:1020780000900040307FFF1FD07BFF1F0446FFF712
:10208800A9FC0C48C069402188430A49C861204618
:10209800FFF7C4FC02F052FF00210648C03041603F
:1020A80004200449C03108600120FFF7BDFC00BFCF
:1020B800FEE7000000F0004010B5FFF78BFC0E486B
:1020C800046840170C49803108600C480A490860C8
:1020D800002004F087F8FFF789FC204610BD10B5F2
:1020E8000446FFF777FC04480460012004F07AF8FE
:1020F800FFF77CFC10BD000000E100E010001000BC
:1021080070B5FFF767FC904C002025682060FFF74A
:1021180091FC06462560FFF769FC304670BD8B4987
:10212800C968FF31813188657047F8B501F030F82A
:10213800864D874A68721178022903D9002801D18F
:1021480001201070834900200446E9608300401C88
:10215800CC50FF28FADDE8687F49882319507F4969
:10216800C1627F490978002902D07C491131C162D6
:102178000A210165117881637A49C16101F004FD82
:10218800E968794848611920800188610846372242
:102198008030C260082336220B64CA631E224A6458
:1021A80036224260322202603B220364C263282244
:1021B80042644122C2643922826432224365026544
:1021C80028228265022202664222C2651E22836696
:1021D80042662822C26620224267422202675A22A9
:1021E800436102613C228261192292010A605F4ABE
:1021F8000A63FF222D328A60CA60FF22F5320A6123
:102208005B4A8A647D22D2005A4EC267CE644A6213
:10221800594A8A623222CA6506224A658A65CA1DF7
:10222800F932022513604D664B25ED008D660925B0
:10223800CD66524D0D678C674B67AB10CB67504F1F
:10224800FF313E604A4E86627D26F6008667642628
:1022580046620526C66202260663C826466384636C
:1022680038205060474810644B2080019061B000CE
:10227800D061581010627D2000015062D4669565C7
:1022880013665364D565146753671E2090663E48ED
:1022980090673E485B008131D0670B608B60486077
:1022A800FF20F530C86008614B20C00010630E6540
:1022B80038483749274A81603749803A116135499A
:1022C800364A80318A62364ACA62364A8261364A5A
:1022D800C262364A02632F4A3548403A506335484D
:1022E800D0633548C861354890632A49344840313D
:1022F80088613549334888602648344980384160C8
:102308003349244A41633349C03AD1603349324B97
:10231800204CCB63324B403C2363324B9362324AAE
:10232800C263324AC260324A4A63324AE260324A7F
:102338008A63324A0A6332498163FFF781FB0120CD
:10234800FFF784FBF8BD00009809FF1F8C7DFF1F75
:102358004A0AFF1F0004FF1FC087FF1F6E0400000A
:10236800F07CFF1F3A07000080C3C9019A020000F1
:1023780050C30000280A00006A180000204E000020
:10238800F009FF1F00400011DC05000040420F006B
:10239800515DFF1F0001FF1F3129FF1F816DFF1FC6
:1023A8005570FF1F3D26FF1FD127FF1F5926FF1F0E
:1023B800753AFF1FED37FF1F9579FF1F8177FF1FC4
:1023C800C957FF1F791EFF1F0002FF1F8558FF1FF7
:1023D800D55AFF1F592BFF1F5D1EFF1F0000FF1F4F
:1023E8008D6AFF1F9959FF1F2D60FF1FD159FF1FCD
:1023F800412BFF1FD958FF1FA91EFF1FED2AFF1FE2
:10240800E962FF1F70B5054600243748057037A0FC
:1024180001F088FA02F0D6F80D2002F0A3FC0121A1
:102428000D2002F05BFB03203649087000BF44E032
:10243800002061006118334A8918487061006118EA
:1024480089188870600020181146085C0A280FD186
:102458002D4A0021622002F0E1FD61006118294A3D
:10246800505C002102F042F828A001F05BFA22E05B
:10247800600020182349085C0B280FD1274A002147
:10248800632002F0CBFD610061181E4A505C0021F8
:1024980002F02CF822A001F045FA0CE060002018A8
:1024A8001849085C052804D060002018085C062834
:1024B80001D105F029F9601CC4B2012CB8DB0A4827
:1024C8000078104908731A48086102F0DDFF194ABC
:1024D800012105480078FFF7BFFA164A0221024891
:1024E8000078FFF7BFFA70BD347DFF1F6770696F12
:1024F800206B65792064656D6F2073746172742E2A
:102508002E2E0A001C80FF1FC52DFF1F50313620BC
:10251800697320757365640A00000000D12DFF1FE0
:1025280050313720697320757365640A0000000014
:10253800D555FF1F8813000070B506460C46304875
:102548000078864201D0002070BDE007C00F002847
:1025580009D02C4A01212A480078FFF77DFA204645
:1025680001214840F0E702202040002803D02046FF
:1025780002214840E8E701208003204000281BD0C2
:10258800002512E0E900204808180079012807D042
:10259800680028181C49091F40184078032802D1F0
:1025A800284601F03BFB681CC5B2012DEADB20463A
:1025B800012189034840C7E70120C00320400028C3
:1025C8001BD0002512E0680028180F49091F401881
:1025D8004078022809D1680028180A5C29460BA00F
:1025E80001F0A0F90DA001F09DF96D1C012DEADBA9
:1025F80020460121C9034840A6E70020A4E70000BF
:10260800347DFF1F881300002080FF1F6B65793A17
:102618002564206770696F3A256409006B6579281D
:102628006C6F6E6720707265737320646F776E29A4
:102638000000000070B50124A407A36810252B43EF
:10264800A360FFF715FAA068A843A06070BD00005A
:10265800FFB5064601208007816881B01D4610221B
:1026680011438160554F002038603046D730FFF75E
:1026780005FA9D20800034468059FF36CA34013659
:102688000028306822462CD00121FFF7FDF94B4F76
:102698002078F863641C2046FFF7FCF900BA000AAA
:1026A800E17800020843B863241D2046FFF7F2F9D9
:1026B80000BA000AE178000208437863241D204626
:1026C800FFF7E8F900BA000AE17800020843386326
:1026D8000398029900020843F860039F00243F1DF5
:1026E8000EE00021D1E72819401CFFF7D3F90102B9
:1026F800285D0143324820180160241DA4B23F1F01
:10270800042FF0DA032F04D0022F08D0012F0CD0A9
:1027180011E02819FFF7BEF90102090A06E0291994
:1027280048780A780102114300E0295D24482018FE
:102738000160241DA4B20021214F02E0E0190160CC
:10274800241DFF2CFADD1D481E4A42600F2202613B
:10275800012202604269002AFCD04269930701D431
:10276800520708D401208007826810218A438260BA
:10277800002005B0F0BD01600020039A11E0C119E6
:1027880009682954401C80B20B0A2B54401C0B0CBE
:1027980080B22B54401C80B2090E2954401C80B2D0
:1027A800121F002AEBDC3068401C306001208007D3
:1027B800826810218A4382600120DAE70000044021
:1027C80000010440080F0000FFB5054601208007FE
:1027D800816881B01E46102211438160504F00204D
:1027E80038602846D730FFF749F99D2080002C46ED
:1027F8004059CA3480350028E86F22462BD0002182
:10280800FFF742F9464F2078F863641C2046FFF72B
:1028180041F900BA000AE17800020843B863241DB0
:102828002046FFF737F900BA000AE17800020843AA
:102838007863241D2046FFF72DF900BA000AE178D5
:102848000002084338630398029900020843F860BD
:102858000024039F0EE00121D2E73019401CFFF746
:1028680019F90102305D01432E4820180160241D2A
:10287800A4B23F1F042FF0DA032F04D0022F08D090
:10288800012F0FD014E03019FFF704F90102090AEB
:1028980009E031194878097800020843214961188C
:1028A800086003E0315D1F4820180160241DA4B2B0
:1028B80000211C4B02E0E0180160241DFF2CFADD0A
:1028C8000F221748120242600F22026101220260A1
:1028D8004269002AFCD00160039A0020121D11E011
:1028E800C11809683154401C80B20C0A3454401C89
:1028F8000C0C80B23454401C80B2090E3154401C78
:1029080080B2121F002AEBDCE86F401CE867012048
:102918008007826810218A43826005B0F0BD0000FC
:102928000000044000010440F8B5FFF7B9F8644915
:1029380008600420FFF7BAF8FFF7BEF80546C0079D
:1029480015D06049002008605F480078012811D040
:10295800032813D0042815D0022817D0052819D029
:10296800FFF7B0F8594F044601281AD01EE0FFF7C8
:10297800AFF8F8BD2846FFF7B1F80EE02846FFF794
:10298800B3F80AE02846FFF7B5F806E02846FFF74F
:10299800B7F802E02846FFF7B9F840B20128E8D0B6
:1029A8005FE03878052809D0062807D04848494EFE
:1029B8000078022806D0052804D009E0284603F04C
:1029C8003BFC4EE0002C06D0022808D0052806D093
:1029D800022C0ED005E0284603F052FC41E0022C00
:1029E80002D0012C13D016E0B17B002907D00229B0
:1029F80005D03978052906D001281AD00BE02846D9
:102A080003F04AFC18E0284603F022FC14E00128F1
:102A180007D0062809D02846FFF77EF8022C0BD0ED
:102A28001FE0284603F050FC1BE0284603F040FC5A
:102A380017E0284603F018FC3878012811D16805FA
:102A48000FD4707BC10701D0252004E0800701D591
:102A5800262000E02720317D814202D93220FFF76D
:102A680061F81B4C2078042804D003281AD00728C2
:102A78001DD020E0FFF75CF800281CD0FFF75EF8B7
:102A88005820FFF761F82078002801D00220207034
:102A98001148407800280ED0207800280BD1032058
:102AA800207008E00D48807CFFF754F803E00C48DC
:102AB800807BFFF755F80320FEF7F8FFF8BD00000C
:102AC8009C09FF1F9809FF1F9009FF1F1C09FF1F82
:102AD8002309FF1FA60BFF1F8C7DFF1FBC0BFF1FC9
:102AE800D40BFF1FF8B50C4610490C421AD16105EA
:102AF80018D500250E48AF003E187178012909D174
:102B0800C15D7088FFF732F80A48708008490020D4
:102B1800C85570706D1CEDB2102DEBD301208002EA
:102B28006040F8BD2146FFF727F8F8BDDE09000030
:102B38005C83FF1FFFFF000010B5012003F0CAFFF0
:102B4800FFF720F80446002003F0C4FF204610BD1C
:102B580070B50446FFF71CF8E21DFF32FA32D06F59
:102B68000021000C0004D067104680388B001B1928
:102B7800FF330133C56A491CDD660829F6DB0021ED
:102B88008B001B19FF338133C56A491CDD60082996
:102B9800F6DB0120D06470BD002805DBC206D20E2A
:102BA80001219140014A11607047000080E100E076
:102BB800002805DBC206D20E01219140014A1160AE
:102BC8007047000000E100E0C106C90E01208840FE
:102BD800014908607047000000E100E010B50028D6
:102BE80019DB1A4A03231B02D21883089B00D25808
:102BF8008307DC0EFF23A3409A438B071B0E840731
:102C0800E40EA3401A43114B032424021B19840821
:102C1800A4001A5118E00E4A03071B0F083B9B0833
:102C28009B00D2588307DC0EFF23A3409A438B07EF
:102C38001B0E8407E40EA3401A43054B0407240F18
:102C4800083CA408A4001A5110BD000000E100E0EF
:102C58001CED00E010B5002819DB1A4A03231B02FB
:102C6800D21883089B00D2588307DC0EFF23A340A9
:102C78009A438B071B0E8407E40EA3401A43114B9B
:102C8800032424021B198408A4001A5118E00E4AD0
:102C980003071B0F083B9B089B00D2588307DC0ED9
:102CA800FF23A3409A438B071B0E8407E40EA3401F
:102CB8001A43054B0407240F083CA408A4001A5122
:102CC80010BD000000E100E01CED00E010B5002898
:102CD80019DB1A4A03231B02D21883089B00D25817
:102CE8008307DC0EFF23A3409A438B071B0E840740
:102CF800E40EA3401A43114B032424021B19840831
:102D0800A4001A5118E00E4A03071B0F083B9B0842
:102D18009B00D2588307DC0EFF23A3409A438B07FE
:102D28001B0E8407E40EA3401A43054B0407240F27
:102D3800083CA408A4001A5110BD000000E100E0FE
:102D48001CED00E010B5002819DB1A4A03231B020A
:102D5800D21883089B00D2588307DC0EFF23A340B8
:102D68009A438B071B0E8407E40EA3401A43114BAA
:102D7800032424021B198408A4001A5118E00E4ADF
:102D880003071B0F083B9B089B00D2588307DC0EE8
:102D9800FF23A3409A438B071B0E8407E40EA3402E
:102DA8001A43054B0407240F083CA408A4001A5131
:102DB80010BD000000E100E01CED00E010B50021AE
:102DC8000A2001F093FB10BD10B500210B2001F083
:102DD8008DFB10BD014802490860704740787D01AD
:102DE800887DFF1F02E008C8121F08C1002AFAD117
:102DF80070477047002001E001C1121F002AFBD173
:102E0800704700000248C069002800D0004770479A
:102E18004003FF1FFFB5074601208007816883B084
:102E28001C4615460291466939490968384A4900DD
:102E3800490801910021C94380321160354A12685E
:102E4800520052080092334A803211603249816040
:102E5800212141611F20FFF7B7FEE20780212F489B
:102E6800002A02D042680A434260A20704D5426899
:102E7800FF2301331A434260002D0CD02A07520F5A
:102E880004D00122144342680A43426041682A0779
:102E9800D20B1143416021494039CA6B5201520F8C
:102EA800BA4206D0CA6B07231B069A433B061A434D
:102EB800CA63CA6B5307049A5B0F934205D0CA6B67
:102EC800049BD208D2001A43CA634168FF228132A8
:102ED8009143E2011143416041680F22520391433B
:102EE8006A03114341600C480299014380078160DD
:102EF80001210E43466141000548803001600549C3
:102F08000098086002490198086007B0F0BD000009
:102F180000E100E000E200E00100080040F00040AD
:102F280088B0044625463F48C068007807900020CE
:102F380006903D480590002312220521E120400219
:102F4800FEF72CFE39A0FEF72FFE286B00903DA05F
:102F5800EB6AAA6A696AFEF727FE2869009044A00E
:102F6800291D0EC9FEF720FE286A00904BA0EB69C8
:102F7800AA696969FEF718FEE86B009052A0AB6B6E
:102F88002A68696BFEF710FE5AA0296CFEF70CFE42
:102F98005C4841685CA0FEF707FE05980178079831
:102FA800814206DA1F488168059800788000085831
:102FB8000690059800780190069802905648006897
:102FC8000390FEF7F7FD04900498009053A001A920
:102FD8000EC9FEF7E9FD5EA0FEF7E6FD66492E681C
:102FE8000E40002711E0F0196349884200D90EE02D
:102FF8003807000F002803D1F11960A0FEF7D4FDAF
:10300800F15960A0FEF7D0FD3F1DFF2FEBDD00BF9B
:103018005E480068002802D05C480068804700BF0E
:10302800FEE700000000FF1FB408FF1F0A5B4861AD
:103038007264206661756C742068616E646C657278
:103048005D0A000052302D523320202020202020FD
:10305800203D203078253038782030782530387871
:1030680020307825303878203078253038780A00B4
:1030780052342D523720202020202020203D20307F
:103088007825303878203078253038782030782501
:10309800303878203078253038780A0052382D5268
:1030A8003131202020202020203D20307825303844
:1030B80078203078253038782030782530387820D6
:1030C8003078253038780A005231322C53502C4C45
:1030D800522C5043203D20307825303878203078E5
:1030E80025303878203078253038782030782530E9
:1030F80038780A0050535220203D20307825303847
:103108007820200000ED00E049435352203D203054
:1031180078253038780A00006008FF1F5B4F53415C
:103128004C5D6964782025642046756E632030788C
:1031380025303878207379737469636B20253038AB
:10314800782072746320253038780A200000000047
:103158002D2D2D2D2D2D2D2D2D2D2D64756D7020A2
:10316800737461636B2D2D2D2D2D2D2D2D2D2D2D52
:103178002D2D2D0A00000000FCFFFF1F0A5B2530E3
:1031880038585D002530387820000000F47CFF1F97
:103198001CB569460320FEF713FD684602F012FBD2
:1031A8000098002802D10198002800D001201CBDF9
:1031B8003EB50446002C26D000200090034602228B
:1031C800014601903520FEF701FD00BF00BF2248EF
:1031D8000069022108400228F9D02020019000BF90
:1031E8000198411E01910028FAD100BF1A48803881
:1031F8000068C00FC0070028F8D000BF012102A84E
:10320800FEF7EAFC25E00020009003460222014672
:1032180001900520FEF7DAFC00BF00BF0E480069E8
:10322800022108400228F9D02020019000BF01980F
:10323800411E01910028FAD100BF07488038006874
:10324800C00FC0070028F8D000BF012102A8FEF770
:10325800C3FC6846007A3EBD80C80040F8B5054604
:103268000E4600960EE00020FFF7A2FF0446204617
:103278002840002800D1F8BD0520FEF7B3FC0098CF
:10328800401E009000980028EDD11120F3E710B5FA
:1032980002460B46114600E0491C0878002803D076
:1032A80018465B1E0028F7D1881A10BD70B5044671
:1032B8000D462A462146002002F050F870BD000055
:1032C800F3B589B0044600200790022C7EDB072C5A
:1032D8007CDC6948A1004358214668A00A9A00F09E
:1032E80021FBE0016C4940184068069006980705E4
:1032F8003F0D06980001000D05905F48A100405859
:103308000605360D5C48A100405864490840050B85
:103318005948A1004058C00FC007002807D0B7423D
:1033280002DC0598B04209DD0120079006E0AF42B3
:1033380002DB0598A84201DA0120079007980128C6
:1033480011D10598009701A961C14B48A1004258C5
:1033580021465348069B00F0E5FA52480068401C95
:10336800504908600EE00598009701A961C14248DC
:10337800A100425821464C48069B00F0D3FA002091
:1033880048490860474800680A2815D93A48A10002
:103398004058C20FD207214644A000F0C3FA0020CB
:1033A800404908603448A1004058C00FC0070028B1
:1033B80002D1012000F090F82F48A10040580121C7
:1033C8008907884301462C48A20000E04DE081505F
:1033D8000520089000BF0898411E08910028FAD1DE
:1033E8002548A100405801218907884341182248EF
:1033F800A20081500520089000BF0898411E08913E
:103408000028FAD11C484038C169221B521C0120EF
:103418009040421EA240084690430121A140084323
:1034280015494039C8610520089000BF0898411E19
:1034380008910028FAD110484038C169221B521C53
:1034480001209040421EA240084690430021A1401E
:10345800084309494039C8610520089000BF089809
:10346800411E08910028FAD103E0214616A000F079
:1034780059FA0BB0F0BD000040000540636F6D7055
:1034880061726520696E743A256420307825782049
:10349800307825780A0000000004054000F0FF009D
:1034A8002C7CFF1F647DFF1F707CFF1F61646320FD
:1034B800636F6D7061726520696E643A25642C30A3
:1034C8007825780A00000000636F6D7061726520CE
:1034D8006572723A25640A00014908707047000055
:1034E800777DFF1FF8B54E484068C043000603D5F6
:1034F8003C20FEF777FBF8BDFEF75CFB484D0090DB
:10350800803D28680121890408432860E869454905
:1035180008402830E8610320FEF764FB686AC703A7
:10352800FF0B0320FEF75EFB686AC403E40B03206D
:10353800FEF758FB686AC603F60BA74201D320467C
:1035480000E03846B04200D33046A74201D339469E
:1035580000E02146B14200D23146334ABA18C32AA4
:1035680026D2314BDB439C4222D9304A94421FD2A7
:103578009E421DD996421BD2081A132818D22848F1
:1035880042680C218A4342604168FF22120291433B
:1035980041601420FEF726FB21488038416AC26941
:1035A800C903C90B08239A43C26121488162F8BD47
:1035B800274634460320FEF715FB19488038406A31
:1035C800C603F60BFEF7F6FA0099884201D3401AB3
:1035D80001E0401A401E17498842AED3104841689E
:1035E80009040D0E4168FF22120291436A1C12065B
:1035F800120C1143416041680C229143091D41603E
:103608000020FEF7F5FA642D02D305480021416039
:10361800062D00D306250748A840FEF72FFD8CE7A6
:10362800C0F0004000FEFEFF91FCFFFF32040000E6
:103638008C7DFF1FE40C0000F8B53D4840683C4C09
:103648000006803C8021002806DB60680843606033
:103658000320FEF7C7FAF8BD364D0020286320681E
:103668000122920410432060334F60688021084390
:1036780060600320FEF7B6FA286B401C2863606878
:1036880001210904084360600026E0692B4938409D
:103698004018E0610320FEF7A5FA606AE169C003FB
:1036A800C00B08229143E161A96A06225143814275
:1036B80001D3091A00E0411A3C2909D2E269012123
:1036C80009048A43E26162688A436260E862F8BD7D
:1036D800761CF6B2052ED8D3E16901200004814397
:1036E800E161616881436160286B2E46052807D334
:1036F800BFF34F8F13491248C860BFF34F8FFEE7DF
:1037080060688021884360600320FEF76BFAE069F7
:1037180038402830E0610320FEF764FA606AC0038D
:10372800C00BB062E16908208143E1619DE70000B8
:10373800C0F000408C7DFF1F00FEFEFF2800010046
:103748000400FA0500ED00E010B5002004494870B7
:103758008870C87028210248FEF750FA10BD000092
:10376800F47FFF1FFEB504461948C16B194D490780
:10377800C90E6958164AC90B4032009111684903AD
:1037880004D4116801239B0419431160C16B1822EA
:103798001143C163C06B104F4001400F0190B847FF
:1037A80006462046B84706430C49F007C00F88472D
:1037B8000346A0000A49285808600098411E009155
:1037C800FBD2324621460198FFF724FB0020FEBDBC
:1037D80000F00040E07B0100018C0000A98A000095
:1037E8007408FF1FF8B506460120FEF7FBF9214DC6
:1037F800214F2878214C002816D0FEF705FA2060C2
:1038080001F010FE002802D003F0B0FA78611C49DC
:103818008B6A1C4803601C48C76A1C4A1268974296
:1038280005D2C06A101A03E0F8684069E7E700208B
:10383800174A10609819C862486A2922D2031043AF
:1038480048622878002812D012480178022908D046
:103858000178012908D000780328206808D0C01E04
:1038680004E020680F3801E0206808382060F8BDBF
:10387800401FFBE71C09FF1F8C7DFF1FE408FF1F8B
:1038880000F00040340AFF1F00100040180AFF1F14
:103898001C0AFF1F4A0AFF1F10B51E48A121807885
:1038A800890048431C49A12309689B0044189121B9
:1038B80089000A591749002089785943164B1B6813
:1038C800C918C98E002A1ED01448C068FF300130BC
:1038D800012A0CD0114BDB68FF338133062A08D844
:1038E8006479012C05D00D4C5234125D04E0006B54
:1038F80009E00A4A543212791B6D006B5A430B0ACD
:103908005B1C5A431018064AC9085143814200D823
:10391800084610BD300DFF1F3409FF1F8C7DFF1FA7
:10392800530700000FB408B503A800900548009A93
:10393800029902F017FD0020009001B008BC04B005
:1039480018470000B532FF1F00B585B0064B0FCBF6
:10395800049301AB07C30020009001A80FC801F031
:10396800C3FC05B000BD0000C07BFF1F70B5044656
:1039780026460948855DFF2D00D170BD00212846E7
:1039880000F0B4FD0021284600F0B4FE00212846CE
:1039980000F0F4FE00BFF0E76E7DFF1F0349002032
:1039A80048610349086048607047000040F00040E3
:1039B80040F100401CB52748A12180788900484380
:1039C8002549096844182548406A80B2009091202A
:1039D8008000015900290FD02148C068FF3001300C
:1039E80001290ED01E4AD268FF32813206290AD830
:1039F8001B4B5233C95C09E0608CE18E4843401090
:103A08000DE0006B0AE0164954310979126D006B1C
:103A18005143E28E120A521C514308184000009983
:103A280040180090FFF738FF0190019900980D4B5E
:103A3800421AE069C10859438A4201D8009805E052
:103A4800094940084843019940180090FEF7E2F8F8
:103A58001CBD0000300DFF1F3409FF1F001003407C
:103A68008C7DFF1F530700007102000070B50D4CDC
:103A78000546E068808D400505D50B48406AC003BF
:103A8800C00B03F047F9002003F008F8002808D01D
:103A980006480168E068FF30813041652846FEF736
:103AA800BFF870BD8C7DFF1F40F000400080FF1FF5
:103AB80030B585B023A000680490002003900290E0
:103AC800002400253AE0280311210906441804229D
:103AD80003A9204600F0F0FB042204A9204600F0C8
:103AE80055FC042202A9204600F0E6FB6846C07B8C
:103AF800019400906846837B427B017B12A0FFF70C
:103B080011FF6846C07A019400906846837A427A29
:103B1800017A15A0FFF706FF042203A902A8FEF701
:103B280085F8012808D0042202A904A8FEF77EF827
:103B3800012801D105B030BD681CC5B2802DC2DB9B
:103B48000020F7E712345678646174615F72313A85
:103B580025782025782025782025782061646472CE
:103B68003A307825780A0000646174615F72323AED
:103B780025782025782025782025782061646472AE
:103B88003A307825780A000010B52248037822498F
:103B98001022C968022B08D00378012B05D00378BE
:103BA800032B02D00378042B00D10A6204780E2379
:103BB800022C09D00478012C08D00478032C07D0F3
:103BC8000478042C06D007E01B2404E0122402E049
:103BD8004B6001E00C244C6004780F49C9688031BF
:103BE800022C0BD00478012C0CD00478032C0ED0B6
:103BF8000078042801D1CB610A6210BD1F20C8617A
:103C0800212002E01420C8611820086210BD13208A
:103C1800CA61FAE74A0AFF1F8C7DFF1F10B50446E8
:103C280060002018094940184078012802D003286C
:103C380008D103E0204601F077FC04E0204601F0BB
:103C480063FD00E000BF00BF10BD00001C80FF1F27
:103C5800F0B5A3B03D48C06B8703BF0B3B48406B32
:103C6800400A40023949486339484078B84264D12B
:103C780002245AE00120A0403840002853D033489D
:103C8800406B0121A140884330494863002517E073
:103C9800E00130494118A81C800008580005000DB3
:103CA800A90005AA5052E0012A494118A81C800021
:103CB80008580001010D6800401C400011526D1C9D
:103CC8001E2DE5DB0120A0402049886320480078AC
:103CD800002800D128E02046E10F091849104900C2
:103CE800611A01D0611E00E0611C0E46B10018483F
:103CF800001D405800280FD0012001906846067228
:103D080005A803903C2168460174B2001048001DC4
:103D1800815801A8884700BF0C48406B0121A14089
:103D280008430A49486300BF641C072CA2DD084801
:103D3800C078002801D101F089F80448406B064991
:103D480008430249486323B0F0BD00000000054065
:103D5800F47FFF1F00040540FF01000000B5A7B075
:103D68006648C06B8003800B25906448406BFF2138
:103D780089028843614948630846C06B8003800B09
:103D880022900846406B400A40024863FF2189029E
:103D980025980840002821D00A20239017E0FF2109
:103DA8008902259808400121239A9140084000285B
:103DB8000AD00120239988405049886323990A39F9
:103DC80088B22599FFF77CFA2398401C2390239802
:103DD8001128E4DBFF20800248498863484840787E
:103DE800229988427DD10220269071E001202699EF
:103DF800884022990840002866D04048406B01213D
:103E0800269A914088433D494863002023901FE04B
:103E18002698C0013B4941182398801C8000085807
:103E28000005000D2399890004AA50522698C00164
:103E3800344941182398801C800008580001010D5E
:103E480023984000401C400011522398401C2390A6
:103E580023981E28DCDB012026998840274988639F
:103E680027480078002800D12FE02698C10F0918AC
:103E780049104900411A02D02699491E01E02699A5
:103E8800491C2491249881001D48001D4058002891
:103E980012D0012000902498C1B26846017104A88C
:103EA80002903C2168460173249882001448001D42
:103EB80081586846884700BF1048406B0121269A00
:103EC800914008430D49486300BF2698401C26903E
:103ED800269807288ADD0A48C078002801D100F012
:103EE80079F80648406B084909688902074A891821
:103EF80008430249486327B000BD000000000540A0
:103F0800F47FFF1F00040540607DFF1FFF030000D2
:103F180070B50548C56B044840300468C46029463C
:103F2800204600F065FE70BD0080004010B51348C3
:103F380080680407240F062C17D004DC022C10D04C
:103F4800042C17D108E0072C10D00C2C12D1022118
:103F58000020FDF7F7FF0EE001210020FDF7F2FF3A
:103F680009E00020FEF721F805E004E003484030AE
:103F7800C06B00E000BF00BF10BD00000040004063
:103F880010B5134880680407240F062C17D004DCEA
:103F9800022C10D0042C17D108E0072C10D00C2CC0
:103FA80012D102210120FDF7CDFF0EE001210846C4
:103FB800FDF7C8FF09E00120FDF7F7FF05E004E081
:103FC80003484030C06B00E000BF00BF10BD0000D8
:103FD8000090004070B52E4880788021084040103D
:103FE8002B4989784022114049000843284989789B
:103FF8002022114049100843254989781022114090
:104008004900084322498978082211404910084389
:104018001F498978042211404900084305461D4874
:104028000078002801D1122070BD1B481B49486345
:104038001D20FEF7B1FD00201949486308151749EE
:1040480088631848806808218843164988600024D6
:1040580008E00120A0402840002802D0E0B2FFF785
:1040680085FC641C092CF4DB0E488068400840007D
:104078000C498860112000F0B3F8112000F060F8B6
:10408800FFF762FB112001F029F80020CCE70000BF
:10409800F47FFF1F687DFF1FFF010000000005403F
:1040A800C003FF1F40F0004008B564200090412085
:1040B80000F06EF8402000F06BF8022041074862DB
:1040C80000BF0098411E00910028FAD10320012169
:1040D8008907486200F006F80020012189078862F4
:1040E80008BD000038B5FDF775FC01208007846A1B
:1040F80008200090002C02D101208107886202204C
:104108000E49086000BF0098411E00910028FAD1AE
:1041180003200A4908600820009000BF0098411E4B
:1041280000910028FAD105490860002C02D101212C
:1041380089078862FDF75AFC38BD000000C00040BE
:10414800202809DA012189078968012282409143E0
:104158000122920791601AE040280BDA01218907B1
:104168004A690146203901238B409A430121890776
:104178004A610CE060280ADA012189070A6A0146C7
:10418800403901238B409A43012189070A6270470D
:10419800202809DA01218907896801228240114310
:1041A8000122920791601AE040280BDA0121890761
:1041B8004A690146203901238B401A4301218907A6
:1041C8004A610CE060280ADA01218907096A024677
:1041D800403A012393401943012292071162704724
:1041E800202823DA15280FDB16280DDC0121890782
:1041F800096820229143520611601146096820225D
:1042080011435206116056E001218907096801220D
:1042180082409143012292071160114609680122E8
:104228008240114301229207116044E0402827DAB6
:1042380035280FDB38280DDC01218907C9681022D1
:1042480091439206D1601146C96810221143920623
:10425800D16030E001218907C9680246203A01236C
:104268009340994301229207D1601146C9680246DA
:10427800203A01239340194301229207D1601AE0A2
:10428800602818DA01218907496A0246413A012360
:104298009B1A01229A4091430122920751621146CA
:1042A800496A0246413A01239B1A01229A40114366
:1042B8000122920751627047FEB504460E46174622
:1042C800FDF7FAFE02906003400B11210906401821
:1042D80001908801806A00902002000A28498842DB
:1042E8000DD91F20C00425460540002D07D02548BC
:1042F80045620068012109040843224908600098C2
:1043080000280CD100BFFDF765FB02201E4908609C
:104318004107486201208862FDF768FB00BF002062
:1043280003E00199095C3154401CB842F9D3009864
:1043380000280ED100BFFDF74DFB00201249086090
:10434800032001218907486200208862FDF74EFB9F
:1043580000BF2002000A0A4988420BD9002D09D063
:10436800002008494862084600680121090488437A
:10437800044908600298FDF7B2FE0020FEBD000067
:10438800FFFF070000C8004000C00040FEB505461A
:104398000E46174637480078012801D10F20FEBD88
:1043A800012034490870FDF787FE019000BFFDF732
:1043B80011FB0220304908604107486201208862E9
:1043C800FDF714FB00BF00BF00BF2C4800690221A5
:1043D80008400228F9D02020009000BF0098411E14
:1043E80000910028FAD100BF244880380068C00F27
:1043F800C0070028F8D000BF2149012002F09CFF27
:104408003A4631462846FDF717FCC4B200BF00BF44
:104418001A480069022108400228F9D0202000909B
:1044280000BF0098411E00910028FAD100BF134830
:1044380080380068C00FC0070028F8D000BF1049B6
:10444800012002F079FF00BFFDF7C4FA00200A49F5
:104458000860032001218907486200208862FDF76F
:10446800C5FA00BF0198FDF73AFE0020014908701F
:10447800204694E77C7DFF1F00C0004080C80040B4
:10448800FFFFFF073EB50446FDF716FE0546002070
:10449800009003460246014601900620FDF796FB70
:1044A8000E49012002F048FF68460472002141725B
:1044B800012102A8FDF7C6FB002000900123024657
:1044C800014601901846FDF781FB0449032002F0DC
:1044D80033FF2846FDF703FE00203EBDFFFFFF0720
:1044E80010B50020FDF7B4FB002010BD30B5044620
:1044F8000D46072C01DB102C01DD062030BD162CE3
:1045080001DD0520FAE7002D0CD00021204600F03F
:1045180035F909480068E11F01228A40104306491D
:10452800086007E004480068E11F01228A409043C0
:10453800014908600020E1E700380040162800DD46
:104548007047002907D0084AD268012383401A43DC
:10455800054BDA6006E0044AD268012383409A4397
:10456800014BDA6000BFEBE700380040FEB50446B7
:104578000F46002001900025FF2C20D0A610A00790
:10458800800F00900098C500681D0190204600F03B
:10459800C5FA0B48B10041580198421B521C012032
:1045A8009040421EAA40084690433946A940084315
:1045B8000349B200885001212046FFF7BFFFFEBD26
:1045C8001838004010B511480078002801D007209D
:1045D80010BDFF2131310D48FDF710FB01200B49BB
:1045E800087000200A49086348630A49086248625B
:1045F80002211020FEF7F2FA1020FEF7D9FA064A37
:1046080006490D2000F00AFD0020E1E7007EFF1FAB
:104618000080004080F00040B149FF1FE548FF1FBF
:1046280001461048426B4B1A5B1C01209840431E00
:104638008B401046984301228A401043094A506330
:104648001046026B4B1A5B1C01209840431E8B409E
:104658001046984300228A401043024A1063002003
:10466800704700000080004010B502460B46162A2D
:1046780001DD052010BD1248816B012090400143E7
:104688000F488163416B012090400C4684432146CA
:104698000B484163C16B012B03D1012090400143BA
:1046A80004E0012090400C46844321460448C1633D
:1046B800016B012090400143014801630020D9E7C4
:1046C8000080004010B5002908D0094A5269831EAD
:1046D80001249C402243064B5A6107E0044A526970
:1046E800841E0123A3409A43014B5A6110BD000068
:1046F8000038004030B504460D46162C01DD052073
:1047080030BD1C48005D01280BD11A48401E806945
:104718000121A1400840002803D0002D01D1062026
:10472800EEE700212046FFF709FF022C01D0032CF9
:1047380003D101212046FFF7C5FF00212046FFF7DE
:10474800D5FE012D0AD10C4840680121A14008433B
:104758000949486001210748015509E006484168B0
:104768000120A040814304484160022101480155CD
:104778000020C5E7017EFF1F00800040F0B502461B
:10478800162A00DDF0BD55005519184E735D550009
:104798005519AD196C7855005519AD19A878132A13
:1047A80011DA134D9E00AE59271A7F1C0125BD4012
:1047B8006F1E87403546BD430E4686402E430C4D3E
:1047C8009F00EE5110E00A4D083D6E69271A7F1CC4
:1047D8000125BD406F1E87403546BD430E468640C5
:1047E8003543034E083E756100BFCBE74B7BFF1F87
:1047F80008F000400146162901DD012070470948EC
:10480800406801238B401840002802D00548026800
:1048180002E00448403002691046C840C007C00F93
:10482800ECE700000080004030B5162800DD30BD00
:10483800002926D0142803D0152801D016280BD11A
:10484800244A52694300244C1B195C780123A34075
:104858001A43204B5A613AE01E4A083243001E4C64
:10486800E3569B00D25843001B195C780123A340F0
:104878001A43184B08334400174D2C57A4001A51FB
:1048880025E0142803D0152801D016280BD1114A89
:1048980053694200104C121954780122A2409343E4
:1048A8000C4A536113E00B4A083243000A4CE356A2
:1048B8009B00D3584200121954780122A240934316
:1048C800044A08324400044D2C57A400135100BF79
:1048D800ADE7000000F00040907BFF1F70B500249A
:1048E80027E01548005D01280BD11348401E806958
:1048F8000121A1400840002803D0E0B20121FFF7C0
:1049080093FF0D48005D022812D1E0B2FFF772FF55
:10491800012148400546E0B2294600F087F8E0B298
:10492800FFF768FF0C216143034A1B32891848705E
:10493800641C172CD5DB70BD017EFF1F10B5142831
:1049480015DA002909D0164A126A164B1C5C012395
:10495800A3401A43124B1A6220E0114A136A114A03
:10496800145C0122A24093430D4A136216E0002909
:104978000AD00B4A526A0B4B1B5C203B01249C401B
:104988002243074B5A6209E0054A526A054B1B5CF1
:10499800203B01249C40A243014B5A6210BD0000F9
:1049A80080F00040347BFF1F70B502211020FEF715
:1049B80015F91020FEF7FCF8002432E01A48005DD3
:1049C800002807D0022C01D0032C03D1E0B201212A
:1049D800FFF778FE1448005D012814D11248401EE4
:1049E80080690121A140084000280CD0E0B2FFF7FF
:1049F80001FF0546E0B2294600F070F8E0B2002158
:104A0800FFF712FF00BF0C20604307491B31085C09
:104A1800002805D0E0B200F099F8E0B200F084F97F
:104A2800641C172CCADB70BD017EFF1FF8B5044655
:104A38000F46162C00DDF8BD6000201823490D5CD8
:104A48006000201840188078401EC6B22048005DDB
:104A5800022800D0EFE71F48806B0121A1400843DE
:104A68001C498863132C15DA002F09D11A48A900AC
:104A780040580121B14001431748AA0081501EE067
:104A88001548A90040580121B14088431249AA009D
:104A9800885014E0002F09D10F48083840690121D7
:104AA800B14008430C490839486108E00A48083809
:104AB80040690121B140884307490839486101210B
:104AC8002046FFF73BFF00BFB5E700004B7BFF1F09
:104AD800017EFF1F0080004008F0004030B504460A
:104AE8000D46162C00DD30BD002D07D00A480068A1
:104AF8000121A14008430849086006E0064800680B
:104B08000121A14088430449086001212046FFF79C
:104B1800F1FD00BFE7E700000080004070B50446E3
:104B2800094D162C01DD052070BD00210C206043C5
:104B3800295405481B3801552046FFF7DBFD204660
:104B4800FFF76EFDF0E700001C7EFF1FF8B5044676
:104B5800264D00260027162C01DD0520F8BD0C2067
:104B6800604340194068002807D10C206043401971
:104B78008068002801D11220F0E702211B481B3869
:104B8800015501210C206043295400212046FFF7DC
:104B9800B1FD0C20604340194068002810D00C205B
:104BA80060434019806800280AD02046FFF722FE9B
:104BB8000746002F01D1012000E0002006460EE044
:104BC8000C20604340194068002801D0012606E007
:104BD8000C20604340198068002800D00026314628
:104BE8002046FFF741FD0020B8E700001C7EFF1FAC
:104BF800F3B581B00646234D002440E00120A040D3
:104C0800304000283AD00120A040029908400028EE
:104C180001D0012000E000200746E0B2394600F04C
:104C280033F80C20604340194068002810D00C204D
:104C380060434019806800280AD0012F01D0012064
:104C480000E000200746E0B23946FFF70DFD14E00A
:104C58000C20604340194068002804D0E0B20121CC
:104C6800FFF702FD09E00C20604340198068002826
:104C780003D0E0B20021FFF7F7FC00BF641C172C3B
:104C8800BCDBFEBD1C7EFF1F70B504460E46124DF0
:104C9800162C00DD70BD0C206043401940680028C8
:104CA80009D0012E07D10C20604340190121426828
:104CB800204690470EE00C20604340198068002889
:104CC80008D0002E06D10C206043401900218268CC
:104CD8002046904700BFDDE71C7EFF1FF8B504465D
:104CE8000D4616460D4F2046FFF718FF0C2060436F
:104CF800C01945600C206043C01986602046FFF744
:104D080025FF00900648074908600098002802D04F
:104D18002046FFF703FF0098F8BD00001C7EFF1F28
:104D2800193FFF1FC003FF1F70B50546162D00DD94
:104D380070BD2846FFF75EFD0446002C01D0012017
:104D480000E0002006460C206843054940184078DA
:104D5800A04203D031462846FFF796FF00BFE7E799
:104D68001C7EFF1F0146162901DD052070470848F3
:104D7800405C012801D00620F8E70548401E8069FC
:104D880001228A401043024A521E90610020EDE73A
:104D9800017EFF1F08B500F01BF80A480078FEF7EF
:104DA800E1FC0948007800F02FFA00F0E5F8074820
:104DB80000680090009800F07BFAFEF7C5FDFFF749
:104DC80001FC08BD4A0AFF1FF07CFF1F207BFF1F64
:104DD80010B58CB030221B496846FCF73FFF002411
:104DE80009E062006B46D21851786200985CFFF7C0
:104DF800C5FC601CC4B2172CF3D3134840690F21BB
:104E0800C90388430521090440180F494861084629
:104E1800406901214906884340180B494861084602
:104E2800406903214905884301214905401806497D
:104E38004861072000F068F800F08CF800F058F896
:104E48000CB010BDF07AFF1F00F0004010B52148EB
:104E58000078002801D1122010BD1D20FDF79CFE0E
:104E68001D481E49486300201D49486308151B4911
:104E780088631C488068082188431A498860002490
:104E880008E0A10018484058002802D0E0B2FEF718
:104E98006DFD641C092CF4DB124880684008400052
:104EA800104988601120FFF79BF91120FFF748F996
:104EB800FEF74AFC112000F011F91D20002805DB3F
:104EC800C206D20E01219140084A116000BF00209D
:104ED800C2E70000687DFF1FFF01000000000540D9
:104EE800C003FF1F40F00040F87FFF1F80E200E092
:104EF80004484069012189068843024948610F2016
:104F08007047000000F000400146480940010028B1
:104F180007D009480078C008C000074A107006206A
:104F2800704705480078C008C0004A07520F104370
:104F3800014A10700020F3E7497DFF1F0448C0694B
:104F48001F21490488430249C861002070470000B6
:104F580000F000400648C0691F21490488430549FC
:104F680009784907090B08430149C86100207047BF
:104F780000F00040497DFF1F10B578210A48FCF772
:104F88003DFE0A480078012804D0022806D00428EB
:104F980007D100E000BFFCF767FE02E0FCF750FD18
:104FA80000BF00BF002010BD707FFF1F487DFF1F9E
:104FB80070B50546122617480078012803D0154811
:104FC8000078042803D1FCF74FFE002070BDFCF7E1
:104FD80001FD002417E00C2060430F49085C0028FD
:104FE80000D112E00C2060430B49085CA84209D1AB
:104FF80001210C206043084A80184170FCF734FEF8
:10500800002602E0641C0A2CE5DB00BFFCF7EEFC7E
:105018003046DBE7487DFF1F707FFF1FF0B5034672
:105028000C4615460021002220E00C205043164E65
:10503800305C984201D10720F0BD0C205043124E3D
:10504800305C002811D10C20504381190F4800789A
:10505800F826B0430D4E3678F608761CF600F82789
:105068003E403043094E307002E0521C0A2ADCDB15
:1050780000BF002901D10320DEE7002048700B7033
:105088004C608D6000BFD7E7707FFF1F497DFF1F11
:1050980010B5FFF75FFF0F480078C008441E15E001
:1050A8000C2060430C49085C002801D1122010BD77
:1050B8000C206043084940184068002805D00C219E
:1050C8006143054A891848688047641E002CE7DA5E
:1050D8000020ECE7497DFF1F707FFF1F70B5054674
:1050E80000261D480078012803D01B4800780428B2
:1050F80003D1FCF7B9FD002070BDFCF76BFC002460
:105108001BE00C2060431549085C002800D116E01C
:105118000C2060431149085CA84205D100210C20ED
:1051280060430E4A801841700C2060430B494018B8
:105138004078002800D0761C641C0A2CE1DB00BFF4
:10514800002E02D1FCF77CFC01E0FCF78DFDFCF79A
:105158004DFC0020D0E70000487DFF1F707FFF1F37
:1051680010B5224800680121890788602048006836
:1051780001210843890748611E48006B1E490860E1
:105188001C48303040681D49086000210420FDF7A4
:105198009DFD01211420FDF799FD01211520FDF742
:1051A80095FD01211720FDF791FD01F0DFFC00249A
:1051B80015E00C2060431249085C002801D1122038
:1051C80010BD0C2060430E4940188068002805D0A7
:1051D8000C2161430A4A891888688047641C094879
:1051E8000078C008A042E4DC0020E9E74C7DFF1FFE
:1051F800507DFF1F80F00040547DFF1F587DFF1F2A
:10520800707FFF1F497DFF1F10B50446012C18D180
:1052180024484069400140090521C9064018214930
:1052280048610846C06920490840204940181D497E
:10523800C8610846C0694021884340301949C8619F
:1052480020E0002C1ED100210A20FFF797FA002148
:105258000B20FFF793FA1348C0690321090288431A
:1052680040181049C8610846C069402188430D4963
:10527800C86108464069400140090B2109074018E8
:1052880008494861074840690121090788434018CF
:105298000449486108468069032149048843014953
:1052A800886110BD00F000407F00FEFF80FD010016
:1052B80001B50748002101600099016000F066F817
:1052C800044A00211320FFF7A9FE002008BD0000B2
:1052D800787DFF1F9553FF1F0248006A002800D001
:1052E800004770474003FF1F7FB5089C60011849BD
:1052F800085C002802D0112004B070BD6846407ACE
:10530800002801D00520F7E76101114A88182021FB
:10531800FCF774FC60010E49401869462EC910302C
:105328002EC0204602F022F901206101084A50549B
:10533800002C05D1074A00210820FFF76FFE04E082
:10534800054A00211920FFF769FE0020D4E7000074
:10535800307FFF1F6D77FF1F7777FF1F70B50446FB
:105368000D461646600108494018807E002805D081
:1053780032462946204602F043F870BD3246294697
:10538800204601F0F5FFF8E7307FFF1F38B51F48CA
:105398000078022801DD042001E01C48007804465A
:1053A8001B4800681B49884209D101200090184811
:1053B8000023012102682046FCF75CFC08E000207D
:1053C800009013480023012102682046FCF752FC94
:1053D80011481249886300201049403108611020A3
:1053E8004861022088611220002805DBC206D20E1F
:1053F800012191400A4A116000BF02211220FDF7E5
:10540800A1FCFEF751FEFFF76BF838BD4A0AFF1FF3
:10541800787DFF1F6B000208050001FF00C80040EF
:1054280080E100E002488069C00700D00120704791
:105438004010004070B504460D46002D06D16000AE
:105448002018104940188078012808D0012D18D15B
:10545800600020180B4940188078002811D161207D
:10546800FFF7A6FD012061006118064A89184870F7
:105478000121E2000348001D10180171142000F0FA
:1054880091F970BD1C80FF1F10B5002424E0600056
:105498002018154940188078002807D16100611844
:1054A800114A505C0321FFF769F906E061006118B1
:1054B8000D4A505C0221FFF761F90021E2000A4819
:1054C800001D815061006118021F505C074A114697
:1054D800FFF704FC601CC4B2012CD8DB0022114683
:1054E8006120FFF79BFD10BD1C80FF1FE16BFF1FB4
:1054F80070B504460D46002D06D1600020180949F4
:1055080040188078012808D0012D09D160002018A2
:10551800044940188078002802D1142000F042F98C
:1055280070BD00001C80FF1F10B5044661006118A3
:10553800244A505CFFF75EF9002806D16000201865
:1055480020494018807801280ED0610061181D4A52
:10555800505CFFF74FF9002826D060002018194941
:105568004018807800281FD11649087B164A012167
:10557800C903FCF771FA6120FFF7B0FD0220610052
:105588006118104A89184870FCF77AFBE2000D4947
:10559800091D8850081F0069002811D0081F022122
:1055A8000269204690470BE0002061006118054A17
:1055B800891848700021E2000248001D1018017186
:1055C80010BD00001C80FF1FB80B000070B504461A
:1055D8000D466000201811490A5C214610A0FEF70C
:1055E800A1F9022D04D0042D06D0202D0FD107E0FB
:1055F80011A0FEF797F90EE014A0FEF793F90AE060
:105608006120FFF76BFD16A0FEF78CF903E01BA0E5
:10561800FEF788F900BF00BF70BD00001C80FF1FA7
:105628000A6B657920696E6465783A25642067702D
:10563800696F3A25642000006B657928707265737C
:105648007320646F776E290A000000006B65792863
:1056580070726573732072656C65617365290A00E1
:105668006B6579286C6F6E67207072657373207232
:10567800656C65617365290A00000000756E6578C0
:10568800706563740A00000070B504460D46012D6C
:1056980006D1600020180D4940188078012808D0EC
:1056A800002D12D160002018084940188078002881
:1056B8000BD16120FFF77CFC032061006118034ACD
:1056C80089184870142000F06DF870BD1C80FF1F09
:1056D80070B504460D46012D06D160002018094911
:1056E80040188078012808D0002D09D160002018C2
:1056F800044940188078002802D1142000F052F89C
:1057080070BD00001C80FF1F70B504466100611861
:10571800214A505CFFF76EF8610061181E4A89182B
:105728008978884230D11146087B1021FCF7AEFAFF
:10573800FCF7A6FAE2001849091D8958401A1749CA
:10574800484305466120FFF7C9FC13480069002853
:1057580019D0134885420BD30F48202102692046EF
:1057680090470020610061180B4A891848700AE0C8
:105778000948042102692046904700206100611809
:10578800054A8918487005E0022061006118024A3C
:105798008918487070BD00001C80FF1F710200004E
:1057A800C0C62D0010B504460449087B22460121D5
:1057B8008903FCF751F9002010BD00001C80FF1F71
:1057C8007047000030B50AC8284A4C071068A40F73
:1057D800800880002043CC08E50704241060002DD1
:1057E8003CD0A0437824A0430C06240FE4002043B7
:1057F8000F24E401A0430C05240FE40120430C0B03
:10580800E5071B4C10602BD0A0431A4C20404C02DB
:10581800A40D240320430F24A405A0434C01240F06
:10582800A40520439C01C90E6408214303C2990EB4
:10583800CC0701218906083A002C13D08843D90ED9
:10584800CC070D4910600FD088430321090788430E
:105858009900890F09070843106030BD2043C1E74C
:105868002043D2E70843EAE70843EEE7F87DFF1F45
:1058780000080000FF0FC0FF00000008F8B505464B
:1058880012480F46C07881421FD1E878002818D006
:105898000024A0004619FF368136F16800290DD092
:1058A800086800280AD1287900F074FC0020F0600C
:1058B8000520C00128184178491E4170641C082C35
:1058C800E7DB39462846FCF7E7F9F8BD8C7DFF1F72
:1058D800F8B507460546FF37052000268137C00181
:1058E8002C18B0004019FF3001300090C16E00291B
:1058F80005D0287900F04EFC2078401E20700098D2
:10590800F96A761CC166082EEBDB0026B000401948
:10591800FF3081300090C168002905D0287900F057
:1059280039FC6078401E60700098F96A761CC16086
:10593800082EEBDB0026B0004719FF378137396B9B
:10594800002905D0287900F025FCA078401EA07019
:105958000020761C3863082EEDDB284600F088F816
:105968002846FCF79FF9002108468A005219FF32A1
:105978000132491CD0660829F7DB00218A00521938
:10598800FF328132491CD0600829F7DBE070F8BD8E
:1059980010B50B48A1218078890048430949096856
:1059A80040184178002907D0FF30FF300230C16C21
:1059B800002901D00021C164FCF77AF910BD00006C
:1059C800300DFF1F3409FF1FFFB504466030C07E4D
:1059D800072581B01746012842D12046FCF76EF909
:1059E80000283DD02148007800283CD0FF261136F9
:1059F8002046FCF769F9009020790022314600F032
:105A08007FFB009989000E19FF360136F0660028E1
:105A180026D0A620005D002807D03A462046049BE1
:105A28000299FCF757F93F1DFFB20520C001251860
:105A380028783A46401C2870029938020843F16ECB
:105A48008880F06E0499801DFCF74AF9F16E0120F8
:105A580008602046FCF74AF9E878401EE8700025FF
:105A6800284605B0F0BD3426C2E700001709FF1F1D
:105A780010B50179134A4900515C002920D0124918
:105A88000B688C15A3430B600146FF3121310B468F
:105A9800097D0224214004796400A4186478214314
:105AA8001975094B403BDC6BA408A4000C43DC636C
:105AB800037900215B00D1540079400080184170BF
:105AC80010BD00007C81FF1F40100340F3B507465E
:105AD8009848A121807889004843974989B0096886
:105AE800002644182046FF3021300690407D322899
:105AF80022D0222820D02546FF358135E86A016862
:105B0800002909D08188001D090A891CFCF7F4F8CE
:105B1800E96A0020761C0860FCF7F4F80A99002569
:105B280008802046FF30C1300790007C002829D02B
:105B3800B84227DC002018E0804901200860FF20D7
:105B4800AD300021005901260160E5E78000001909
:105B5800FF308130006B6D1C8188EDB2090A001D91
:105B6800891CFCF7C9F80098401C00900798017C34
:105B780000988142EADC0798007C3F1A861907984A
:105B8800002101746E490020C870FF20AD30005913
:105B98000168002903D00079C04380073AD00698ED
:105BA800C07D002836D00698807D002832D107981D
:105BB800007CB8422EDA5F4881781C204143614856
:105BC8000818017A002925D101210172A9000919B3
:105BD800FF31C0688131086300281FD00520C0014B
:105BE800201881786D1C491C8170FF204930005BAA
:105BF800EDB2010A2046FF304930891CFCF77CF8D9
:105C080006980021C1750698012181754C48761CBB
:105C1800C1707F1E0798007C002802D030460BB068
:105C2800F0BD2046FCF774F8049000283BDD002FF7
:105C380039DD002031E02046FCF770F880000019BB
:105C4800FF3001300790C06E8188001D090A891C49
:105C5800FCF752F800281ED00798C16EA80000195A
:105C6800FF308130016307990020C8660520C00114
:105C7800201881786D1C491C81700178EDB2491E8D
:105C880001702046FCF750F8E11DFF31FA31086A2F
:105C9800401C761C08620098401C049900908842B9
:105CA80001DAB842C7DB23491C228878254B5043C8
:105CB800C218107A002822D00020691E1DE0830037
:105CC8001B19FF3381331B6BD768BB4214D1884241
:105CD80012D0A9000A198000FF3200198132FF3062
:105CE8008130D16A0163134881781C2041431548EB
:105CF8000818C068D06202E0401CA842DFDB092017
:105D080080012018817E002911D0017D00290ED044
:105D1800428E002A0BD0817F914202D2491C8177A2
:105D280005E0002181771A212046FCF703F8B0B27C
:105D380075E70000300DFF1F3409FF1F00140340F2
:105D4800E010FF1F9C81FF1FF0B589B0FBF7BAFE7A
:105D580005469A48A12180788900484398490968EE
:105D6800441898480068012803D19748816D491C58
:105D78008165052D01D0042D02D12046FFF778FE5C
:105D8800FBF78EFE9149924A0861924842610122CE
:105D9800C2600260052D17D0042D7DD1E08E8E4A99
:105DA800C9685043FF22DF32125B801AF82252582A
:105DB800896C801A814A52785208D040814200D2B8
:105DC8000846FBF7BDFF04E06079012801D0FDF724
:105DD800F1FDFBF765FE069080480078002805D0A5
:105DE800FF20113000273E46009033E03420F9E7C9
:105DF8002046FBF7ABFF811979480078814220469D
:105E080003D2FBF7A3FF801905E0FBF79FFF811979
:105E180073480078081AC0B2079068480222807850
:105E2800009900F06DF9079989000919FF3181314E
:105E3800C860002813D00520C001201842787F1CB4
:105E4800521C42700020CA68761C1060C968FFB2F4
:105E58008880F6B22046FBF77FFFB042C8D85D487D
:105E6800FF2109044268002F04D08A4339040A43F9
:105E7800426025E08A4301210904511841602179D3
:105E880001204A0057498854FF203530005D2279A7
:105E9800C007C00F520000E015E0521850704D487E
:105EA8004030026883151A43026002682379520859
:105EB80052005B00591849780A4302600221816246
:105EC800069800F02BFA4849486B484AC0B2127845
:105ED800002A17D1464A0023D356002B454BD356E8
:105EE80006DB1B040026965732029A18121808E09F
:105EF800FF331B040026965732029A183E4B12189D
:105F0800D2184A63022801D2022002E0502800D9A0
:105F180050203A4A1278022A11D0394A1678394B59
:105F28001F78BE420FD916781B78F31A801E4010CE
:105F3800434310784001C01A1030401104E0324A3F
:105F48001678324BECE710784A69120A12021043AD
:105F58004861052D01D0042D16D12D480078002860
:105F680006D02C480078002802D00020FBF7FAFE63
:105F7800FF34FF340234207B042801D0032803D1E6
:105F8800FF205F30FBF7E0FD022D12D12248007898
:105F9800012807D0032805D0022803D01F4800781D
:105FA800022806D111480078002802D16C20FBF79E
:105FB800CBFD1B490120C88209B0F0BD300DFF1F81
:105FC8003409FF1F9809FF1FFC0FFF1F8C7DFF1F5F
:105FD800FF3F000000100340710200001709FF1F77
:105FE8001609FF1F7C81FF1F800003408C09FF1FDB
:105FF800680AFF1F00000000FFFE0000490AFF1F9B
:10600800440AFF1F450AFF1F460AFF1F470AFF1FD2
:10601800F908FF1F2209FF1F1C09FF1F2309FF1F83
:10602800BC0BFF1FF8B53148A1218078890048438F
:106038002F49096844182646FF3681360020F16A40
:1060480035464035086028742A48C1684A05016900
:10605800520D49014B0DC169274F39401143C161A8
:106068009F1A1EE0F06A016800291ED02349287C87
:106078000978884215D280000019FF308130006B02
:1060880000280ED0001DFBF773FE3F1A287C810004
:106098000919FF318131096B8988090A01D0401C2F
:1060A8002874002FDEDC2D7C1CE0001DFBF760FE51
:1060B8003F1AF16A01200860F3E7A8000619FF36C5
:1060C8008136316B00290BD00848807800F062F8DF
:1060D800002030630520C00120188178491E817096
:1060E8006D1CEDB2082DE8D3F8BD0000300DFF1F80
:1060F8003409FF1F401003400000FF071509FF1F68
:10610800F7B584B00C46FBF765FC1C4D1C4E28689F
:10611800029030681B4F0190386800901A48816BD4
:106128002960C16B3160006C38601848002101702B
:106138002046FBF723FE0446029828600198306049
:10614800009838601148012202700499104B1C25F0
:106158006943C918002C03D0087E401C087607E064
:106168000698C0000B5C002B02D10A54081844683A
:10617800FBF73CFC204607B0F0BD0000D808FF1F25
:10618800D408FF1FDC08FF1F8C7DFF1FD008FF1FEE
:106198009C81FF1F70B50C460546FBF71BFC104899
:1061A8001C2100224D432818D100435C002B09D044
:1061B80041184968A14205D10021D2008154FBF75A
:1061C80015FC70BD521CD2B2032AEDD3241F2188BE
:1061D8004904490C2180017E491E0176EFE7000041
:1061E8009C81FF1FF0B5114A114B124900280ED0AF
:1061F8000020145C002C06D085005D59002D02D0CB
:10620800A40064182560401C1028F2DBF0BD0020B3
:106218000446155C002D05D0AD006D1887002E686A
:10622800DE512C60401C1028F3DBF0BDE57DFF1F1C
:106238003080FF1F0000FF1F10B5044909680029BE
:1062480001D0884710BDFBF767FC10BD8002FF1F17
:1062580010B504498968002901D0884710BDFBF7AB
:106268005BFC10BD8002FF1F10B504498969002935
:1062780001D0884710BDFBF74FFC10BD8002FF1FFF
:1062880010B504494969002901D0884710BDFBF7BA
:1062980043FC10BD8002FF1F10B50449496800295E
:1062A80001D0884710BDFBF737FC10BD8002FF1FE7
:1062B80010B504490969002901D0884710BDFBF7CA
:1062C8002BFC10BD8002FF1F10B50449C9680029C6
:1062D80001D0884710BDFBF71FFC10BD8002FF1FCF
:1062E80010B50A48A12180788900484308490968FF
:1062F8004018007907494000085C002803D0064987
:106308000020887110BDFBF73FFD10BD300DFF1F49
:106318003409FF1F7C81FF1FE010FF1F10B50446E2
:10632800FBF7BEFBA04203D3FBF7BAFB011B04E05B
:10633800FBF7B6FB0949091B41180948026A914253
:1063480000D20162C269914200D9C161426AD30098
:106358009A1A5118C908416210BD0000FFFF3F009A
:106368008C7DFF1FF7B58CB0054600200690059080
:1063780083E10D98007825280AD00698002803D1D3
:106388000D980690002005900598401C059071E135
:106398000598002806D0059881B20698A8470020DD
:1063A80006900590002400BF0D98401C0D900D9894
:1063B80000782B280DD004DC20280DD0232814D1F8
:1063C8000DE02D2802D030280FD10BE01020044317
:1063D800EAE704200443E7E708200443E4E7202031
:1063E8000443E1E701200443DEE70026F6430D9865
:1063F8000078302808DB0D980078392804DC0DA8CF
:1064080000F084FF06460EE00D9800782A280AD18D
:106418000D98401C0D900E9840C80E90002E02DA80
:106428007642102004430020C04308900D9800785D
:106438002E2821D10D98401C0D900D9800783028F9
:1064480008DB0D980078392804DC0DA800F05EFF01
:1064580008900CE00D9800782A2808D10D98401C67
:106468000D900E98006808900E98001D0E900898E0
:10647800002801DA002008900020C04307900D98FA
:106488000078682807D00D9800786C2803D00D98FC
:1064980000784C2805D10D98007807900D98401C7D
:1064A8000D900A200A900D9800786E287ED00CDC9A
:1064B800632817D004DC412879D0582873D17AE0B2
:1064C80064287FD06928F9D17DE073282AD004DCBC
:1064D8006F286DD070287AD150E0752876D078284A
:1064E80075D16BE010202040002808D104E020205E
:1064F8000490012104A8A847701E061EF7DC0E9818
:106508000178001D0E90C8B20490012104A8A84784
:1065180004E020200490012104A8A847701E061E4C
:10652800F7DCA7E00E98006809900E98001D0E9001
:106538000998002801D159A0099008990998FCF7F1
:10654800A6FE074610202040002809D104E020209C
:106558000490012104A8A8473046761EB842F6DC0C
:10656800B9B20998A84704E020200490012104A8A2
:10657800A8473046761EB842F6DC7BE0701C00283F
:1065880002D10826012004430898019400900E982F
:1065980002C83346102203910E90284600F07EF977
:1065A80068E003E003E012E00CE001E062E061E093
:1065B80008200A9023E04020044300BF10200A90DE
:1065C8001DE003E000BF0220044300BF17E00D9860
:1065D8000078252804D025200490012104A8A84784
:1065E8000D980078002806D00D98007804900121B5
:1065F80004A8A84702E00D98401E0D903AE000BF9D
:1066080007986C2806D10E9800680B900E98001D0C
:106618000E9025E00798682811D102202040002814
:1066280006D00E9800680B900E98001D0E9017E08B
:106638000E9800680B900E98001D0E9010E0022036
:106648002040002806D00E9800680B900E98001D78
:106658000E9005E00E9800680B900E98001D0E90A5
:10666800089833460194009028460A9A0B9900F03E
:1066780015F900BF0D98401C0D900D980078002862
:1066880000D076E60598002806D0059881B20698CD
:10669800A8470020069005900FB0F0BD3C4E554C21
:1066A8004C3E000002202C49087001202B4908703C
:1066B800FBF73BFDFEF76EFB00240020FCF778FD9E
:1066C8000446214626A0FDF72DF97C20FDF7DAFEC9
:1066D8000020FCF76DFD044621462BA0FDF722F9AA
:1066E8000020002804D031A0FDF71CF900BFFEE708
:1066F8000020FDF7C7FE0020FCF75AFD044621469E
:1067080032A0FDF70FF9E007C00F002804D027A03A
:10671800FDF708F900BFFEE71C20FDF7B3FE0020D7
:10672800FCF746FD0446214631A0FDF7FBF80020A2
:10673800002803D01DA0FDF7F5F80AE0FDF7B8F929
:10674800012803D119A0FDF7EDF802E031A0FDF70B
:10675800E9F800BFFEE700004A0AFF1FF07CFF1FB0
:106768005B307830305D54686520496E69746961C2
:106778006C207265616420726573756C74733A304D
:106788007825780A000000005B307837635D54682C
:1067980065206669727374207465737420726573FA
:1067A800756C74733A307825780A00000A6572723D
:1067B8003A20666C617368206C6F636B2074657334
:1067C80074206661696C210A000000005B30783033
:1067D800305D546865207365636F6E6420746573FB
:1067E8007420726573756C74733A307825780A0072
:1067F8005B307831435D5468652074686972642041
:106808007465737420726573756C74733A30782587
:10681800780A00000A706173733A20666C617368C5
:10682800206C6F636B207465737420737563636584
:106838007373210A0000000070B505460C46002C51
:1068480005D12246294605A0FDF76CF804E022464A
:1068580029460AA0FDF766F870BD000077616B65F0
:106868007570286E6567293A6770696F3A256420E4
:10687800747970653A25640A0000000077616B65D9
:10688800757028706F73293A6770696F3A256420AC
:10689800747970653A25640A00000000FFB597B066
:1068A800054617461E46219C68480068039040200C
:1068B8002040002802D0664800680390102020403D
:1068C800002801D064086400022F01DB242F01DDB9
:1068D8001BB0F0BDE007C00F002801D0302100E058
:1068E800202116910021159102202040002818D05F
:1068F8001898002806DA2D2015901898404218900C
:10690800761E0EE004202040002803D02B2015908E
:10691800761E06E008202040002802D0202015908E
:10692800761E20202040002806D0102F01D1B61E48
:1069380002E0082F00D1761E002002901898002847
:1069480006D130220298411C029104A90A5413E08E
:106958000FE039461898FBF71DFA0398425C029835
:10696800411C029104A90A5439461898FBF712FAF7
:10697800189018980028ECD120990298884201DDD7
:10698800029820902098361A11202040002809D11A
:1069980004E020200190012101A8A8473046761E76
:1069A8000028F6DC10A8007D002802D0012115A8D7
:1069B800A84720202040002816D0082F05D13020D5
:1069C8000190012101A8A8470EE0102F0CD1302119
:1069D8000191012101A8A8471C480068203041788E
:1069E8000191012101A8A84710202040002807D1C3
:1069F80002E0012116A8A8473046761E0028F8DCD8
:106A080004E030200190012101A8A8472098411EE8
:106A1800209102998842F4DC06E004A90298085CF7
:106A28000190012101A8A8470298411E029100285F
:106A3800F3DC04E020200190012101A8A84730469A
:106A4800761E0028F6DC00BF42E700003C7DFF1FF1
:106A5800407DFF1F10B500240420FBF78FF908497B
:106A680008600422002106480068FBF799F92046CF
:106A7800641CFBF79BF92046FBF7C4FC10BD000023
:106A8800387DFF1F10B504480178C90701D0762169
:106A9800C160FBF791F910BD0020004010B50C4A09
:106AA8000021D36812691B781268002A03D04C00B1
:106AB800145B002C03D1491CC9B29942F5D3994201
:106AC80004D2002800D00170002010BD012010BDA4
:106AD8000000FF1FF0B5234E234B002822D00021D1
:106AE8001CE0A12080003268484380180446002238
:106AF800FF34813497003F18FF370137E56A521C8D
:106B0800FD66082AF6DB002297003F18FF37813719
:106B1800E56A521CFD60082AF6DB491C1878814298
:106B2800DFDBF0BD0021084617E0A122920034689F
:106B38004A431419002295002D19FF350135521CBE
:106B4800E866082AF7DB002295002D19FF35813504
:106B5800521CE860082AF7DB491C1A789142E4DBEA
:106B6800F0BD00003409FF1F1409FF1F10B50221F2
:106B78000520FCF7ABF802210A20FCF7A7F8022150
:106B88000B20FCF7A3F802211120FCF79FF8022143
:106B98000C20FCF79BF802210D20FCF797F8022146
:106BA8000E20FCF793F802210F20FCF78FF8022142
:106BB8001020FCF78BF802211320FCF787F802213C
:106BC8001820FCF783F802211920FCF77FF802212E
:106BD8001D20FCF77BF810BD70B505460E46002455
:106BE80008E0600020181849085CA84200D103E0BA
:106BF800601CC4B2012CF4DB00BF012C23DA600056
:106C08002018114940184078002806D0012809D0DA
:106C180002280CD0032814D10EE031462046FEF796
:106C280009FC0FE031462046FEF762FC0AE03146D7
:106C38002046FEF729FD05E031462046FEF748FDCF
:106C480000E000BF00BF70BD1C80FF1F70B5054687
:106C58000C46012C05D12246294604A0FCF762FE09
:106C680002E00AA0FCF75EFE70BD000077616B656C
:106C7800757028706F73293A6770696F3A256420B8
:106C8800747970653A25640A000000006572726FB5
:106C9800720A0000F8B51E484168090601D50020AF
:106CA800F8BD4168802211434160194D0A2600272A
:106CB800803DE86940084000E8610620FAF792FF45
:106CC800134CC03CA06980210843A061E8690121F8
:106CD8000843E86102E00820FAF784FFA86A800503
:106CE80004D43046761EF6B20028F4D1002E07D020
:106CF800286A7E21C70BA0690F4088433843A061EA
:106D0800A16980208143A1613806400EF8BD0000CA
:106D1800C0F00040124B10B512497E2298420AD9A1
:106D28008B695B069B0E06D088698B694006800ECE
:106D38009343401E0CE00C4B98420FD288691040D8
:106D48007E280BD288698B694006800E9343401CCD
:106D5800400003438B610320FAF744FF10BD000095
:106D68000B20000000F00040FD1C000001484069B5
:106D7800800870474010004010B500F013FAFFF784
:106D880089FF10BD30B539480168012292041143CA
:106D980001604168032212069143354A13781B06A5
:106DA800194341604368032189058B4331490C78B5
:106DB800A405234343604368602423434360137856
:106DC800022B08D01378012B05D00B78022B02D0A8
:106DD8000B78012B04D14368FF240134234343601B
:106DE8001278032A02D00A78032A03D14268802342
:106DF8001A434260426803239B041A4342600B789B
:106E08000122D2051C48002B03D11C4B1B78032BF5
:106E18001BD0C3689343C360174A194B4032D360F1
:106E2800FF2361331361174C5461174B9361FF259E
:106E3800114B813580335D609C60144CDC60144BD1
:106E480003600978002903D006E0C3681343E2E72A
:106E580001680123194301600E4909780E4BC906E0
:106E6800C90BC91881630D48D06130BD40F000409E
:106E78004C0AFF1F4B0AFF1F800003404A0AFF1FEE
:106E8800C00B00207A3E6A0700008904008089044C
:106E9800CC240000480AFF1F250800002FFCA6018B
:106EA800F8B505004C4A4D484D4B4E4C4E4936D02E
:106EB800022D34D08615B702066286699E43F319FF
:106EC80083612078002835D01120400308614748A5
:106ED8000863474800780122120380184861424E2F
:106EE800414C444B803E403C002D28D06521424A0D
:106EF800C9024248012D2FD0022D32D0032D5BD07C
