:020000041FFFDC
:1000000000000000A162FF1FB073FF1FB873FF1F45
:10001000D873FF1F00000000000000000000000077
:1000200000000000000000000000000000000000D0
:1000300000000000000000000000000000000000C0
:1000400000000000000000000000000000000000B0
:1000500000000000000000000000000000000000A0
:100060000000000000000000000000000000000090
:100070000000000000000000000000000000000080
:100080000000000000000000000000000000000070
:100090000000000000000000000000000000000060
:1000A0000000000000000000000000000000000050
:1000B0000000000000000000000000000000000040
:1000C0000000000000000000000000000000000030
:1000D0000000000000000000000000000000000020
:1000E0000000000000000000000000000000000010
:1000F0000000000000000000000000000000000000
:1001000000000000000000000000000000000000EF
:1001100000000000000000000000000000000000DF
:1001200000000000000000000000000000000000CF
:1001300000000000000000000000000000000000BF
:1001400000000000000000000000000000000000AF
:10015000000000000000000000000000000000009F
:10016000000000000000000000000000000000008F
:10017000000000000000000000000000000000007F
:10018000000000000000000000000000000000006F
:10019000214EFF1FA94EFF1F1968FF1F000000001E
:1001A000000000000000000000000000000000004F
:1001B000000000000000000000000000000000003F
:1001C000000000000000000000000000000000002F
:1001D000000000000000000000000000000000001F
:1001E000000000000000000000000000000000000F
:1001F00000000000000000000000000000000000FF
:1002000000000000000000000000000000000000EE
:1002100000000000000000000000000000000000DE
:1002200000000000000000000000000000000000CE
:1002300000000000000000000000000000000000BE
:1002400000000000000000000000000000000000AE
:10025000000000000000000000000000000000009E
:10026000000000000000000000000000000000008E
:10027000000000000000000000000000000000007E
:10028000000000000000000000000000000000006E
:10029000000000000000000000000000000000005E
:1002A000000000000000000000000000000000004E
:1002B000000000000000000000000000000000003E
:1002C000000000000000000000000000000000002E
:1002D000000000000000000000000000000000001E
:1002E000000000000000000000000000000000000E
:1002F00000000000000000000000000000000000FE
:1003000000000000000000000000000000000000ED
:1003100000000000000000000000000000000000DD
:1003200000000000000000000000000000000000CD
:1003300000000000000000000000000000000000BD
:1003400000000000000000000000000000000000AD
:10035000000000000000000000000000000000009D
:10036000000000000000000000000000000000008D
:100370000D19FF1F00000000000000000000000039
:10038000000000000000000000000000000000006D
:10039000000000000000000000000000000000005D
:1003A000000000000000000000000000A93FFF1F47
:1003B000000000000000000000000000000000003D
:1003C000000000000000000000000000000000002D
:1003D000000000000000000000000000000000001D
:1003E000000000000000000000000000000000000D
:1003F00000000000000000000000000000000000FD
:0C04000001FF01FF01FF01FF910000005F
:020000041FFFDC
:10183800909EFF1F4519FF1F81840000F1280000BA
:101848000000000000000000000000000000000090
:101858000000000000000000000000005119FF1FF8
:101868000000000000000000CD8400005519FF1F93
:101878005719FF1F5719FF1F5719FF1F5719FF1F28
:101888005719FF1F5719FF1F5719FF1F5719FF1F18
:101898005719FF1F5719FF1F5719FF1F5719FF1F08
:1018A8005719FF1F5719FF1F5719FF1F5719FF1FF8
:1018B8005719FF1F5719FF1F5719FF1F5719FF1FE8
:1018C8000000000000000000000000000000000010
:1018D8000000000000000000000000000000000000
:1018E8005719FF1F000000005719FF1F5719FF1F46
:1018F8000348854600F030F800480047E95FFF1FBD
:10190800909EFF1F0A484838694601600430F0C0BD
:1019180044464D4656465F46F0C030BCF0BCF0C069
:10192800F0BCF0C044380349034A95460847000014
:101938000008FF1F5930FF1F3018FF1F0448804759
:1019480004480047FEE7FEE7FEE7FEE7FEE7FEE79E
:10195800492EFF1FF918FF1F064C0125064E05E00A
:10196800E36807CC2B430C3C98471034B442F7D3B8
:10197800FFF7C2FF8073FF1FB073FF1F30B58C18CD
:101988000278401C13071B0F01D10378401C120971
:1019980006D10278401C03E005780D70401C491CF4
:1019A8005B1EF9D101E00B70491C521EFBD1A1420C
:1019B800E6D3002030BD000003B40148019001BD0A
:1019C80075A9000003B40148019001BDC93E00009B
:1019D80003B40148019001BD9DA9000003B401486A
:1019E800019001BDB30E000003B40148019001BD90
:1019F800116E000003B40148019001BD8BB90000CD
:101A080003B40148019001BDD1D4000003B40148DA
:101A1800019001BDF9A6000003B40148019001BD81
:101A2800A1AF000003B40148019001BDA93C00002A
:101A380003B40148019001BDADAE000003B40148F4
:101A4800019001BD456B010003B40148019001BD3F
:101A58008B52010003B40148019001BDDD3F000035
:101A680003B40148019001BD8944000003B4014852
:101A7800019001BD2144000003B40148019001BD5B
:101A8800750F000003B40148019001BDC95C010055
:101A980003B40148019001BD1907010003B40148CE
:101AA800019001BDBD0B010003B40148019001BDC7
:101AB800DD0C010003B40148019001BDDD0A0100FD
:101AC80003B40148019001BD0134010003B4014889
:101AD800019001BD0934010003B40148019001BD22
:101AE8000534010003B40148019001BDF53501003A
:101AF80003B40148019001BDF935010003B4014860
:101B0800019001BDE917010003B40148019001BD2E
:101B18006137010003B40148019001BD01D70000FD
:101B280003B40148019001BD6DF6000003B40148FB
:101B3800019001BD7912010003B40148019001BD73
:101B48004DF9000003B40148019001BDC1F7000040
:101B580003B40148019001BD413F000003B40148AE
:101B6800019001BD095A000003B40148019001BD6C
:101B78000966000003B40148019001BD8D82000090
:101B880003B40148019001BDE1AC000003B4014871
:101B9800019001BD79B3000003B40148019001BD73
:101BA800E53A010003B40148019001BD156B01003D
:101BB80003B40148019001BDED4A010003B4014896
:101BC800019001BDA54F010003B40148019001BD7A
:101BD8008552010003B40148019001BDB54C0100D4
:101BE80003B40148019001BD0189000003B4014814
:101BF800019001BD016C010003B40148019001BDD1
:101C0800BD5C010003B40148019001BD85120100CB
:101C180003B40148019001BDD1AE000003B40148EE
:101C2800019001BDC53F000003B40148019001BD0A
:101C3800CD4C010003B40148019001BD09720100B7
:101C480003B40148019001BDD1A5000003B40148C7
:101C5800019001BD810E000003B40148019001BD4F
:101C6800090E000003B40148019001BD21A900003C
:101C780003B40148019001BDC56D010003B40148DA
:101C8800019001BDE9D4000003B40148019001BDF1
:101C980079D5000003B40148019001BDADFF0000F3
:101CA80003B40148019001BD5DB0000003B40148D0
:101CB800019001BDE1B0000003B40148019001BDED
:101CC8006142000003B40148019001BD810E00008B
:101CD80003B40148019001BD8576010003B40148B1
:101CE800019001BDC115010003B40148019001BD77
:101CF800CD0C010003B40148019001BD71B0000092
:101D080003B40148019001BDD9B0000003B40148F3
:101D1800019001BD5976010003B40148019001BD4D
:101D280053B9000003B40148019001BD8D110100B1
:101D380003B40148019001BDB9B0000003B40148E3
:101D4800019001BD1DB0000003B40148019001BD20
:101D5800ED6B010003B40148019001BDAD0F010016
:101D680003B40148019001BD3D4B010003B4014893
:101D7800019001BDCD36010003B40148019001BDB9
:101D8800C9A9000003B40148019001BD154D010027
:101D980003B40148019001BDB14E000003B40148ED
:101DA800019001BDD94F010003B40148019001BD64
:101DB8002D11010003B40148019001BD89140100EF
:101DC80003B40148019001BD6189000003B40148D2
:101DD800019001BDD544010003B40148019001BD43
:101DE8002D6C010003B40148019001BD79970000F2
:101DF80003B40148019001BD6911010003B4014811
:101E0800019001BDE512010003B40148019001BD34
:101E1800F90D010070B50C460546FFF7CDFD2146CA
:101E28002846FFF7CFFD0446FFF7D2FD204670BDD8
:101E3800FEB5089D099C1746002874D0002972D069
:101E4800002C02D0012C02D003E02A2201E0FF225C
:101E58000732921D0192354A0E461770344A1060B7
:101E6800344803703448057034480470002446E050
:101E7800A1208000254645432D48A12100688900FE
:101E88002818FFF7ABFD2A482D490068620028187A
:101E9800FF308130C66201983618002088545118E6
:101EA80048702649097800293BD0FF21113100915B
:101EB80021461C2041432248002220300D182A7652
:101EC8004254E0B2009903F0E3FD686000202872F4
:101ED800E0B20122009903F0DBFDE86000202874DD
:101EE800E0B20222009903F0D3FD68616968002915
:101EF80019D0E968002916D0002814D0641CBC4207
:101F0800B6DB00200F4D104A014683009C186580FF
:101F1800401CD154C0B261701028F6D30020FEBD19
:101F280001E03421C3E71220F9E700001409FF1F7C
:101F38003409FF1F1509FF1F1609FF1F1709FF1F87
:101F48004098FF1FFFFF0000209AFF1F10B5FB29D4
:101F580008D8084B9A4205D81B2903D3FF234933D5
:101F68009A4201D2302010BD034B19825A82FFF7E2
:101F78003BFD10BD480800008410FF1FFFB50D464B
:101F8800A12189004843234981B009681E464418A5
:101F9800002D09D0FF20D930015B0398814203D37B
:101FA800002E04D0012E02D0122005B0F0BDE0783A
:101FB80000280AD00520C00127181748F9780078AA
:101FC800801C814203D30720EFE70220EDE7FFF7EB
:101FD800F3FCF878A91E401CF87003980870002ECE
:101FE80010D00120487020467C30091FFFF702FD01
:101FF800FFF7EEFC09480078082805D0072803D029
:102008000020D2E70220EDE700212046FFF7F8FC88
:10201800F6E700003409FF1F1509FF1F1C09FF1F01
:10202800F3B587B00446484F012C00D1474F6001F3
:1020380047494018007E00280BD08420C059C6B2FA
:10204800002503E0387803A948556D1CB542F9DB33
:1020580004E00126387D38786946087360013C49F8
:102068004018C06900280CD069460898087003A871
:1020780001900E726001364A8018C1696846884727
:1020880000BF09B0F0BDF0B585B00546680130491C
:102098004018041D2C4803906801085C002801D1F1
:1020A80005B0F0BD68012A494018007E002800D11B
:1020B800F6E7680126494018807E002800D1EFE73E
:1020C8002078022800D0EBE7A768A0886188401A2A
:1020D80086B2102E01DD102000E030460646002EA4
:1020E8001FD10120207000206080A080680118495D
:1020F8004018C06900280AD0164A07CA6B4607C3A9
:102108006801134A8018C1696846884700BF002DD6
:1021180003D1082002F082FE02E0192002F07EFEC0
:10212800BEE7012D01D10948039005E06188481CEC
:102138006080795C039801703046711E8EB2002869
:10214800F4D100BFACE70000004000400090004020
:10215800E495FF1F4872FF1F0446FFF72DFC0C484B
:10216800C069402188430A49C8612046FFF74EFCF0
:1021780002F0A8FD00210648C0304160042004494F
:10218800C03108600120FFF747FC00BFFEE70000F0
:1021980000F0004070B5FFF70FFC904C0020256858
:1021A8002060FFF73FFC06462560FFF711FC30462C
:1021B80070BD8B49C968FF31813188657047F8B5B2
:1021C80001F07EF8864D874A68721178022903D992
:1021D800002801D101201070834900200446E960DD
:1021E8008300401CCC50FF28FADDE8687F4988232B
:1021F80019507F49C1627F490978002902D07C497A
:102208001131C1620A210165117881637A49C1617E
:1022180001F0ECFCE968794848611920800188617F
:10222800084637228030C260082336220B64CA630E
:102238001E224A6436224260322202603B22036434
:10224800C263282242644122C26439228264322253
:102258004365026528228265022202664222C2651F
:102268001E22836642662822C266202242674222D4
:1022780002675A22436102613C228261192292015B
:102288000A605F4A0A63FF222D328A60CA60FF2211
:10229800F5320A615B4A8A647D22D2005A4EC267CF
:1022A800CE644A62594A8A623222CA6506224A655F
:1022B8008A65CA1DF932022513604D664B25ED006B
:1022C8008D660925CD66524D0D678C674B67AB103F
:1022D800CB67504FFF313E604A4E86627D26F6003E
:1022E8008667642646620526C66202260663C826F5
:1022F8004663846338205060474810644B2080014F
:102308009061B000D061581010627D2000015062C9
:10231800D466956513665364D565146753671E20A4
:1023280090663E4890673E485B008131D0670B60FD
:102338008B604860FF20F530C86008614B20C00002
:1023480010630E6538483749274A81603749803A13
:1023580011613549364A80318A62364ACA62364A3C
:102368008261364AC262364A02632F4A3548403A89
:1023780050633548D0633548C861354890632A4969
:1023880034484031886135493348886026483449A3
:10239800803841603349244A41633349C03AD160A7
:1023A8003349324B204CCB63324B403C2363324B96
:1023B8009362324AC263324AC260324A4A63324A3C
:1023C800E260324A8A63324A0A6332498163FFF71C
:1023D8002FFB0120FFF732FBF8BD00009809FF1F13
:1023E8002074FF1F4A0AFF1F0004FF1F909EFF1F53
:1023F8006E040000BC73FF1F3A07000080C3C901C8
:102408009A02000050C30000280A00006A18000061
:10241800204E0000F009FF1F00400011DC050000FD
:1024280040420F00E156FF1F0001FF1FCD29FF1F8B
:102438009D64FF1F7167FF1FD926FF1F6D28FF1FAF
:10244800F526FF1F253BFF1F9D38FF1F1D70FF1F2F
:10245800096EFF1F5951FF1F551FFF1F0002FF1F65
:102468001552FF1F6554FF1FF52BFF1F1D1EFF1F71
:102478000000FF1FD162FF1F2953FF1FBD59FF1F17
:102488006153FF1FDD2BFF1F6952FF1F851FFF1FB1
:10249800892BFF1F255CFF1FFFB581B00D4616462F
:1024A8001F462B46009639460A9A019802F074FA9C
:1024B8000446002C03D105A001F08CFA03E0214664
:1024C80007A001F087FA204605B0F0BD6932632005
:1024D8007265616420737563657373200A00000078
:1024E8006932632072656164206572726F723A2581
:1024F800640A0000F8B505460E4617461C462146F4
:10250800284602F06DF9FFF757FA012206A9284676
:1025180002F072FA3A463146284602F06DFAFFF7A1
:1025280057FA284602F098FAF8BD000010B504469C
:102538001848047018A001F04DFA0021152002F087
:1025480041F80021162002F03DF80121152002F083
:102558007DF80121162002F079F8162215210020B5
:1025680002F0E8F90121002002F050F90F49086053
:1025780008460068002803D10DA001F02BFA02E0FC
:1025880011A001F027FA0A22012102480078FFF77A
:102598005BFA10BDC873FF1F6932632064656D6FF5
:1025A8002073746172742E2E2E0A0000C473FF1FEC
:1025B800493243206D617374657220696E697420B5
:1025C8006661696C0A000000493243206D617374CA
:1025D800657220696E6974204F4B0A00F8B506468B
:1025E8000C4628480078864201D00020F8BDE00754
:1025F800C00F002818D0002050230722224900903D
:1026080022480068FFF776FF0546002D08D120A074
:1026180001F0E0F90A2202211A480078FFF714FABB
:10262800204601214840E1E702202040002827D029
:102638000020502307221E49009014480068FFF725
:102648002BFFC7B2002F17D11AA001F0C3F900253C
:1026580006E01748415D1BA001F0BCF9681CC5B233
:10266800072DF6DB19A001F0B5F97D22D200012172
:1026780004480078FFF7E8F9204602214840B5E70A
:102688000020B3E7C873FF1FC973FF1FC473FF1F80
:1026980049324320204D6173746572202073656E42
:1026A8006420646174612020206F6B0A00000000C0
:1026B800D073FF1F4932435F52585F646174613DB4
:1026C8005B000000307825782C0000005D0A0000CF
:1026D80070B50124A407A36810252B43A360FFF756
:1026E800B9F9A068A843A06070BD0000FFB5064610
:1026F80001208007816881B01D4610221143816046
:10270800554F002038603046D730FFF7A9F99D2093
:10271800800034468059FF36CA34013600283068B4
:1027280022462CD00121FFF7A1F94B4F2078F863FE
:10273800641C2046FFF7A0F900BA000AE1780002FD
:102748000843B863241D2046FFF796F900BA000A2B
:10275800E178000208437863241D2046FFF78CF9CE
:1027680000BA000AE1780002084338630398029926
:1027780000020843F860039F00243F1D0EE000217B
:10278800D1E72819401CFFF777F90102285D0143BA
:10279800324820180160241DA4B23F1F042FF0DA2C
:1027A800032F04D0022F08D0012F0CD011E02819D4
:1027B800FFF762F90102090A06E0291948780A7840
:1027C8000102114300E0295D244820180160241DFE
:1027D800A4B20021214F02E0E0190160241DFF2C62
:1027E800FADD1D481E4A42600F2202610122026082
:1027F8004269002AFCD04269930701D4520708D4E1
:1028080001208007826810218A438260002005B079
:10281800F0BD01600020039A11E0C119096829542C
:10282800401C80B20B0A2B54401C0B0C80B22B545A
:10283800401C80B2090E2954401C80B2121F002A85
:10284800EBDC3068401C3060012080078268102172
:102858008A4382600120DAE7000004400001044056
:10286800080F0000FFB5054601208007816881B088
:102878001E46102211438160504F002038602846C0
:10288800D730FFF7EDF89D2080002C464059CA3418
:1028980080350028E86F22462BD00021FFF7E6F8A4
:1028A800464F2078F863641C2046FFF7E5F800BA25
:1028B800000AE17800020843B863241D2046FFF7A8
:1028C800DBF800BA000AE178000208437863241DA7
:1028D8002046FFF7D1F800BA000AE1780002084361
:1028E80038630398029900020843F8600024039FA4
:1028F8000EE00121D2E73019401CFFF7BDF80102B4
:10290800305D01432E4820180160241DA4B23F1FEA
:10291800042FF0DA032F04D0022F08D0012F0FD094
:1029280014E03019FFF7A8F80102090A09E0311983
:10293800487809780002084321496118086003E0D3
:10294800315D1F4820180160241DA4B200211C4BD2
:1029580002E0E0180160241DFF2CFADD0F22174861
:10296800120242600F220261012202604269002ABB
:10297800FCD00160039A0020121D11E0C1180968FB
:102988003154401C80B20C0A3454401C0C0C80B2E8
:102998003454401C80B2090E3154401C80B2121FBE
:1029A800002AEBDCE86F401CE8670120800782689A
:1029B80010218A43826005B0F0BD00000000044089
:1029C80000010440F8B5FFF75DF864490860042089
:1029D800FFF75EF8FFF762F80546C00715D06049B3
:1029E800002008605F480078012811D0032813D020
:1029F800042815D0022817D0052819D0FFF754F855
:102A0800594F044601281AD01EE0FFF753F8F8BDC5
:102A18002846FFF755F80EE02846FFF757F80AE072
:102A28002846FFF759F806E02846FFF75BF802E06A
:102A38002846FFF75DF840B20128E8D05FE0387813
:102A4800052809D0062807D04848494E00780228AA
:102A580006D0052804D009E0284603F08BF84EE09C
:102A6800002C06D0022808D0052806D0022C0ED04B
:102A780005E0284603F0A2F841E0022C02D0012C20
:102A880013D016E0B17B002907D0022905D0397888
:102A9800052906D001281AD00BE0284603F09AF839
:102AA80018E0284603F072F814E0012807D0062839
:102AB80009D02846FFF722F8022C0BD01FE0284641
:102AC80003F0A0F81BE0284603F090F817E028462A
:102AD80003F068F83878012811D168050FD4707BA5
:102AE800C10701D0252004E0800701D5262000E099
:102AF8002720317D814202D93220FFF705F81B4C8F
:102B08002078042804D003281AD007281DD020E0F4
:102B1800FFF700F800281CD0FFF702F85820FFF74D
:102B280005F82078002801D002202070114840784C
:102B380000280ED0207800280BD10320207008E050
:102B48000D48807CFEF7F8FF03E00C48807BFEF719
:102B5800F9FF0320FEF79CFFF8BD00009C09FF1F4A
:102B68009809FF1F9009FF1F1C09FF1F2309FF1F5A
:102B7800A60BFF1F2074FF1FBC0BFF1FD40BFF1FEA
:102B8800F8B50C4610490C421AD1610518D5002534
:102B98000E48AF003E187178012909D1C15D7088CF
:102BA800FEF7D6FF0A48708008490020C8557070A3
:102BB8006D1CEDB2102DEBD3012080026040F8BDF2
:102BC8002146FEF7CBFFF8BDDE090000209AFF1F63
:102BD800FFFF000010B5012003F09EFBFEF7C4FFC5
:102BE8000446002003F098FB204610BD70B504464B
:102BF800FEF7C0FFE21DFF32FA32D06F0021000C51
:102C08000004D067104680388B001B19FF3301334E
:102C1800C56A491CDD660829F6DB00218B001B19F3
:102C2800FF338133C56A491CDD600829F6DB0120C2
:102C3800D06470BD002805DBC206D20E0121914088
:102C4800014A11607047000080E100E0C106C90E2A
:102C580001208840014908607047000000E100E059
:102C680010B5002819DB1A4A03231B02D21883085F
:102C78009B00D2588307DC0EFF23A3409A438B079F
:102C88001B0E8407E40EA3401A43114B03242402AD
:102C98001B198408A4001A5118E00E4A03071B0FD9
:102CA800083B9B089B00D2588307DC0EFF23A340F8
:102CB8009A438B071B0E8407E40EA3401A43054B67
:102CC8000407240F083CA408A4001A5110BD0000F2
:102CD80000E100E01CED00E010B5002819DB1A4AFD
:102CE80003231B02D21883089B00D2588307DC0EEB
:102CF800FF23A3409A438B071B0E8407E40EA340CF
:102D08001A43114B032424021B198408A4001A51E6
:102D180018E00E4A03071B0F083B9B089B00D2587C
:102D28008307DC0EFF23A3409A438B071B0E8407FF
:102D3800E40EA3401A43054B0407240F083CA408DB
:102D4800A4001A5110BD000000E100E01CED00E0F5
:102D580010B5002819DB1A4A03231B02D21883086E
:102D68009B00D2588307DC0EFF23A3409A438B07AE
:102D78001B0E8407E40EA3401A43114B03242402BC
:102D88001B198408A4001A5118E00E4A03071B0FE8
:102D9800083B9B089B00D2588307DC0EFF23A34007
:102DA8009A438B071B0E8407E40EA3401A43054B76
:102DB8000407240F083CA408A4001A5110BD000001
:102DC80000E100E01CED00E010B5002819DB1A4A0C
:102DD80003231B02D21883089B00D2588307DC0EFA
:102DE800FF23A3409A438B071B0E8407E40EA340DE
:102DF8001A43114B032424021B198408A4001A51F6
:102E080018E00E4A03071B0F083B9B089B00D2588B
:102E18008307DC0EFF23A3409A438B071B0E84070E
:102E2800E40EA3401A43054B0407240F083CA408EA
:102E3800A4001A5110BD000000E100E01CED00E004
:102E4800014802490860704740787D011C74FF1FE3
:102E580002E008C8121F08C1002AFAD1704770475B
:102E6800002001E001C1121F002AFBD170470000B9
:102E78000248C069002800D0004770474003FF1F80
:102E8800FFB5074601208007816883B01C461546B8
:102E98000291466939490968384A49004908019147
:102EA8000021C94380321160354A12685200520825
:102EB8000092334A80321160324981602121416198
:102EC8001F20FFF7C3FEE20780212F48002A02D007
:102ED80042680A434260A20704D54268FF230133CF
:102EE8001A434260002D0CD02A07520F04D0012249
:102EF800144342680A43426041682A07D20B1143CF
:102F0800416021494039CA6B5201520FBA4206D07A
:102F1800CA6B07231B069A433B061A43CA63CA6B4C
:102F28005307049A5B0F934205D0CA6B049BD208DF
:102F3800D2001A43CA634168FF2281329143E201F9
:102F48001143416041680F22520391436A031143C0
:102F580041600C48029901438007816001210E43BA
:102F680046614100054880300160054900980860C5
:102F780002490198086007B0F0BD000000E100E0D8
:102F880000E200E00100080040F000401CB569467E
:102F98000120FEF7F5FD012000900348019000F0A4
:102FA800DFFD01201CBD0000BB0B0000FFB581B098
:102FB80006461F460A9C02F01FF8009035461D4839
:102FC800854205D01C48854202D0062005B0F0BDD8
:102FD8003046029901F004FCFEF7EEFC304601F0A1
:102FE80029FD3046039900F02FF82146304601F0BC
:102FF800C9FDFEF7EDFC18E0286F082108400828F5
:1030080007D1286938707F1C601EC4B2002C00D11B
:103018000CE0009801F0C2FD64216143884204D9A4
:1030280006A000F0D7FC0D20D0E7E5E700BF0020A0
:10303800CCE70000005000400058004049324320CF
:10304800524420544F0A00000246116170470000A4
:1030580088B0044625463F48C0680078079000209D
:1030680006903D480590002312220521E1204002E8
:10307800FEF78CFD39A0FEF78FFD286B00903DA070
:10308800EB6AAA6A696AFEF787FD2869009044A07E
:10309800291D0EC9FEF780FD286A00904BA0EB6938
:1030A800AA696969FEF778FDE86B009052A0AB6BDE
:1030B8002A68696BFEF770FD5AA0296CFEF76CFD53
:1030C8005C4841685CA0FEF767FD059801780798A1
:1030D800814206DA1F488168059800788000085800
:1030E8000690059800780190069802905648006866
:1030F8000390FEF757FD04900498009053A001A98F
:103108000EC9FEF749FD5EA0FEF746FD66492E682A
:103118000E40002711E0F0196349884200D90EE0FB
:103128003807000F002803D1F11960A0FEF734FD1D
:10313800F15960A0FEF730FD3F1DFF2FEBDD00BF0A
:103148005E480068002802D05C480068804700BFDD
:10315800FEE700000000FF1FB408FF1F0A5B48617C
:103168007264206661756C742068616E646C657247
:103178005D0A000052302D523320202020202020CC
:10318800203D203078253038782030782530387840
:1031980020307825303878203078253038780A0083
:1031A80052342D523720202020202020203D20304E
:1031B80078253038782030782530387820307825D0
:1031C800303878203078253038780A0052382D5237
:1031D8003131202020202020203D20307825303813
:1031E80078203078253038782030782530387820A5
:1031F8003078253038780A005231322C53502C4C14
:10320800522C5043203D20307825303878203078B3
:1032180025303878203078253038782030782530B7
:1032280038780A0050535220203D20307825303815
:103238007820200000ED00E049435352203D203023
:1032480078253038780A00006008FF1F5B4F53412B
:103258004C5D6964782025642046756E632030785B
:1032680025303878207379737469636B202530387A
:10327800782072746320253038780A200000000016
:103288002D2D2D2D2D2D2D2D2D2D2D64756D702071
:10329800737461636B2D2D2D2D2D2D2D2D2D2D2D21
:1032A8002D2D2D0A00000000FCFFFF1F0A5B2530B2
:1032B80038585D002530387820000000C073FF1FA3
:1032C8001CB569460320FEF75BFC684601F042FF27
:1032D8000098002802D10198002800D001201CBDC8
:1032E80010B500F0B3FBFFF751FE002802D00248EA
:1032F800804710BDFEE70000E1A2000010B50246BD
:103308000B46114600E0491C0878002803D01846EF
:103318005B1E0028F7D1881A10BD70B504460D460B
:103328002A462146002001F0A7FE70BDF3B589B0FA
:10333800044600200790022C7EDB072C7CDC6948C1
:10334800A1004358214668A00A9A00F043FBE00117
:103358006C49401840680690069807053F0D069886
:103368000001000D05905F48A10040580605360D84
:103378005C48A100405864490840050B5948A10021
:103388004058C00FC007002807D0B74202DC059894
:10339800B04209DD0120079006E0AF4202DB059844
:1033A800A84201DA012007900798012811D1059851
:1033B800009701A961C14B48A100425821465348D2
:1033C800069B00F007FB52480068401C5049086003
:1033D8000EE00598009701A961C14248A100425832
:1033E80021464C48069B00F0F5FA00204849086041
:1033F800474800680A2815D93A48A1004058C20F22
:10340800D207214644A000F0E5FA002040490860B0
:103418003448A1004058C00FC007002802D101203D
:1034280000F090F82F48A1004058012189078843EF
:1034380001462C48A20000E04DE08150052008908C
:1034480000BF0898411E08910028FAD12548A1001C
:10345800405801218907884341182248A200815019
:103468000520089000BF0898411E08910028FAD14D
:103478001C484038C169221B521C01209040421E42
:10348800A240084690430121A1400843154940390C
:10349800C8610520089000BF0898411E08910028BF
:1034A800FAD110484038C169221B521C01209040B3
:1034B800421EA240084690430021A1400843094902
:1034C8004039C8610520089000BF0898411E08913E
:1034D8000028FAD103E0214616A000F07BFA0BB0D1
:1034E800F0BD000040000540636F6D70617265209B
:1034F800696E743A256420307825782030782578EC
:103508000A0000000004054000F0FF00F872FF1FE9
:10351800FC73FF1F3C73FF1F61646320636F6D7052
:1035280061726520696E643A25642C307825780AC2
:1035380000000000636F6D70617265206572723AF9
:1035480025640A0001490870704700000F74FF1FC6
:1035580010B5FEF72DFB0120FEF730FBFEF734FB1C
:10356800002010BD1CB5012109030748FEF732FBF6
:10357800012004210B4602460091019003490448AA
:10358800FEF756FC1CBD0000B484FF1F9474FF1F97
:103598003082FF1FF8B54E484068C043000603D587
:1035A8003C20FEF71DFBF8BDFEF7FCFA484D0090E5
:1035B800803D28680121890408432860E869454955
:1035C80008402830E8610320FEF70AFB686AC70351
:1035D800FF0B0320FEF704FB686AC403E40B032017
:1035E800FEF7FEFA686AC603F60BA74201D3204627
:1035F80000E03846B04200D33046A74201D33946EE
:1036080000E02146B14200D23146334ABA18C32AF3
:1036180026D2314BDB439C4222D9304A94421FD2F6
:103628009E421DD996421BD2081A132818D2284840
:1036380042680C218A4342604168FF22120291438A
:1036480041601420FEF7CCFA21488038416AC269EB
:10365800C903C90B08239A43C26121488162F8BD96
:10366800274634460320FEF7BBFA19488038406ADB
:10367800C603F60BFEF796FA0099884201D3401A62
:1036880001E0401A401E17498842AED310484168ED
:1036980009040D0E4168FF22120291436A1C1206AA
:1036A800120C1143416041680C229143091D41608D
:1036B8000020FEF79BFA642D02D3054800214160E3
:1036C800062D00D306250748A840FEF745FD8CE7E0
:1036D800C0F0004000FEFEFF91FCFFFF3204000036
:1036E8002074FF1FE40C0000F8B53D4840683C4CCE
:1036F8000006803C8021002806DB60680843606083
:103708000320FEF76DFAF8BD364D002028632068C7
:103718000122920410432060334F606880210843DF
:1037280060600320FEF75CFA286B401C2863606821
:1037380001210904084360600026E0692B493840EC
:103748004018E0610320FEF74BFA606AE169C003A4
:10375800C00B08229143E161A96A062251438142C4
:1037680001D3091A00E0411A3C2909D2E269012172
:1037780009048A43E26162688A436260E862F8BDCC
:10378800761CF6B2052ED8D3E169012000048143E6
:10379800E161616881436160286B2E46052807D383
:1037A800BFF34F8F13491248C860BFF34F8FFEE72E
:1037B80060688021884360600320FEF711FAE069A1
:1037C80038402830E0610320FEF70AFA606AC00337
:1037D800C00BB062E16908208143E1619DE7000008
:1037E800C0F000402074FF1F00FEFEFF280001000B
:1037F8000400FA0500ED00E010B500200449487007
:103808008870C87028210248FEF7E8F810BD00004B
:10381800A896FF1FFEB504461948C16B194D490704
:10382800C90E6958164AC90B4032009111684903FC
:1038380004D4116801239B0419431160C16B182239
:103848001143C163C06B104F4001400F0190B8474E
:1038580006462046B84706430C49F007C00F88477C
:103868000346A0000A49285808600098411E0091A4
:10387800FBD2324621460198FFF702FB0020FEBD2D
:1038880000F00040E07B0100018C0000A98A0000E4
:103898007408FF1FF8B506460120FEF7A1F9214D6F
:1038A800214F2878214C002816D0FEF7A5F9206072
:1038B80001F046FC002802D002F0E6FD78611C49C0
:1038C8008B6A1C4803601C48C76A1C4A12689742E6
:1038D80005D2C06A101A03E0F8684069E7E70020DB
:1038E800174A10609819C862486A2922D2031043FF
:1038F80048622878002812D012480178022908D096
:103908000178012908D000780328206808D0C01E53
:1039180004E020680F3801E0206808382060F8BD0E
:10392800401FFBE71C09FF1F2074FF1FE408FF1F4F
:1039380000F00040340AFF1F00100040180AFF1F63
:103948001C0AFF1F4A0AFF1F10B51E48A1218078D4
:10395800890048431C49A12309689B004418912108
:1039680089000A591749002089785943164B1B6862
:10397800C918C98E002A1ED01448C068FF3001300B
:10398800012A0CD0114BDB68FF338133062A08D893
:103998006479012C05D00D4C5234125D04E0006BA3
:1039A80009E00A4A543212791B6D006B5A430B0A1C
:1039B8005B1C5A431018064AC9085143814200D873
:1039C800084610BD300DFF1F3409FF1F2074FF1F6C
:1039D800530700000FB408B503A800900548009AE3
:1039E800029902F05DF90020009001B008BC04B013
:1039F800184700002333FF1F00B585B0064B0FCBD7
:103A0800049301AB07C30020009001A80FC801F080
:103A1800F9FA05B000BD00003872FF1F70B5044602
:103A280026460948855DFF2D00D170BD0021284636
:103A380000F0C4FC0021284600F0C4FD00212846FF
:103A480000F004FE00BFF0E70674FF1F03490020E2
:103A580048610349086048607047000040F0004032
:103A680040F100401CB52748A121807889004843CF
:103A78002549096844182548406A80B20090912079
:103A88008000015900290FD02148C068FF3001305B
:103A980001290ED01E4AD268FF32813206290AD87F
:103AA8001B4B5233C95C09E0608CE18E48434010DF
:103AB8000DE0006B0AE0164954310979126D006B6C
:103AC8005143E28E120A521C5143081840000099D3
:103AD80040180090FFF738FF0190019900980D4BAE
:103AE800421AE069C10859438A4201D8009805E0A2
:103AF800094940084843019940180090FEF782F8A8
:103B08001CBD0000300DFF1F3409FF1F00100340CB
:103B18002074FF1F530700007102000070B50D4CA0
:103B28000546E068808D400505D50B48406AC0030E
:103B3800C00B02F07DFC002002F0D2FB002808D068
:103B480006480168E068FF30813041652846FEF785
:103B58005FF870BD2074FF1F40F000400080FF1F19
:103B680070B58AB000241E4D049405942878012865
:103B780006D004A90120FEF703F8002802D000208F
:103B88000AB070BD049800900598019015488168A6
:103B98000291C0681349039006AA10316846FEF7DF
:103BA8003DF8104E10222036314606A8FEF73CF8A4
:103BB800002811D0012028700B4A31466846FEF7CC
:103BC8002DF804940020694605948200401C8C500E
:103BD8000428FADB0120D3E7FF202870CFE7000094
:103BE8008974FF1F00290011809AFF1F10B5224811
:103BF800037822491022C968022B08D00378012BC8
:103C080005D00378032B02D00378042B00D10A6275
:103C180004780E23022C09D00478012C08D00478EB
:103C2800032C07D00478042C06D007E01B2404E0FA
:103C3800122402E04B6001E00C244C6004780F4928
:103C4800C9688031022C0BD00478012C0CD0047880
:103C5800032C0ED00078042801D1CB610A6210BD74
:103C68001F20C861212002E01420C86118200862C2
:103C780010BD1320CA61FAE74A0AFF1F2074FF1F0C
:103C8800F0B5A3B03D48C06B8703BF0B3B48406B02
:103C9800400A40023949486339484078B84264D1FB
:103CA80002245AE00120A0403840002853D033486D
:103CB800406B0121A140884330494863002517E043
:103CC800E00130494118A81C800008580005000D83
:103CD800A90005AA5052E0012A494118A81C8000F1
:103CE80008580001010D6800401C400011526D1C6D
:103CF8001E2DE5DB0120A04020498863204800787C
:103D0800002800D128E02046E10F09184910490091
:103D1800611A01D0611E00E0611C0E46B10018480E
:103D2800001D405800280FD00120019068460672F7
:103D380005A803903C2168460174B2001048001D94
:103D4800815801A8884700BF0C48406B0121A14059
:103D580008430A49486300BF641C072CA2DD0848D1
:103D6800C078002801D100F035FF0448406B0649AF
:103D780008430249486323B0F0BD00000000054035
:103D8800A896FF1F00040540FF01000000B5A7B07A
:103D98006648C06B8003800B25906448406BFF2108
:103DA80089028843614948630846C06B8003800BD9
:103DB80022900846406B400A40024863FF2189026E
:103DC80025980840002821D00A20239017E0FF21D9
:103DD8008902259808400121239A9140084000282B
:103DE8000AD00120239988405049886323990A39C9
:103DF80088B22599FFF79AFA2398401C23902398B4
:103E08001128E4DBFF20800248498863484840784D
:103E1800229988427DD10220269071E001202699BE
:103E2800884022990840002866D04048406B01210C
:103E3800269A914088433D494863002023901FE01B
:103E48002698C0013B4941182398801C80000858D7
:103E58000005000D2399890004AA50522698C00134
:103E6800344941182398801C800008580001010D2E
:103E780023984000401C400011522398401C239076
:103E880023981E28DCDB012026998840274988636F
:103E980027480078002800D12FE02698C10F09187C
:103EA80049104900411A02D02699491E01E0269975
:103EB800491C2491249881001D48001D4058002861
:103EC80012D0012000902498C1B26846017104A85C
:103ED80002903C2168460173249882001448001D12
:103EE80081586846884700BF1048406B0121269AD0
:103EF800914008430D49486300BF2698401C26900E
:103F0800269807288ADD0A48C078002801D100F0E1
:103F18009BF80648406B084909688902074A8918CE
:103F280008430249486327B000BD0000000005406F
:103F3800A896FF1F00040540F873FF1FFF03000049
:103F480010B5002417E00D48806A0121A1400840FF
:103F580000280ED0204600F0E9F9E10008480818CA
:103F68004068002805D0E20005481018416820463E
:103F78008847601CC4B2042CE5DB10BDC0020140B8
:103F8800D496FF1F70B50548C56B044840300468D7
:103F9800C4602946204600F0ADFB70BD008000409B
:103FA80010B5134880680407240F062C17D004DCCA
:103FB800022C10D0042C17D108E0072C10D00C2CA0
:103FC80012D102210020FEF72BF80EE0012100207B
:103FD800FEF726F809E00020FEF755F805E004E0B2
:103FE80003484030C06B00E000BF00BF10BD0000B8
:103FF8000040004010B5134880680407240F062CC1
:1040080017D004DC022C10D0042C17D108E0072CA0
:1040180010D00C2C12D102210120FEF701F80EE07D
:1040280001210846FDF7FCFF09E00120FEF72BF807
:1040380005E004E003484030C06B00E000BF00BF6B
:1040480010BD00000090004070B52E488078802197
:10405800084040102B498978402211404900084304
:104068002849897820221140491008432549897830
:10407800102211404900084322498978082211403A
:10408800491008431F498978042211404900084310
:1040980005461D480078002801D1122070BD1B4834
:1040A8001B4948631D20FEF7C5FD002019494863D8
:1040B80008151749886318488068082188431649F5
:1040C8008860002408E00120A0402840002802D091
:1040D800E0B2FFF7A3FC641C092CF4DB0E488068EF
:1040E800400840000C498860112000F0B3F8112006
:1040F80000F060F8FFF780FB112000F08FFE002031
:10410800CCE70000A896FF1F0074FF1FFF01000006
:1041180000000540C003FF1F40F0004008B56420C0
:104128000090412000F06EF8402000F06BF802206B
:104138004107486200BF0098411E00910028FAD14B
:10414800032001218907486200F006F800200121B8
:104158008907886208BD000038B5FDF72DFC0120ED
:104168008007846A08200090002C02D10120810772
:10417800886202200E49086000BF0098411E009125
:104188000028FAD103200A4908600820009000BFDF
:104198000098411E00910028FAD105490860002CBA
:1041A80002D1012189078862FDF712FC38BD0000A1
:1041B80000C00040202809DA012189078968012206
:1041C800824091430122920791601AE040280BDA5D
:1041D800012189074A690146203901238B409A4306
:1041E800012189074A610CE060280ADA0121890760
:1041F8000A6A0146403901238B409A430121890705
:104208000A627047202809DA012189078968012292
:10421800824011430122920791601AE040280BDA8C
:10422800012189074A690146203901238B401A4335
:10423800012189074A610CE060280ADA012189070F
:10424800096A0246403A0123934019430122920722
:1042580011627047202823DA15280FDB16280DDC99
:1042680001218907096820229143520611601146ED
:104278000968202211435206116056E0012189077E
:104288000968012282409143012292071160114678
:10429800096801228240114301229207116044E01B
:1042A800402827DA35280FDB38280DDC012189075B
:1042B800C968102291439206D1601146C96810223C
:1042C80011439206D16030E001218907C96802468E
:1042D800203A01239340994301229207D160114665
:1042E800C9680246203A01239340194301229207E4
:1042F800D1601AE0602818DA01218907496A024664
:10430800413A01239B1A01229A40914301229207C4
:1043180051621146496A0246413A01239B1A012219
:104328009A4011430122920751627047F8B504463A
:104338001A4886690006876A19480078002801D15A
:104348001220F8BD042C01DB0620FAE7E10014482E
:10435800001D0D18E87800280DD1002E02D002208B
:104368000E498861002F06D1002001218907886243
:1043780001200C4908600120A040C0B20A498863A6
:104388008815A0400849803108620020A8700749B4
:104398000870032000F042FD0020D2E740C800402A
:1043A800D096FF1F00C00040000301401474FF1F97
:1043B80010B50020FDF73EFC002010BD30B50446C6
:1043C8000D46072C01DB102C01DD062030BD162C14
:1043D80001DD0520FAE7002D0CD00021204600F071
:1043E80035F909480068E11F01228A40104306494F
:1043F800086007E004480068E11F01228A409043F2
:10440800014908600020E1E700380040162800DD77
:104418007047002907D0084AD268012383401A430D
:10442800054BDA6006E0044AD268012383409A43C8
:10443800014BDA6000BFEBE700380040FEB50446E8
:104448000F46002001900025FF2C20D0A610A007C1
:10445800800F00900098C500681D0190204600F06C
:1044680031F90B48B10041580198421B521C0120F8
:104478009040421EAA40084690433946A940084346
:104488000349B200885001212046FFF7BFFFFEBD57
:104498001838004010B512480078002801D00720CD
:1044A80010BDFF2131310E48FDF798FA01200C4963
:1044B800087000200B49086348630B49086248628A
:1044C80002211020FEF708FC1020002805DBC20698
:1044D800D20E01219140054A116000BF0020DFE79C
:1044E800B494FF1F0080004080F0004000E100E02D
:1044F80001461048426B4B1A5B1C01209840431E32
:104508008B401046984301228A401043094A506361
:104518001046026B4B1A5B1C01209840431E8B40CF
:104528001046984300228A401043024A1063002034
:10453800704700000080004010B502460B46162A5E
:1045480001DD052010BD1248816B01209040014318
:104558000F488163416B012090400C4684432146FB
:104568000B484163C16B012B03D1012090400143EB
:1045780004E0012090400C46844321460448C1636E
:10458800016B012090400143014801630020D9E7F5
:104598000080004010B5002908D0094A5269831EDE
:1045A80001249C402243064B5A6107E0044A5269A1
:1045B800841E0123A3409A43014B5A6110BD000099
:1045C8000038004030B504460D46162C01DD0520A4
:1045D80030BD1C48005D01280BD11A48401E806977
:1045E8000121A1400840002803D0002D01D1062058
:1045F800EEE700212046FFF709FF022C01D0032C2B
:1046080003D101212046FFF7C5FF00212046FFF70F
:10461800D5FE012D0AD10C4840680121A14008436C
:104628000949486001210748015509E006484168E1
:104638000120A040814304484160022101480155FE
:104648000020C5E7B594FF1F00800040F0B5024682
:10465800162A00DDF0BD55005519184E735D55003A
:104668005519AD196C7855005519AD19A878132A44
:1046780011DA134D9E00AE59271A7F1C0125BD4043
:104688006F1E87403546BD430E4686402E430C4D6F
:104698009F00EE5110E00A4D083D6E69271A7F1CF5
:1046A8000125BD406F1E87403546BD430E468640F6
:1046B8003543034E083E756100BFCBE7C371FF1F4A
:1046C80008F0004070B50446094D162C01DD0520A0
:1046D80070BD00210C206043295405481B38015542
:1046E8002046FFF76FFF2046FFF702FFF0E70000C4
:1046F800D094FF1FF3B581B00646234D002440E057
:104708000120A040304000283AD00120A040029962
:104718000840002801D0012000E000200746E0B250
:10472800394600F033F80C206043401940680028EF
:1047380010D00C2060434019806800280AD0012F4F
:1047480001D0012000E000200746E0B23946FFF71B
:10475800F3FE14E00C20604340194068002804D0A0
:10476800E0B20121FFF7E8FE09E00C2060434019A0
:104778008068002803D0E0B20021FFF7DDFE00BF0B
:10478800641C172CBCDBFEBDD094FF1F70B504461B
:104798000E46124D162C00DD70BD0C2060434019EA
:1047A8004068002809D0012E07D10C206043401929
:1047B80001214268204690470EE00C2060434019D2
:1047C8008068002808D0002E06D10C2060434019CC
:1047D800002182682046904700BFDDE7D094FF1F84
:1047E80002460B4611460748814204D006488142DA
:1047F80001D0062070470020C8664B600120C866BB
:104808000020F7E70050004000580040F8B5064681
:104818000F46FDF715FA05460024002E04D13E4C3C
:104828000920FFF7EFFC08E0012E04D13B4C0A20D9
:10483800FFF7E8FC01E00020F8BD0020E0666120F9
:104848002060002F30D1206806218843801C20601A
:104858003348854204D1462060614C20A06151E074
:104868003048854204D1942060619A20A06149E0D3
:104878002D48854204D1E6206061EC20A06141E02A
:104888002A48854206D1FF2034306061FF2041303C
:10489800A06137E02648854234D1FF20CD306061E1
:1048A800FF20D730A0612DE0012F2BD120680621F1
:1048B8008843001D20601A48854204D10A20E0611F
:1048C800112020621EE01748854204D11E20E061B5
:1048D8002320206216E01448854204D13020E0618C
:1048E800362020620EE01148854204D14320E06161
:1048F8004B20206206E00E48854203D16920E06122
:10490800712020621020606000202063A0630120D5
:10491800E063E06620468FE7005000400058004002
:104928000024F4000048E801006CDC020090D00389
:1049380000D8B80570B504460D461646002C08D1B7
:1049480000213046FFF77AFD01212846FFF776FD62
:104958000CE0012C08D102213046FFF76FFD03213E
:104968002846FFF76BFD01E0062070BD01212846AF
:10497800FFF76CFE01213046FFF768FE002C03D1DB
:104988000920FFF73FFC04E0012C02D10A20FFF7C1
:1049980039FC0020E9E70000FFB583B004460C9D10
:1049A8000020029027461248874205D011488742C6
:1049B80002D0062007B0F0BD15E0072D01DD072065
:1049C80000E028460646A81BC5B20096204604A962
:1049D8000EC9FEF7EBFA02900298002800D004E016
:1049E800069880190690002DE7D100BF0298E1E7EC
:1049F8000050004000580040F7B505460E462F46C7
:104A08000A48874204D00A48874201D00620FEBDE2
:104A1800002405E0315D2846FEF716FB601CC4B291
:104A280002988442F6DB0020F1E7000000500040C5
:104A38000058004001460A460548824204D005480D
:104A4800824201D0062070470120D0660020FAE794
:104A58000050004000580040F8B50446002625469E
:104A680000F0CAFA07460F48854204D00E4885422E
:104A780001D00620F8BD11E0761C686B01214902BF
:104A88000840002800D00AE0384600F087F864287B
:104A980004D906A0FEF79EFF0D20EBE7ECE700BF68
:104AA8000020E7E7005000400058004068616C5F54
:104AB8006932635F776169745F74785F636F6D7083
:104AC8006C6574656420544F0A00000008B500F056
:104AD8001BF80A480078FEF79DFE0948007800F0A8
:104AE8001BFA00F00DF9074800680090009800F0E4
:104AF80067FAFEF781FFFFF7CDFC08BD4A0AFF1FE2
:104B0800BC73FF1FA871FF1F10B58CB030221B4962
:104B18006846FDF79BF8002409E062006B46D2184E
:104B280051786200985CFFF791FD601CC4B2172CA5
:104B3800F3D3134840690F21C903884305210904A9
:104B480040180F49486108464069012149068843D1
:104B580040180B49486108464069032149058843C4
:104B680001214905401806494861032000F090F8E2
:104B780000F0B4F800F080F80CB010BD7871FF1F99
:104B880000F0004010B50346002204E0FF24013481
:104B98001C61541CE2B28A42F8DB10BD70B50446B1
:104BA80000250A480068A04205D2681E051B074870
:104BB8000068451902E005480068051B0449694377
:104BC80008467D21C900FDF747F870BD6008FF1F42
:104BD8007102000010B521480078002801D1122088
:104BE80010BD1D20FEF726F81D481E494863002009
:104BF8001D49486308151B4988631C4880680821BB
:104C080088431A498860002408E0A10018484058E1
:104C1800002802D0E0B2FEF701FF641C092CF4DB87
:104C28001248806840084000104988601120FFF74A
:104C380011FB1120FFF7BEFAFEF7DEFD112000F090
:104C4800EDF81D20002805DBC206D20E0121914097
:104C5800084A116000BF0020C2E700000074FF1F6F
:104C6800FF01000000000540C003FF1F40F00040A6
:104C7800AC96FF1F80E200E00448406901218906E4
:104C88008843024948610F207047000000F0004047
:104C9800014648094001002807D009480078C008A3
:104CA800C000074A10700620704705480078C00801
:104CB800C0004A07520F1043014A10700020F3E762
:104CC800E973FF1F0448C0691F214904884302494A
:104CD800C86100207047000000F000400648C06925
:104CE8001F2149048843054909784907090B0843E6
:104CF8000149C8610020704700F00040E973FF1FB8
:104D080010B578210A48FCF769FE0A48007801289E
:104D180004D0022806D0042807D100E000BFFCF721
:104D2800A1FF02E0FCF784FE00BF00BF002010BD19
:104D38002496FF1FE873FF1F70B505461226174813
:104D48000078012803D015480078042803D1FCF71F
:104D580089FF002070BDFCF72FFE002417E00C200F
:104D680060430F49085C002800D112E00C20604322
:104D78000B49085CA84209D101210C206043084A6C
:104D880080184170FCF76EFF002602E0641C0A2CB4
:104D9800E5DB00BFFCF71CFE3046DBE7E873FF1FCE
:104DA8002496FF1FF0B503460C4615460021002245
:104DB80020E00C205043164E305C984201D1072069
:104DC800F0BD0C205043124E305C002811D10C204D
:104DD800504381190F480078F826B0430D4E3678B5
:104DE800F608761CF600F8273E403043094E30702E
:104DF80002E0521C0A2ADCDB00BF002901D1032093
:104E0800DEE7002048700B704C608D6000BFD7E76C
:104E18002496FF1FE973FF1F0020704770B50546F1
:104E280000261D480078012803D01B480078042874
:104E380003D1FCF717FF002070BDFCF7BDFD00246F
:104E48001BE00C2060431549085C002800D116E0DF
:104E58000C2060431149085CA84205D100210C20B0
:104E680060430E4A801841700C2060430B4940187B
:104E78004078002800D0761C641C0A2CE1DB00BFB7
:104E8800002E02D1FCF7D4FD01E0FCF7EBFEFCF7A5
:104E98009FFD0020D0E70000E873FF1F2496FF1F46
:104EA8000020704710B51F201549087001201549CA
:104EB80008700020144908701448C06B400940016C
:104EC80009301249C8630846C06B602188436030C6
:104ED8000E49C86300F01CF800210420FDF7C0FE4D
:104EE80001211420FDF7BCFE01211520FDF7B8FEB5
:104EF80001211720FDF7B4FEFEF734FB10BD0000BA
:104F0800480AFF1F490AFF1F680AFF1F80F0004078
:104F180010B5FEF7E5F910BD10B50446012C18D1FF
:104F280024484069400140090521C9064018214923
:104F380048610846C06920490840204940181D4971
:104F4800C8610846C0694021884340301949C86192
:104F580020E0002C1ED100210A20FFF777FB00215A
:104F68000B20FFF773FB1348C0690321090288432C
:104F780040181049C8610846C069402188430D4956
:104F8800C86108464069400140090B2109074018DB
:104F980008494861074840690121090788434018C2
:104FA8000449486108468069032149048843014946
:104FB800886110BD00F000407F00FEFF80FD010009
:104FC80001B50748002101600099016000F06CF804
:104FD800044A00211320FFF7E5FE002008BD000069
:104FE8001074FF1FB150FF1F0248006A002800D04C
:104FF800004770474003FF1F0148006870470000E2
:105008006008FF1F7FB5089C60011849085C0028EC
:1050180002D0112004B070BD6846407A002801D043
:105028000520F7E76101114A88182021FCF7D6FC12
:1050380060010E49401869462EC910302EC020461E
:1050480001F006FE01206101084A5054002C05D1E8
:10505800074A00210820FFF7A5FE04E0054A0021C1
:105068001920FFF79FFE0020D4E70000E495FF1FFA
:10507800F56DFF1FFF6DFF1F70B504460D46164600
:10508800600108494018807E002805D0324629462C
:10509800204601F027FD70BD32462946204601F022
:1050A800D9FCF8E7E495FF1F38B51F4800780228B7
:1050B80001DD042001E01C48007804461B48006814
:1050C8001B49884209D1012000901848002301217A
:1050D80002682046FCF7CCFD08E000200090134849
:1050E8000023012102682046FCF7C2FD114812493D
:1050F800886300201049403108611020486102206F
:1051080088611220002805DBC206D20E01219140D9
:105118000A4A116000BF02211220FDF755FEFEF772
:10512800FDFFFFF745F938BD4A0AFF1F1074FF1F3E
:105138006B000208050001FF00C8004080E100E0A4
:1051480002488069C00700D0012070474010004025
:105158007047000030B50AC8284A4C071068A40FE9
:10516800800880002043CC08E50704241060002D47
:105178003CD0A0437824A0430C06240FE40020432D
:105188000F24E401A0430C05240FE40120430C0B79
:10519800E5071B4C10602BD0A0431A4C20404C0252
:1051A800A40D240320430F24A405A0434C01240F7D
:1051B800A40520439C01C90E6408214303C2990E2B
:1051C800CC0701218906083A002C13D08843D90E50
:1051D800CC070D4910600FD0884303210907884385
:1051E8009900890F09070843106030BD2043C1E7C3
:1051F8002043D2E70843EAE70843EEE78C74FF1F31
:1052080000080000FF0FC0FF00000008F8B50546C1
:1052180012480F46C07881421FD1E878002818D07C
:105228000024A0004619FF368136F16800290DD008
:10523800086800280AD1287900F074FC0020F06082
:105248000520C00128184178491E4170641C082CAB
:10525800E7DB39462846FCF711FDF8BD2074FF1F2F
:10526800F8B507460546FF37052000268137C001F7
:105278002C18B0004019FF3001300090C16E002991
:1052880005D0287900F04EFC2078401E2070009848
:10529800F96A761CC166082EEBDB0026B0004019BF
:1052A800FF3081300090C168002905D0287900F0CE
:1052B80039FC6078401E60700098F96A761CC160FD
:1052C800082EEBDB0026B0004719FF378137396B12
:1052D800002905D0287900F025FCA078401EA07090
:1052E8000020761C3863082EEDDB284600F088F88D
:1052F8002846FCF7C9FC002108468A005219FF32EB
:105308000132491CD0660829F7DB00218A005219AE
:10531800FF328132491CD0600829F7DBE070F8BD04
:1053280010B50B48A12180788900484309490968CC
:1053380040184178002907D0FF30FF300230C16C97
:10534800002901D00021C164FCF7A4FC10BD0000B5
:10535800300DFF1F3409FF1FFFB504466030C07EC3
:10536800072581B01746012842D12046FCF798FC52
:1053780000283DD02148007800283CD0FF2611366F
:105388002046FCF793FC009020790022314600F07B
:105398007FFB009989000E19FF360136F066002858
:1053A80026D0A620005D002807D03A462046049B58
:1053B8000299FCF781FC3F1DFFB20520C0012518AA
:1053C80028783A46401C2870029938020843F16E42
:1053D8008880F06E0499801DFCF774FCF16E012042
:1053E80008602046FCF774FCE878401EE870002549
:1053F800284605B0F0BD3426C2E700001709FF1F94
:1054080010B50179134A4900515C002920D012498E
:105418000B688C15A3430B600146FF3121310B4605
:10542800097D0224214004796400A418647821438A
:105438001975094B403BDC6BA408A4000C43DC63E2
:10544800037900215B00D154007940008018417035
:1054580010BD00004098FF1F40100340F3B50746F9
:105468009848A121807889004843974989B00968FC
:10547800002644182046FF3021300690407D32280F
:1054880022D0222820D02546FF358135E86A0168D8
:10549800002909D08188001D090A891CFCF71EFC17
:1054A800E96A0020761C0860FCF71EFC0A990025B2
:1054B80008802046FF30C1300790007C002829D0A2
:1054C800B84227DC002018E0804901200860FF204E
:1054D800AD300021005901260160E5E78000001980
:1054E800FF308130006B6D1C8188EDB2090A001D08
:1054F800891CFCF7F3FB0098401C00900798017C7E
:1055080000988142EADC0798007C3F1A86190798C0
:10551800002101746E490020C870FF20AD30005989
:105528000168002903D00079C04380073AD0069863
:10553800C07D002836D00698807D002832D1079893
:10554800007CB8422EDA5F4881781C2041436148CC
:105558000818017A002925D101210172A900091929
:10556800FF31C0688131086300281FD00520C001C1
:10557800201881786D1C491C8170FF204930005B20
:10558800EDB2010A2046FF304930891CFCF7A6FB22
:1055980006980021C1750698012181754C48761C32
:1055A800C1707F1E0798007C002802D030460BB0DF
:1055B800F0BD2046FCF79EFB049000283BDD002F41
:1055C80039DD002031E02046FCF79AFB8000001905
:1055D800FF3001300790C06E8188001D090A891CC0
:1055E800FCF77CFB00281ED00798C16EA8000019A4
:1055F800FF308130016307990020C8660520C0018B
:10560800201881786D1C491C81700178EDB2491E03
:1056180001702046FCF77AFBE11DFF31FA31086A78
:10562800401C761C08620098401C0499009088422F
:1056380001DAB842C7DB23491C228878254B50433E
:10564800C218107A002822D00020691E1DE08300AD
:105658001B19FF3381331B6BD768BB4214D18842B7
:1056680012D0A9000A198000FF3200198132FF30D8
:105678008130D16A0163134881781C204143154861
:105688000818C068D06202E0401CA842DFDB09208D
:1056980080012018817E002911D0017D00290ED0BB
:1056A800428E002A0BD0817F914202D2491C817719
:1056B80005E0002181771A212046FCF72DFBB0B2C6
:1056C80075E70000300DFF1F3409FF1F0014034069
:1056D800E010FF1F6098FF1FF0B589B0FCF7E4F9F0
:1056E80005469A48A1218078890048439849096865
:1056F800441898480068012803D19748816D491CCF
:105708008165052D01D0042D02D12046FFF778FED2
:10571800FCF7B8F99149924A08619248426101221E
:10572800C2600260052D17D0042D7DD1E08E8E4A0F
:10573800C9685043FF22DF32125B801AF8225258A0
:10574800896C801A814A52785208D040814200D22E
:105758000846FCF7E7FA04E06079012801D0FEF773
:1057680081F9FCF78FF9069080480078002805D069
:10577800FF20113000273E46009033E03420F9E73F
:105788002046FCF7D5FA81197948007881422046ED
:1057980003D2FCF7CDFA801905E0FCF7C9FA8119A4
:1057A80073480078081AC0B20790684802228078C7
:1057B800009900F06DF9079989000919FF318131C5
:1057C800C860002813D00520C001201842787F1C2B
:1057D800521C42700020CA68761C1060C968FFB26B
:1057E8008880F6B22046FCF7A9FAB042C8D85D48CE
:1057F800FF2109044268002F04D08A4339040A4370
:10580800426025E08A430121090451184160217949
:1058180001204A0057498854FF203530005D22791D
:10582800C007C00F520000E015E0521850704D48F4
:105838004030026883151A430260026823795208CF
:1058480052005B00591849780A43026002218162BC
:10585800069800F001FA4849486B484AC0B21278E5
:10586800002A17D1464A0023D356002B454BD3565E
:1058780006DB1B040026965732029A18121808E015
:10588800FF331B040026965732029A183E4B121813
:10589800D2184A63022801D2022002E0502800D917
:1058A80050203A4A1278022A11D0394A1678394BD0
:1058B8001F78BE420FD916781B78F31A801E401045
:1058C800434310784001C01A1030401104E0324AB6
:1058D8001678324BECE710784A69120A1202104324
:1058E8004861052D01D0042D16D12D4800780028D7
:1058F80006D02C480078002802D00020FCF724FAB3
:10590800FF34FF340234207B042801D0032803D15C
:10591800FF205F30FCF70AF9022D12D122480078E7
:10592800012807D0032805D0022803D01F48007893
:10593800022806D111480078002802D16C20FCF713
:10594800F5F81B490120C88209B0F0BD300DFF1FD2
:105958003409FF1F9809FF1FFC0FFF1F2074FF1F4A
:10596800FF3F000000100340710200001709FF1FED
:105978001609FF1F4098FF1F800003408C09FF1F76
:10598800680AFF1F00000000FFFE0000490AFF1F11
:10599800440AFF1F450AFF1F460AFF1F470AFF1F49
:1059A800F908FF1F2209FF1F1C09FF1F2309FF1FFA
:1059B800BC0BFF1FF8B53148A12180788900484306
:1059C8002F49096844182646FF3681360020F16AB7
:1059D80035464035086028742A48C1684A05016977
:1059E800520D49014B0DC169274F39401143C1611F
:1059F8009F1A1EE0F06A016800291ED02349287CFE
:105A08000978884215D280000019FF308130006B78
:105A180000280ED0001DFCF79DF93F1A287C810054
:105A28000919FF318131096B8988090A01D0401CA5
:105A38002874002FDEDC2D7C1CE0001DFCF78AF9A1
:105A48003F1AF16A01200860F3E7A8000619FF363B
:105A58008136316B00290BD00848807800F062F855
:105A6800002030630520C00120188178491E81700C
:105A78006D1CEDB2082DE8D3F8BD0000300DFF1FF6
:105A88003409FF1F401003400000FF071509FF1FDE
:105A9800F7B584B00C46FBF78FFF1C4D1C4E2868E9
:105AA800029030681B4F0190386800901A48816B4B
:105AB8002960C16B3160006C3860184800210170A2
:105AC8002046FCF74DF9044602982860019830609A
:105AD800009838601148012202700499104B1C2567
:105AE8006943C918002C03D0087E401C087607E0DB
:105AF8000698C0000B5C002B02D10A5408184468B1
:105B0800FBF766FF204607B0F0BD0000D808FF1F6E
:105B1800D408FF1FDC08FF1F2074FF1FD008FF1FD9
:105B28006098FF1F70B50C460546FBF745FF104807
:105B38001C2100224D432818D100435C002B09D0BA
:105B480041184968A14205D10021D2008154FBF7D0
:105B58003FFF70BD521CD2B2032AEDD3241F218807
:105B68004904490C2180017E491E0176EFE70000B7
:105B78006098FF1F10B504490968002901D08847BB
:105B880010BDFBF7BBFF10BD8002FF1F10B5044915
:105B98008968002901D0884710BDFBF7AFFF10BD09
:105BA8008002FF1F10B504498969002901D0884780
:105BB80010BDFBF7A3FF10BD8002FF1F10B50449FD
:105BC8004969002901D0884710BDFBF797FF10BD30
:105BD8008002FF1F10B504494968002901D0884791
:105BE80010BDFBF78BFF10BD8002FF1F10B50449E5
:105BF8000969002901D0884710BDFBF77FFF10BD58
:105C08008002FF1F10B50449C968002901D08847E0
:105C180010BDFBF773FF10BD8002FF1F10B50A48C7
:105C2800A12180788900484308490968401800790B
:105C380007494000085C002803D006490020887105
:105C480010BDFCF793F810BD300DFF1F3409FF1F7E
:105C58004098FF1FE010FF1F10B50446FBF712FF26
:105C6800A04203D3FBF70EFF011B04E0FBF70AFF7A
:105C78000949091B41180948026A914200D2016288
:105C8800C269914200D9C161426AD3009A1A511877
:105C9800C908416210BD0000FFFF3F002074FF1FCC
:105CA800F7B58CB0054600200690059083E10D9865
:105CB800007825280AD00698002803D10D98069068
:105CC800002005900598401C059071E10598002872
:105CD80006D0059881B20698A8470020069005903E
:105CE800002400BF0D98401C0D900D9800782B28BB
:105CF8000DD004DC20280DD0232814D10DE02D2848
:105D080002D030280FD10BE010200443EAE704202A
:105D18000443E7E708200443E4E720200443E1E7DD
:105D280001200443DEE70026F6430D98007830286A
:105D380008DB0D980078392804DC0DA800F074FE03
:105D480006460EE00D9800782A280AD10D98401CC6
:105D58000D900E9840C80E90002E02DA7642102060
:105D680004430020C04308900D9800782E2821D1C4
:105D78000D98401C0D900D980078302808DB0D9880
:105D88000078392804DC0DA800F04EFE08900CE0DD
:105D98000D9800782A2808D10D98401C0D900E986F
:105DA800006808900E98001D0E900898002801DAE7
:105DB800002008900020C04307900D9800786828BC
:105DC80007D00D9800786C2803D00D9800784C28DF
:105DD80005D10D98007807900D98401C0D900A2069
:105DE8000A900D9800786E287ED00CDC632817D0B6
:105DF80004DC412879D0582873D17AE064287FD010
:105E08006928F9D17DE073282AD004DC6F286DD089
:105E180070287AD150E0752876D0782875D16BE053
:105E280010202040002808D104E0202004900121FF
:105E380004A8A847701E061EF7DC0E980178001DFE
:105E48000E90C8B20490012104A8A84704E02020BD
:105E58000490012104A8A847701E061EF7DCA7E0DD
:105E68000E98006809900E98001D0E900998002859
:105E780001D159A0099008990998FDF73FFA0746FA
:105E880010202040002809D104E02020049001219E
:105E980004A8A8473046761EB842F6DCB9B209987D
:105EA800A84704E020200490012104A8A847304610
:105EB800761EB842F6DC7BE0701C002802D108266A
:105EC800012004430898019400900E9802C83346B4
:105ED800102203910E90284600F002F968E003E0D2
:105EE80003E012E00CE001E062E061E008200A90C3
:105EF80023E04020044300BF10200A901DE003E087
:105F080000BF0220044300BF17E00D980078252841
:105F180004D025200490012104A8A8470D980078F2
:105F2800002806D00D9800780490012104A8A847FD
:105F380002E00D98401E0D903AE000BF07986C28CB
:105F480006D10E9800680B900E98001D0E9025E063
:105F58000798682811D102202040002806D00E9802
:105F680000680B900E98001D0E9017E00E980068C0
:105F78000B900E98001D0E9010E002202040002883
:105F880006D00E9800680B900E98001D0E9005E044
:105F98000E9800680B900E98001D0E9008983346D6
:105FA8000194009028460A9A0B9900F099F800BFCE
:105FB8000D98401C0D900D980078002800D076E6CA
:105FC8000598002806D0059881B20698A8470020B1
:105FD800069005900FB0F0BD3C4E554C4C3E00006D
:105FE8001CB5022018490870012018490870FBF7F1
:105FF800C3FEFCF7E4F8FEF755FFFEF767FD14490A
:1060080014A0FDF7E7FC19480078194909780091B0
:1060180001900D4803780D4802781648017816A0BB
:10602800FDF7D8FC204A082120A0FDF7D3FC012366
:106038001B03A12292001C492848FDF7CBFCFDF761
:1060480087FA00201CBD00004A0AFF1FBC73FF1F0F
:106058000301030053444B2056657273696F6E2029
:1060680049442025303878200A000000450AFF1FDF
:10607800440AFF1F4B0AFF1F7266436C6B2025649E
:10608800207263436C6B20256420737973436C6BB7
:106098002025642074704361705B25303278202598
:1060A8003032785D0A0000009C0D000073697A6543
:1060B8006F6628737472756374206C6C5F706B7490
:1060C8005F6465736329203D2025642C2062756612
:1060D8002073697A65203D2025640A005472FF1FE9
:1060E800FFB597B0054617461E46219C68480068CC
:1060F800039040202040002802D0664800680390A2
:1061080010202040002801D064086400022F01DB21
:10611800242F01DD1BB0F0BDE007C00F002801D01F
:10612800302100E020211691002115910220204005
:10613800002818D01898002806DA2D2015901898ED
:1061480040421890761E0EE004202040002803D01C
:106158002B201590761E06E008202040002802D04B
:1061680020201590761E20202040002806D0102FD1
:1061780001D1B61E02E0082F00D1761E0020029041
:106188001898002806D130220298411C029104A9CF
:106198000A5413E00FE039461898FBF75DFD0398A1
:1061A800425C0298411C029104A90A543946189885
:1061B800FBF752FD189018980028ECD12099029806
:1061C800884201DD029820902098361A112020403C
:1061D800002809D104E020200190012101A8A84746
:1061E8003046761E0028F6DC10A8007D002802D074
:1061F800012115A8A84720202040002816D0082FE4
:1062080005D130200190012101A8A8470EE0102FE8
:106218000CD130210191012101A8A8471C48006830
:10622800203041780191012101A8A8471020204081
:10623800002807D102E0012116A8A8473046761E9B
:106248000028F8DC04E030200190012101A8A847CB
:106258002098411E209102998842F4DC06E004A9A6
:106268000298085C0190012101A8A8470298411EE4
:1062780002910028F3DC04E020200190012101A80C
:10628800A8473046761E0028F6DC00BF42E700002B
:10629800DC73FF1FE073FF1F10B500240420FBF719
:1062A8005FFD084908600422002106480068FBF7E2
:1062B80069FD2046641CFBF76BFD2046641CFCF757
:1062C80035F910BDD873FF1F10B504480178C90708
:1062D80001D07621C160FBF761FD10BD00200040B0
:1062E80010B50C4A0021D36812691B781268002A7D
:1062F80003D04C00145B002C03D1491CC9B299424D
:10630800F5D3994204D2002800D00170002010BDB6
:10631800012010BD0000FF1FF0B5234E234B0028BD
:1063280022D000211CE0A120800032684843801858
:1063380004460022FF34813497003F18FF370137A5
:10634800E56A521CFD66082AF6DB002297003F1812
:10635800FF378137E56A521CFD60082AF6DB491CC5
:1063680018788142DFDBF0BD0021084617E0A12242
:10637800920034684A431419002295002D19FF35FC
:106388000135521CE866082AF7DB002295002D1912
:10639800FF358135521CE860082AF7DB491C1A785A
:1063A8009142E4DBF0BD00003409FF1F1409FF1F10
:1063B800F8B51E484168090601D50020F8BD4168B6
:1063C800802211434160194D0A260027803DE86963
:1063D80040084000E8610620FBF702FC134CC03C73
:1063E800A06980210843A061E86901210843E861A8
:1063F80002E00820FBF7F4FBA86A800504D43046C5
:10640800761EF6B20028F4D1002E07D0286A7E2125
:10641800C70BA0690F4088433843A061A169802059
:106428008143A1613806400EF8BD0000C0F000406D
:10643800124B10B512497E2298420AD98B695B0625
:106448009B0E06D088698B694006800E9343401ED8
:106458000CE00C4B98420FD2886910407E280BD272
:1064680088698B694006800E9343401C40000343B3
:106478008B610320FBF7B4FB10BD00000B2000006C
:1064880000F00040FD1C000001484069800870478A
:106498004010004010B500F013FAFFF789FF10BD57
:1064A80030B53948016801229204114301604168FE
:1064B800032212069143354A13781B06194341609B
:1064C8004368032189058B4331490C78A40523438C
:1064D800436043686024234343601378022B08D049
:1064E8001378012B05D00B78022B02D00B78012BE7
:1064F80004D14368FF240134234343601278032AFC
:1065080002D00A78032A03D1426880231A434260E2
:10651800426803239B041A4342600B780122D20588
:106528001C48002B03D11C4B1B78032B1BD0C368C2
:106538009343C360174A194B4032D360FF2361333A
:106548001361174C5461174B9361FF25114B81352B
:1065580080335D609C60144CDC60144B03600978E8
:10656800002903D006E0C3681343E2E7016801236A
:10657800194301600E4909780E4BC906C90BC918A1
:1065880081630D48D06130BD40F000404C0AFF1FC8
:106598004B0AFF1F800003404A0AFF1FC00B002060
:1065A8007A3E6A070000890400808904CC24000030
:1065B800480AFF1F250800002FFCA601F8B50500B2
:1065C8004C4A4D484D4B4E4C4E4936D0022D34D096
:1065D8008615B702066286699E43F319836120789F
:1065E800002835D011204003086147480863474810
:1065F80000780122120380184861424E414C444BF6
:10660800803E403C002D28D06521424AC9024248BC
:10661800012D2FD0022D32D0032D5BD0042D59D05F
:106628003E49691831603E49A1602360E06002215B
:106638000846FBF7B9FB3B482CE0802606628669D2
:106648009E430123DB04F31883612078002801D0DE
:106658000A61CAE787200003C6E733483060002094
:10666800A06023603148E06003210846FBF79CFBEB
:106678002F480FE02F4B3360A2602160D6E72D4BE7
:106688005B1C3360A2602160E06002210846FBF7D2
:106698008BFB29482061F068FF210843F0602748F8
:1066A80060612748A0612748E061274820622748A1
:1066B80060622748A0622748E0622748206327488D
:1066C8006063E020012D0DD02168022D0ED081439A
:1066D8002160F8BD224BEB183360224B73602160B8
:1066E800A260A3E7216881432031F1E7814340316B
:1066F800EEE7000000450400C000034000001C0055
:106708004B0AFF1F8000034002000001440AFF1FDC
:1067180000280B0055555537D6BE898E0080064295
:1067280055555500805508220080067807EE7536C5
:10673800806608220180063D80450822A49C5C549E
:106748004C44434241524C46403A342E28007F552F
:106758004F49433D37312B4C46403A342E28221CB2
:1067680000800698545A9850F0B5224B214D214983
:106778008026204A0727BF04403BC03DE0248039DB
:1067880002281662966914D0BE430127BF04F61981
:106798009661194A1278002A1ED07A101A610128C7
:1067A8001ED0164A80182860154808610868A0435A
:1067B80014E00120BE43C004361896610E4A1278D0
:1067C800002A00D0401018610E4828600E48086161
:1067D8000868A043403001E01F61E0E70860F0BDB1
:1067E8000848401E2860094808610868A04320300E
:1067F800F4E70000C00003404B0AFF1F0080069822
:10680800805508220280063D8045082280660822BD
:1068180010B50A4900200870094902200870FFF7DE
:106828003FFE0848007800F011F8074C2078FFF781
:10683800C5FE2078FBF7BEFA10BD00004B0AFF1F0B
:106848004C0AFF1F480AFF1F490AFF1FF0B51A4AE2
:1068580003230725D60019499B026024ED015769D7
:106868003F281AD0B74305263604BE195661CA68B0
:106878009A43CB14D218CA60CA69A2432032CA61AB
:10688800CA69AA43CA610D4940398A6BC006120514
:10689800120DC00B02438A63F0BDB7430126B6044C
:1068A800BE195661CA689A43CA60CA69A243CA61D6
:1068B800CA69AA438032E5E700F00040C0000340FF
:1068C80000B50021022000F021F80C49801C087056
:1068D8000021422000F01AF80949801C08700121A3
:1068E800022000F013F80749801C0870012142209B
:1068F80000F00CF80449801C087000BD440AFF1F12
:10690800450AFF1F460AFF1F470AFF1FF8B53B4C01
:10691800394A2260394D394A07239B048035403271
:106928000129A9690ED0994301239B04C918A961BB
:106938003349D16033490B780121C905324E002B08
:1069480007D009E099430123DB04C918A9612F493D
:10695800EFE73378032B14D0D3688B43D3605063AD
:106968000E20106200275762FF2015305062284819
:10697800009030780300FBF723FA0507070D090B91
:106988000D00D3680B43E9E7224802E0224800E003
:10699800224800900098431E0093FBD2686B576210
:1069A8000002000E17621E4BD360FF23413353626F
:1069B8006523DB0223601B4D2F78E023012F0AD0CB
:1069C8002D78022D25680AD09D4325600D4B1B7834
:1069D800002B07D009E025689D432035F5E79D4346
:1069E8004035F2E73378032B03D0D3688B43D36069
:1069F800F8BDD3680B43FAE71000030040000340DA
:106A08007F4073004B0AFF1F4A0AFF1F7F40530055
:106A180010270000204E000030750000409C000048
:106A280040401000490AFF1F0146002008E00B689B
:106A38005A1C0A601B780A2242439A1810463038BA
:106A48000A681278302A03DB0A681278392AEEDDE0
:106A58007047000038B504460B461F49012C00D189
:106A68001E490020009007E00098451C00951C4D29
:106A7800A84201DD0D2038BDC86FC007C00F00282F
:106A8800F2D112E00020009007E00098451C009524
:106A9800134DA84201DD0D20EDE7087D2025284093
:106AA8000028F2D0187808705B1C1046551EAAB250
:106AB8000028E7D1009007E00098451C0095084D94
:106AC800A84201DD0D20D6E7087D40252840002892
:106AD800F2D00020CFE700000040004000900040C6
:106AE800A0860100F7B582B00746154678013249FD
:106AF8004018041D314E002D02D00398002802D101
:106B0800062005B0F0BD2078002801D10320F8E761
:106B1800E088A84201DA0320F3E72078012816D09C
:106B2800A0884019E188884201DD0320E9E7FAF7E7
:106B380043FFA288A16888182A460399FBF7C2F880
:106B4800A0884019A080FAF743FF0020D9E72A4619
:106B5800A0680399FBF7B6F8A580002060800220A2
:106B68002070A0680190102D01DD102000E028465B
:106B78000546012F00D1124E7068022188437060CB
:106B880005E06188481C60800198405C30702846A8
:106B9800691E8DB20028F4D1002F03D10820FEF71A
:106BA800CBF802E01920FEF7C7F870680221084305
:106BB80070600020A5E70000E495FF1F004000403A
:106BC80000900040F8B5054608270B261B4C012D00
:106BD80002D1192711261A4C3046002805DBC206B7
:106BE800D20E01219140174A116000BF8020207306
:106BF8000020207120702073207260603846FDF7F5
:106C080029FB3846FDF7D6FA002D03D100200E499E
:106C1800C86203E000200C494031486069010B4A12
:106C28008918087C0021FDF7F1FB6901074A8918DA
:106C3800487C0021FDF7EAFB0020F8BD0040004039
:106C48000090004080E100E08003FF1FE495FF1FF3
:106C5800F0B585B00646FAF7F3FF04905A4C0820C1
:106C680003900B20029004200190052000903046EC
:106C7800FFF7A8FF012E08D1544C192003901120CA
:106C88000290082001900920009070015049401896
:106C9800007CFF2807D170014018407CFF2802D1F2
:106CA800062005B0F0BD7001494940180546103569
:106CB8000398FDF7A7FA0398FDF7CCFA01211220F3
:106CC800FDF7C4FC01211220FDF7C0FC1220019938
:106CD800FDF7B4FB12200099FDF7B0FB00202073EC
:106CE800049A12116B685B08D0186968FAF7B4FF48
:106CF800074600202061802020733846FF210902C2
:106D08000840000A20712770E87A002810D02E4920
:106D18008C4202D12F49097801E02F4909780846A9
:106D2800002802D01B21217301E00B21217301E00F
:106D380003202073287A002802D08720207201E0DF
:106D48000020207201206060287A002803D0606843
:106D5800802108436060A87A002803D06068022177
:106D68000843606028780121FDF770FC68780121EC
:106D7800FDF76CFC28780199FDF760FB68780099AD
:106D8800FDF75CFB00211220FDF740FB03211220D8
:106D9800FDF75CFC002E03D110481149C86203E0DE
:106DA80010480F494031486002210298FBF7D0FF94
:106DB8000298002805DBC206D20E012191400A4A3A
:106DC800116000BF00206CE70040004000900040C8
:106DD800E495FF1FE473FF1FE573FF1FA93FFF1F23
:106DE8008003FF1FFD3FFF1F00E100E010B50020FA
:106DF800FFF72EFF10BD10B50120FFF729FF10BDCA
:106E0800F8B56E4CFF21E068D5316D4A095811601C
:106E18008030806880F30888FAF7AEFF69486A49CD
:106E280000680226884206D00020FAF7DFFE7007C5
:106E38000169B14301610020FAF7D8FE00F0EAF8D1
:106E480062480078FAF7B6FF614D0027EF61EE61FE
:106E5800604868610120FAF7C3FE0320E861FAF789
:106E6800A1FE0646FAF70EFE0546FAF79BFE5A49BA
:106E78000860FFF7CDFC59480068864201D9301AEE
:106E880001E0301A401E5649884200D90840E1689E
:106E98008A8DD20709D0534A030C126880B2534333
:106EA80050431B02000A18180BE0C2018300D21AD3
:106EB8004300D21AC3001818921C80309208400A66
:106EC80010182065FF3148480131496800680918E1
:106ED80046480068091A3F48401C09188A0844486F
:106EE8008B07444902600E689B0F9B190B60042BAB
:106EF80004D9521C02609A07920F0A60216D00683B
