:020000041102E7
:1000000003B40148019001BD75A9000003B4014883
:10001000019001BDC93E000003B40148019001BD3B
:100020009DA9000003B40148019001BDB30E00007A
:1000300003B40148019001BD015CFF1F03B40148F6
:10004000019001BD116E000003B40148019001BD93
:100050008BB9000003B40148019001BDD1D4000068
:1000600003B40148019001BDA93C000003B401485C
:10007000019001BDB12FFF1F03B40148019001BDE4
:100080007946FF1F03B40148019001BDADAE0000E9
:1000900003B40148019001BD456B010003B4014860
:1000A000019001BDE951FF1F03B40148019001BD5A
:1000B000E12BFF1F03B40148019001BD254AFF1F3A
:1000C00003B40148019001BD154D010003B401487E
:1000D000019001BD350E000003B40148019001BD3F
:1000E000094BFF1F03B40148019001BDDD4BFF1F09
:1000F00003B40148019001BD7121FF1F03B4014801
:10010000019001BD1D35FF1F03B40148019001BDE1
:10011000E94C010003B40148019001BD090E000043
:1001200070B50C460546FFF76BFF21462846FFF7E2
:100130006DFF0446FFF770FF204670BDFEB5089DB9
:10014000099C1746002874D0002972D0002C02D0D8
:10015000012C02D003E02A2201E0FF220732921D87
:100160000192354A0E461770344A106034480370C5
:100170003448057034480470002446E0A120800013
:10018000254645432D48A121006889002818FFF71E
:1001900049FF2A482D49006862002818FF30813045
:1001A000C6620198361800208854511848702649B4
:1001B000097800293BD0FF211131009121461C20F4
:1001C00041432248002220300D182A764254E0B2E2
:1001D0000099FFF72DFF686000202872E0B201222D
:1001E0000099FFF725FFE86000202874E0B20222A2
:1001F0000099FFF71DFF68616968002919D0E96857
:10020000002916D0002814D0641CBC42B6DB0020A4
:100210000F4D104A014683009C186580401CD15444
:10022000C0B261701028F6D30020FEBD01E0342179
:10023000C3E71220F9E700001409FF1F3409FF1F6C
:100240001509FF1F1609FF1F1709FF1FE8D9FF1F18
:10025000FFFF0000C8DBFF1F10B5FB2908D8084BC3
:100260009A4205D81B2903D3FF2349339A4201D26E
:10027000302010BD034B19825A82FFF7DFFE10BDFC
:10028000480800008410FF1FFFB50D46A12189001A
:100290004843234981B009681E464418002D09D0FF
:1002A000FF20D930015B0398814203D3002E04D094
:1002B000012E02D0122005B0F0BDE07800280AD04F
:1002C0000520C00127181748F9780078801C814262
:1002D00003D30720EFE70220EDE7FFF791FEF87860
:1002E000A91E401CF87003980870002E10D0012041
:1002F000487020467C30091FFFF7A6FEFFF78CFEF2
:1003000009480078082805D0072803D00020D2E744
:100310000220EDE700212046FFF79CFEF6E70000F3
:100320003409FF1F1509FF1F1C09FF1F70B5FFF7D8
:1003300067FE904C002025682060FFF791FE06467E
:100340002560FFF769FE304670BD8B49C968FF31F3
:10035000813188657047F8B5FFF788FE864D874A7A
:1003600068721178022903D9002801D10120107088
:10037000834900200446E9608300401CCC50FF28DC
:10038000FADDE8687F49882319507F49C1627F49B7
:100390000978002902D07C491131C1620A21016526
:1003A000117881637A49C161FFF766FEE96879488F
:1003B0004861192080018861084637228030C26078
:1003C000082336220B64CA631E224A643622426026
:1003D000322202603B220364C2632822426441222B
:1003E000C264392282643222436502652822826512
:1003F000022202664222C2651E22836642662822CB
:10040000C26620224267422202675A224361026189
:100410003C228261192292010A605F4A0A63FF222C
:100420002D328A60CA60FF22F5320A615B4A8A6413
:100430007D22D2005A4EC267CE644A62594A8A620D
:100440003222CA6506224A658A65CA1DF93202252A
:1004500013604D664B25ED008D660925CD66524D26
:100460000D678C674B67AB10CB67504FFF313E6019
:100470004A4E86627D26F600866764264662052619
:10048000C66202260663C82646638463382050602D
:10049000474810644B2080019061B000D061581033
:1004A00010627D2000015062D46695651366536426
:1004B000D565146753671E2090663E4890673E4896
:1004C0005B008131D0670B608B604860FF20F530A6
:1004D000C86008614B20C00010630E65384837497A
:1004E000274A81603749803A11613549364A80315F
:1004F0008A62364ACA62364A8261364AC262364ADD
:1005000002632F4A3548403A50633548D063354836
:10051000C861354890632A4934484031886135497B
:100520003348886026483449803841603349244A3A
:1005300041633349C03AD1603349324B204CCB63DD
:10054000324B403C2363324B9362324AC263324A9D
:10055000C260324A4A63324AE260324A8A63324AAD
:100560000A6332498163FFF78DFD0120FFF790FD9B
:10057000F8BD00009809FF1FD473FF1F4A0AFF1F30
:100580000004FF1F38E0FF1F6E0400007870FF1F9B
:100590003A07000080C3C9019A02000050C300005E
:1005A000280A00006A180000204E0000F009FF1F12
:1005B00000400011DC05000040420F004958FF1FB9
:1005C0000001FF1FE527FF1F6161FF1F3564FF1F4B
:1005D000F124FF1F8526FF1F0D25FF1FDD36FF1F9E
:1005E0004134FF1FED6CFF1FD96AFF1FC152FF1F6F
:1005F000590202110002FF1F7D53FF1FCD55FF1F3F
:100600000D2AFF1F210102110000FF1F955FFF1F30
:100610009154FF1F255BFF1FC954FF1FF529FF1FC2
:10062000D153FF1F89020211A129FF1FE15DFF1FA6
:1006300010B5002819DB1A4A03231B02D2188308BD
:100640009B00D2588307DC0EFF23A3409A438B07FD
:100650001B0E8407E40EA3401A43114B032424020B
:100660001B198408A4001A5118E00E4A03071B0F37
:10067000083B9B089B00D2588307DC0EFF23A34056
:100680009A438B071B0E8407E40EA3401A43054BC5
:100690000407240F083CA408A4001A5110BD000050
:1006A00000E100E01CED00E010B502460B461146EB
:1006B00000E0491C0878002803D018465B1E00287B
:1006C000F7D1881A10BD70B504460D462A4621465A
:1006D0000020FFF7E3FC70BD01880905090D002922
:1006E00010D1016810310160074A0168126812795F
:1006F0001203914206D3044A016812681279120368
:10070000891A016070470000A070FF1F0FB408B580
:1007100003A800900548009A029901F06DF90020A5
:10072000009001B008BC04B018470000C7060211D1
:1007300000200CE00022D2434300064909689631AC
:10074000CA524300034909681631CA52401C402866
:10075000F0DB7047A070FF1F10B502460B46114832
:10076000824201D12F2010BD002117E04C000E481D
:1007700000681630005B90420FD14C000A480068B8
:100780009630005B074CA04207D04C00064800683A
:100790009630005B18600020E5E7491C4029E5DB46
:1007A0002E20E0E7FFFF0000A070FF1F30B50246DB
:1007B0000B461E48824201D12F2030BD002118E097
:1007C0004C001B4800681630005B904210D14D0071
:1007D00017480068963043531448834206D10024DA
:1007E000E4434D0012480068163044530020E4E70B
:1007F000491C4029E4DB002114E04C000C4800684F
:100800001630005B094CA0420BD14D00084800682F
:10081000163042534D00064800689630435300207E
:10082000CBE7491C4029E8DB3020C6E7FFFF00008A
:10083000A070FF1F10B505480068C07C002802D0DA
:10084000FFF732FC10BD0020FCE70000A070FF1F86
:1008500070B50546002404E021034819FFF72AFC7F
:10086000641C034800680079A042F5DC70BD0000FC
:10087000A070FF1F10B504462046FFF71BFC10BDFB
:1008800038B5002000900E480068807C002801D117
:10089000272038BD00226946104600F0FBF80446C8
:1008A000002C04D1064900980968888206E0212CB2
:1008B00004D1012000030249096888822046E8E744
:1008C000A070FF1F70B598B0002427250026FF20D8
:1008D0006F49096808726E49096848726C4909686D
:1008E000887110206A4909684871012068490968BF
:1008F000C8710922FF21664800680A30FFF7E0FB53
:100900004E22002104A8FFF7DBFB00BF4AE060494C
:1009100009680968220388181022694600F000FA65
:100920005B49009809680968884228D168460079BF
:10093000574909680979884221D168464079544964
:100940000968497988421AD1684681795048006817
:100950000079401E814210DA68468079A04201D1B8
:10096000022600E003266846807904A908556846F7
:10097000807947490968887112E0042617E00098D9
:10098000401C00280AD168460079FF2806D1684635
:100990004079FF2802D104A9085501E0042606E0A9
:1009A000601CC4B23A4800680079A042AFDC00BFC6
:1009B000042E02D1202018B070BD3548006880791F
:1009C000FF2800D10126012E2ED1002412E030484C
:1009D000006884712E49096809682203881810226A
:1009E0002B49096800F0A6F9002801D01F20E2E792
:1009F000601CC4B2264800680079401EA042E6DCB4
:100A00000020234909680874214800680079401EC5
:100A10001F490968487410201D490968888201200F
:100A20001B49096888742EE0002406E004A8005DD4
:100A3000002800D106E0601CC4B2154800680079A7
:100A4000A042F3DC00BF124800680079A0421ADD22
:100A50000F4A126811790E4A126812791219501E43
:100A6000FFF734FBC8B20A490968487401200849F5
:100A700009688874FFF704FFC5B2212D03D0002D4B
:100A800001D02A2097E7FFF753FE002093E70000EC
:100A9000A070FF1FF7B588B00D4601240020059017
:100AA00001900120079026E19C4A126811799B4A27
:100AB0001268537C079A9818FFF708FBC8B2069093
:100AC000FF2C03DDE01FF83884B210E108980028FD
:100AD0000DD1924A12681179904A1268537C079A94
:100AE0009818FFF7F3FAC8B28C4909680874069899
:100AF000000304900126F5E00198012804D10020AC
:100B00000190301986B211E0012C0FDDB01E0019E2
:100B1000FF2803DA701E001986B207E0FF200230BA
:100B2000801B201A84B201200190DEE0310104987C
:100B300009180391794909680A6803995018042231
:100B400002A900F0EDF80898002804D0012833D05D
:100B5000022877D16CE002988003800F002804D02F
:100B6000022803D0032824D11CE000BF0298000D06
:100B7000801C059002980003800F012810D10C21E1
:100B80000598FFF7A3FA07460C210598FFF79EFA90
:100B9000002901D0012000E00020381884B200E0D4
:100BA000012407E003980005000D286000200BB029
:100BB000F0BD00BF00BF92E002988003800F0028C4
:100BC00004D0022803D003282FD12CE000BF0298C4
:100BD0008003800F02280AD1029880B2298889B246
:100BE000884204D10A99039808600020DFE7029840
:100BF000000D801C059002980003800F012810D181
:100C00000C210598FFF762FA07460C210598FFF7BB
:100C10005DFA002901D0012000E00020381884B2DC
:100C200000E0012402E02520C1E700BF00BF56E03C
:100C300002988003800F002805D002282CD00328BA
:100C400048D145E049E002980003800F012819D1FE
:100C50000298000D801C05900C210598FFF736FACC
:100C600007460C210598FFF731FA002901D0012031
:100C700000E00020381884B20C206043296808186E
:100C8000286003E0012428680C3028600A98006876
:100C9000401C0A9908601EE002980003800F01289A
:100CA00014D10298000D801C05900C210598FFF7C7
:100CB0000DFA07460C210598FFF708FA002901D024
:100CC000012000E00020381884B200E0012402E096
:100CD00000206CE700BF00BF01E0062067E700BF0F
:100CE000701C86B2FF2E00DC06E700BF00BF07982D
:100CF000401CC0B2079009480068017907988142FA
:100D000000DDD1E60898002802D0012804D101E0D6
:100D100021204CE725204AE7002048E7A070FF1F6C
:100D200070B504460D461646324629462046FFF762
:100D3000D3F970BDF8B504460D461646324629462D
:100D40002046FFF7CFF9C7B23846F8BD70B5054861
:100D5000C56B044840300468C4602946204600F052
:100D6000D5FD70BD0080004070B505460C46FFF70C
:100D700061FD8006800E002801D0292070BD002072
:100D80000A49096888740948006804712805000D3B
:100D9000002801D1032C01DA0620EFE72846FFF7EF
:100DA00057FD2146284600F035F9E7E7A070FF1F00
:100DB000F0B589B000200590002600250490FFF7CB
:100DC00039FD8006800E002802D0292009B0F0BD30
:100DD0005A480068807C002801D12720F6E7574850
:100DE0000068467C554A12681179544A1268527C50
:100DF000501CFFF76BF9C8B2059030030490002433
:100E000090E04E4A12681179059A1019FFF75EF9C1
:100E10000D034A480068006840190390474800687D
:100E200084710120454909680872444A12681179A1
:100E30003019FFF74BF90803404909680968401861
:100E4000102200903D4801680098FFF773FF0028CA
:100E500001D01F20BAE7002C02D104981030049072
:100E60001035002740E0354909680968481904220F
:100E700002A9FFF755FF02988003800F02282AD1AC
:100E80002E49096809684919081D0C2206A9FFF7AF
:100E900047FF2A4909680968049A8818042202A9A8
:100EA000FFF748FF002801D01F208FE7234909687A
:100EB0000968049A8918081D0C2206A9FFF73AFF51
:100EC000002801D01F2081E704981030049004A866
:100ED000FFF702FC05E002988003800F032800D191
:100EE00004E01035781CC7B2FF2FBCDB00BF0398AD
:100EF000FFF7C0FC00201149096808720F4A126808
:100F000011793019FFF7E2F808030C4909680968FC
:100F1000401810220090094801680098FFF70AFF66
:100F2000601CC4B2054800680079401EA04200DD84
:100F300067E7FFF7C7FC0190019847E7A070FF1F24
:100F400070B504460025002020601F480068807CA2
:100F5000002810D1FFF7CCF806460421FFF7B3FBB9
:100F600019480068817C19A0FFF7D0FB19A0FFF792
:100F7000CDFB272070BD14480068808A0121090339
:100F800088421EDA104A1268527C0F4B1B681B798C
:100F9000D2180D4B1B681B7CD21A501E0A4A1268CD
:100FA0001179FFF793F8FF20000141430D460648F1
:100FB0000068808A01210903081A45190C2068433A
:100FC000050925600020D5E7A070FF1F5B25642C74
:100FD00020305D000D0A00007CB504460020019021
:100FE00000900B480068807C002801D127207CBD40
:100FF0006A4601A90220FFF74DFD0546002D05D1E7
:10100000002C01D0009820600198F0E70120EEE765
:10101000A070FF1F70B504460D460E480068807C26
:10102000012801D1272070BD2005000D002801D125
:10103000022D01DA0620F6E706480068046005483C
:101040000068057104A0FFF761FBFFF73BFC064653
:101050003046E8E7A070FF1F66735F696E69742011
:101060000A00000004480068807C002801D00120AC
:1010700070470020FCE70000A070FF1F7FB504460A
:1010800000200390FFF7D6FB8006800E002802D0D8
:10109000292004B070BD0F480068807C002801D171
:1010A0002720F6E703A9204600F028F800280FD1F2
:1010B000009001900290074909680968039A89180D
:1010C000081D0C226946FFF735FE05462846E0E775
:1010D0002520DEE7A070FF1F70B50546064A0021F7
:1010E000284600F0EDF80446002C03D102492846BA
:1010F000FFF75CFB204670BDFFFF0000F8B5064619
:101100000C460020009010480068807C002801D127
:101110002720F8BDB0B2009021460098FFF71CFBD5
:10112000002800D1F5E7224669460120FFF7B2FC0E
:101130000546002D05D1276839460098FFF736FB94
:1011400000BF2846E5E70000A070FF1F70B5054608
:101150000C462246FF21284600F0B2F80646034915
:101160002846FFF723FB304670BD0000FFFF00005C
:10117000FFB585B00F4600200490FFF75BFB8006AB
:10118000800E002802D0292009B0F0BD4B4800682D
:10119000807C002801D12720F6E7002F02D0079895
:1011A000002801D12220EFE703A90598FFF7A6FF49
:1011B00000286ED1414909680968039A88180422F9
:1011C00002A9FFF7ADFD0898002803D00298010D91
:1011D000089801800298050D0298010D0798814238
:1011E00067DC62E00C2D01DB0C2000E02846C4B275
:1011F000049AB918314A12681268039BD218101D5C
:101200002246FFF78DFD281B85B2002D43D12646CF
:101210000298020D39460020FEF770FF00900C2E58
:1012200006D103981030039003A8FFF755FA002663
:10123000224909680968039A8918091D8819012239
:1012400001A9FFF76DFD701CC6B20C2E06D10398E4
:101250001030039003A8FFF73FFA002617490968EA
:101260000968039A8918091D8819012201A9013109
:10127000FFF756FD684601790098C0B2814206D159
:101280006846417900980004000E814202D01E2079
:101290007AE710E000BF039810300390049800191B
:1012A00080B2049003A8FFF717FA002D9ADC002003
:1012B0006AE7262068E7252066E70000A070FF1F88
:1012C000F7B584B00C461546002601200390002097
:1012D00002900190FFF7AEFA8006800E002802D03F
:1012E000292007B0F0BD33480068807C002801D178
:1012F0002720F6E702A90498FFF700FF002857D13E
:101300002C4909680968029A881804226946FFF77F
:1013100007FD0098000D801C01900C210198FEF73C
:10132000D5FE07460C210198FEF7D0FE002901D01A
:10133000012000E00020381880B20390002632E03F
:101340001C4909680968029A881804226946FFF74F
:10135000E7FC032109040098884300998903890F59
:101360002140090403221204114008430090009810
:10137000010C0904284080B2014300910D4909681D
:101380000968029A881804226946FFF7D3FC0028EE
:1013900001D01F20A5E702981030029002A8FFF7A5
:1013A0009BF9701C86B203988642C9DB002098E73F
:1013B000252096E7A070FF1FF7B58EB01446224691
:1013C00000200F99FEF79AFE0090FFF733FA80068F
:1013D000800E002802D0292011B0F0BD7B480068A3
:1013E000807C002801D12720F6E70F98002804D040
:1013F000002C02D07648844201DD2220ECE707A8C9
:10140000FFF79EFDA01C0799884201D92320E3E73E
:1014100009A90E98FFF772FE002806D10E98FFF773
:101420005BFE002801D00120D6E7A01C86B20898F8
:101430000003000B2105090D0905084308900898D1
:10144000000C00040E9989B2084308900321090496
:101450000898884301214904401808900C2C05DCA9
:101460000321890408988843401808900025A7E0C4
:10147000002D0CD1002C0ADD54480068007C0003CC
:10148000524A1268928A81180E98FFF78FF90C2E33
:1014900017DDA01C864208D10321890408988843DF
:1014A000012189044018089007E003218904089865
:1014B00088430121C904401808900C27F01B86B20C
:1014C00010E008980003800F022804D00898000359
:1014D000800F012804D103218904089888430890CB
:1014E000F7B2002639480068006838490968097C65
:1014F0000903401835490968898A4018099004226F
:1015000008A90AA8FEF700FEBC4219DC002C0FDD7A
:101510000F9841193A4601A8FEF7F6FD01A9009877
:10152000085500980004010E01AA601C1154002502
:10153000002401A841193A460BA8FEF7E5FD07E093
:101540000F9841193A460BA8FEF7DEFDE01B84B266
:101550003A1D0AA90998FFF7EDFB002801D01F20CA
:101560003AE7E81985B219480068808A10301749AF
:101570000968888215480068808A01210903884229
:101580001ED1124A12681179104A1268127C501C3E
:10159000FEF79CFD0D480068407C814210D0102071
:1015A0000A4909688882094A12681179074A12684B
:1015B000127C501CFEF78AFDC8B204490968087401
:1015C000002E00DD54E7002006E70000A070FF1F9A
:1015D000FF0F000030B504460D46072C01DB102C30
:1015E00001DD062030BD162C01DD0520FAE7002DB7
:1015F0000CD00021204600F035F909480068E11FB1
:1016000001228A4010430649086007E00448006848
:10161000E11F01228A409043014908600020E1E770
:1016200000380040162800DD7047002907D0084A1E
:10163000D268012383401A43054BDA6006E0044A6E
:10164000D268012383409A43014BDA6000BFEBE785
:1016500000380040FEB504460F46002001900025EA
:10166000FF2C20D0A610A007800F00900098C50086
:10167000681D0190204600F031F90B48B100415837
:101680000198421B521C01209040421EAA4008466D
:1016900090433946A94008430349B20088500121CC
:1016A0002046FFF7BFFFFEBD1838004010B51248B6
:1016B0000078002801D0072010BDFF2131310E48ED
:1016C000FEF7B0FC01200C49087000200B490863AC
:1016D00048630B490862486202211020FEF7A8FF08
:1016E0001020002805DBC206D20E01219140054AD8
:1016F000116000BF0020DFE76894FF1F00800040FA
:1017000080F0004000E100E001461048426B4B1AB7
:101710005B1C01209840431E8B40104698430122D9
:101720008A401043094A50631046026B4B1A5B1CF7
:1017300001209840431E8B401046984300228A4067
:101740001043024A106300207047000000800040F0
:1017500010B502460B46162A01DD052010BD1248C1
:10176000816B0120904001430F488163416B012050
:1017700090400C46844321460B484163C16B012BCA
:1017800003D101209040014304E0012090400C4629
:10179000844321460448C163016B0120904001430A
:1017A000014801630020D9E70080004010B50029FE
:1017B00008D0094A5269831E01249C402243064BEB
:1017C0005A6107E0044A5269841E0123A3409A43E8
:1017D000014B5A6110BD00000038004030B504468E
:1017E0000D46162C01DD052030BD1C48005D01288A
:1017F0000BD11A48401E80690121A14008400028F1
:1018000003D0002D01D10620EEE700212046FFF78E
:1018100009FF022C01D0032C03D101212046FFF740
:10182000C5FF00212046FFF7D5FE012D0AD10C4847
:1018300040680121A1400843094948600121074847
:10184000015509E0064841680120A0408143044851
:1018500041600221014801550020C5E76994FF1F3E
:1018600000800040F0B50246162A00DDF0BD5500AC
:101870005519184E735D55005519AD196C78550002
:101880005519AD19A878132A11DA134D9E00AE59D7
:10189000271A7F1C0125BD406F1E87403546BD437A
:1018A0000E4686402E430C4D9F00EE5110E00A4D2F
:1018B000083D6E69271A7F1C0125BD406F1E8740B9
:1018C0003546BD430E4686403543034E083E75619E
:1018D00000BFCBE7311F021108F0004070B504468D
:1018E000094D162C01DD052070BD00210C20604340
:1018F000295405481B3801552046FFF76FFF204645
:10190000FFF702FFF0E700008494FF1FF3B581B0FA
:101910000646234D002440E00120A040304000282E
:101920003AD00120A04002990840002801D00120AF
:1019300000E000200746E0B2394600F033F80C2002
:10194000604340194068002810D00C2060434019C3
:10195000806800280AD0012F01D0012000E000207B
:101960000746E0B23946FFF7F3FE14E00C2060436F
:1019700040194068002804D0E0B20121FFF7E8FEDA
:1019800009E00C20604340198068002803D0E0B2D1
:101990000021FFF7DDFE00BF641C172CBCDBFEBD81
:1019A0008494FF1F70B504460E46124D162C00DDC0
:1019B00070BD0C20604340194068002809D0012EFA
:1019C00007D10C206043401901214268204690470E
:1019D0000EE00C20604340198068002808D0002EDB
:1019E00006D10C20604340190021826820469047B0
:1019F00000BFDDE78494FF1FF7B58CB005460020DB
:101A00000690059083E10D98007825280AD0069865
:101A1000002803D10D980690002005900598401CE1
:101A2000059071E10598002806D0059881B20698C6
:101A3000A847002006900590002400BF0D98401C88
:101A40000D900D9800782B280DD004DC20280DD0A7
:101A5000232814D10DE02D2802D030280FD10BE01F
:101A600010200443EAE704200443E7E70820044386
:101A7000E4E720200443E1E701200443DEE70026F9
:101A8000F6430D980078302808DB0D980078392847
:101A900004DC0DA800F02CFA06460EE00D98007844
:101AA0002A280AD10D98401C0D900E9840C80E901F
:101AB000002E02DA7642102004430020C043089032
:101AC0000D9800782E2821D10D98401C0D900D986E
:101AD0000078302808DB0D980078392804DC0DA840
:101AE00000F006FA08900CE00D9800782A2808D13A
:101AF0000D98401C0D900E98006808900E98001DDF
:101B00000E900898002801DA002008900020C043B9
:101B100007900D980078682807D00D9800786C28F9
:101B200003D00D9800784C2805D10D9800780790C7
:101B30000D98401C0D900A200A900D9800786E2890
:101B40007ED00CDC632817D004DC412879D05828DB
:101B500073D17AE064287FD06928F9D17DE07328B9
:101B60002AD004DC6F286DD070287AD150E0752817
:101B700076D0782875D16BE010202040002808D15D
:101B800004E020200490012104A8A847701E061E2E
:101B9000F7DC0E980178001D0E90C8B20490012168
:101BA00004A8A84704E020200490012104A8A84725
:101BB000701E061EF7DCA7E00E98006809900E98CC
:101BC000001D0E900998002801D159A0099008998C
:101BD0000998FEF769FD074610202040002809D12A
:101BE00004E020200490012104A8A8473046761E76
:101BF000B842F6DCB9B20998A84704E02020049066
:101C0000012104A8A8473046761EB842F6DC7BE0E6
:101C1000701C002802D10826012004430898019472
:101C200000900E9802C83346102203910E90284669
:101C300000F082F868E003E003E012E00CE001E06D
:101C400062E061E008200A9023E04020044300BFE6
:101C500010200A901DE003E000BF0220044300BFF3
:101C600017E00D980078252804D025200490012144
:101C700004A8A8470D980078002806D00D98007891
:101C80000490012104A8A84702E00D98401E0D9081
:101C90003AE000BF07986C2806D10E9800680B90B8
:101CA0000E98001D0E9025E00798682811D102209B
:101CB0002040002806D00E9800680B900E98001D5A
:101CC0000E9017E00E9800680B900E98001D0E9075
:101CD00010E002202040002806D00E9800680B90EB
:101CE0000E98001D0E9005E00E9800680B900E985F
:101CF000001D0E90089833460194009028460A9AD9
:101D00000B9900F019F800BF0D98401C0D900D982C
:101D10000078002800D076E60598002806D00598BF
:101D200081B20698A8470020069005900FB0F0BD3C
:101D30003C4E554C4C3E0000FFB597B0054617464B
:101D40001E46219C684800680390402020400028DF
:101D500002D066480068039010202040002801D07F
:101D600064086400022F01DB242F01DD1BB0F0BDED
:101D7000E007C00F002801D0302100E0202116919B
:101D80000021159102202040002818D01898002822
:101D900006DA2D201590189840421890761E0EE015
:101DA00004202040002803D02B201590761E06E04A
:101DB00008202040002802D020201590761E2020E8
:101DC0002040002806D0102F01D1B61E02E0082FB7
:101DD00000D1761E002002901898002806D13022EB
:101DE0000298411C029104A90A5413E00FE03946FD
:101DF0001898FEF78FF90398425C0298411C0291F3
:101E000004A90A5439461898FEF784F918901898CE
:101E10000028ECD120990298884201DD0298209098
:101E20002098361A11202040002809D104E02020F3
:101E30000190012101A8A8473046761E0028F6DC53
:101E400010A8007D002802D0012115A8A847202055
:101E50002040002816D0082F05D130200190012104
:101E600001A8A8470EE0102F0CD1302101910121CB
:101E700001A8A8471C480068203041780191012141
:101E800001A8A84710202040002807D102E0012126
:101E900016A8A8473046761E0028F8DC04E030205B
:101EA0000190012101A8A8472098411E2091029984
:101EB0008842F4DC06E004A90298085C0190012144
:101EC00001A8A8470298411E02910028F3DC04E013
:101ED00020200190012101A8A8473046761E002845
:101EE000F6DC00BF42E700008070FF1F8470FF1F18
:101EF0000146002008E00B685A1C0A601B780A2281
:101F000042439A18104630380A681278302A03DBA8
:101F10000A681278392AEEDD7047000102030709CA
:101F20000A0B0E0F101112141718191A1B1F20215B
:101F300022000201000504000807000B0A00171622
:101F4000001D1C010201010504010E0D011110010B
:101F50001413011716011A19020201020B0A020ECC
:101F60000D021110021413021716030504030807CB
:101F7000030B0A030E0D000D000E001000110013DC
:101F8000001401070108010A010B011C011D0204D4
:101F90000205020702080219021A021C021D0301AF
:101FA0000302031730313233343536373839414282
:101FB000434445464748494A4B4C4D4E4F50515279
:101FC000535455565758595A000000003031323397
:101FD0003435363738396162636465666768696AC3
:101FE0006B6C6D6E6F707172737475767778797AC9
:041FF00000000000ED
:020000041FFFDC
:1000000000000000655FFF1F6C70FF1F7470FF1F12
:100010007C70FF1F000000000000000000000000D6
:1000200000000000000000000000000000000000D0
:1000300000000000000000000000000000000000C0
:1000400000000000000000000000000000000000B0
:1000500000000000000000000000000000000000A0
:100060000000000000000000000000000000000090
:100070000000000000000000000000000000000080
:100080000000000000000000000000000000000070
:100090000000000000000000000000000000000060
:1000A0000000000000000000000000000000000050
:1000B0000000000000000000000000000000000040
:1000C0000000000000000000000000000000000030
:1000D0000000000000000000000000000000000020
:1000E0000000000000000000000000000000000010
:1000F0000000000000000000000000000000000000
:1001000000000000000000000000000000000000EF
:1001100000000000000000000000000000000000DF
:1001200000000000000000000000000000000000CF
:1001300000000000000000000000000000000000BF
:1001400000000000000000000000000000000000AF
:10015000000000000000000000000000000000009F
:10016000000000000000000000000000000000008F
:10017000000000000000000000000000000000007F
:10018000000000000000000000000000000000006F
:10019000554FFF1FDD4FFF1FDD64FF1F00000000F4
:1001A000000000000000000000000000000000004F
:1001B000000000000000000000000000000000003F
:1001C000000000000000000000000000000000002F
:1001D000000000000000000000000000000000001F
:1001E000000000000000000000000000000000000F
:1001F00000000000000000000000000000000000FF
:1002000000000000000000000000000000000000EE
:1002100000000000000000000000000000000000DE
:1002200000000000000000000000000000000000CE
:1002300000000000000000000000000000000000BE
:1002400000000000000000000000000000000000AE
:10025000000000000000000000000000000000009E
:10026000000000000000000000000000000000008E
:10027000000000000000000000000000000000007E
:10028000000000000000000000000000000000006E
:10029000000000000000000000000000000000005E
:1002A000000000000000000000000000000000004E
:1002B000000000000000000000000000000000003E
:1002C000000000000000000000000000000000002E
:1002D000000000000000000000000000000000001E
:1002E000000000000000000000000000000000000E
:1002F00000000000000000000000000000000000FE
:1003000000000000000000000000000000000000ED
:1003100000000000000000000000000000000000DD
:1003200000000000000000000000000000000000CD
:1003300000000000000000000000000000000000BD
:1003400000000000000000000000000000000000AD
:10035000000000000000000000000000000000009D
:10036000000000000000000000000000000000008D
:100370000D19FF1F00000000000000000000000039
:10038000000000000000000000000000000000006D
:10039000000000000000000000000000000000005D
:1003A0000000000000000000000000006D47FF1F7B
:1003B000000000000000000000000000000000003D
:1003C000000000000000000000000000000000002D
:1003D000000000000000000000000000000000001D
:1003E000000000000000000000000000000000000D
:1003F00000000000000000000000000000000000FD
:0C04000001FF01FF01FF01FF41000000AF
:020000041FFFDC
:1018380038E0FF1F4519FF1F81840000F1280000D0
:101848000000000000000000000000000000000090
:101858000000000000000000000000005119FF1FF8
:101868000000000000000000CD8400005519FF1F93
:101878005719FF1F5719FF1F5719FF1F5719FF1F28
:101888005719FF1F5719FF1F5719FF1F5719FF1F18
:101898005719FF1F5719FF1F5719FF1F5719FF1F08
:1018A8005719FF1F5719FF1F5719FF1F5719FF1FF8
:1018B8005719FF1F5719FF1F5719FF1F5719FF1FE8
:1018C8000000000000000000000000000000000010
:1018D8000000000000000000000000000000000000
:1018E8005719FF1F000000005719FF1F5719FF1F46
:1018F8000348854600F03AF800480047655EFF1F38
:1019080038E0FF1F0A484838694601600430F0C0D3
:1019180044464D4656465F46F0C030BCF0BCF0C069
:10192800F0BCF0C044380349034A95460847000014
:101938000008FF1F412DFF1F3018FF1F0448804774
:1019480004480047FEE7FEE7FEE7FEE7FEE7FEE79E
:10195800D12BFF1FF918FF1F03460A780270401C9D
:10196800491C002AF9D1184670470000064C012589
:10197800064E05E0E36807CC2B430C3C984710342F
:10198800B442F7D3FFF7B8FF1C70FF1F6C70FF1F3E
:1019980070B58C180578401C6B075B0F01D1037874
:1019A800401C2A1106D10278401C03E006780E700C
:1019B800401C491C5B1EF9D12B0705D40023521E7D
:1019C8000DD40B70491CFAE70378401CCB1A921C03
:1019D80003E01D780D70491C5B1C521EF9D5A1420D
:1019E800D8D3002070BD000003B40148019001BDA8
:1019F80075A9000003B40148019001BDF9A60000D3
:101A080003B40148019001BDA1AF000003B401482F
:101A1800019001BD9DA9000003B40148019001BDDA
:101A2800E94C010003B40148019001BD0D07021102
:101A380003B40148019001BD1D4D010003B40148E4
:101A4800019001BD594F010003B40148019001BD47
:101A5800D70E000003B40148019001BDC90E000073
:101A680003B40148019001BDDD3F000003B4014803
:101A7800019001BD8944000003B40148019001BDF3
:101A88002144000003B40148019001BD750F000016
:101A980003B40148019001BDC95C010003B40148C9
:101AA800019001BD1907010003B40148019001BD6F
:101AB800BD0B010003B40148019001BDDD0C01001C
:101AC80003B40148019001BDDD0A010003B40148D7
:101AD800019001BD0134010003B40148019001BD2A
:101AE8000934010003B40148019001BD0534010027
:101AF80003B40148019001BDF535010003B4014864
:101B0800019001BDF935010003B40148019001BD00
:101B1800E917010003B40148019001BD61370100D4
:101B280003B40148019001BD01D7000003B4014886
:101B3800019001BD6DF6000003B40148019001BD9C
:101B48007912010003B40148019001BD4DF900006C
:101B580003B40148019001BDC1F7000003B4014876
:101B6800019001BD413F000003B40148019001BD4F
:101B7800095A000003B40148019001BD096600003C
:101B880003B40148019001BD8D82000003B40148EF
:101B9800019001BDE1AC000003B40148019001BD12
:101BA80079B3000003B40148019001BDE53A010092
:101BB80003B40148019001BD156B010003B401484D
:101BC800019001BD496D010003B40148019001BDB8
:101BD8003D71010003B40148019001BD0189000075
:101BE80003B40148019001BDED4A010003B4014866
:101BF800019001BDA54F010003B40148019001BD4A
:101C08008552010003B40148019001BDB54C0100A3
:101C180003B40148019001BD3D01021103B401481C
:101C2800019001BD016C010003B40148019001BDA0
:101C3800BD5C010003B40148019001BD851201009B
:101C480003B40148019001BDD1AE000003B40148BE
:101C5800019001BDC53F000003B40148019001BDDA
:101C6800CD4C010003B40148019001BDF54E0100BF
:101C780003B40148019001BD434D010003B401487C
:101C8800019001BD210D021103B40148019001BD6D
:101C9800F30E000003B40148019001BD350E0000A9
:101CA80003B40148019001BD7508021103B401484D
:101CB800019001BD350D021103B40148019001BD29
:101CC800690D021103B40148019001BDB10D021163
:101CD80003B40148019001BD410F021103B401484A
:101CE800019001BDD90F021103B40148019001BD53
:101CF8001510021103B40148019001BDD910021159
:101D080003B40148019001BD7111021103B40148E7
:101D1800019001BDB913021103B40148019001BD3E
:101D28007D10021103B40148019001BDFD1002119C
:101D380003B40148019001BD4D11021103B40148DB
:101D4800019001BDC706021103B40148019001BD0D
:101D58006510021103B40148019001BD2951010029
:101D680003B40148019001BDA96F010003B4014803
:101D7800019001BD4D74010003B40148019001BDFB
:101D88000972010003B40148019001BDAD160211AA
:101D980003B40148019001BD810E000003B401485D
:101DA800019001BD6518021103B40148019001BDFD
:101DB800B30E000003B40148019001BD21A9000041
:101DC80003B40148019001BDADAE000003B4014861
:101DD800019001BDC56D010003B40148019001BD2A
:101DE800E9D4000003B40148019001BD79D5000091
:101DF80003B40148019001BDADFF000003B40148E0
:101E0800019001BD5DB0000003B40148019001BD1F
:101E1800E1B0000003B40148019001BD6142000037
:101E280003B40148019001BD810E000003B40148CC
:101E3800019001BD8576010003B40148019001BD00
:101E4800C115010003B40148019001BDCD0C01008A
:101E580003B40148019001BD71B0000003B401480A
:101E6800019001BDD9B0000003B40148019001BD43
:101E78005976010003B40148019001BD53B900002F
:101E880003B40148019001BD8D11010003B401485C
:101E9800019001BDB9B0000003B40148019001BD33
:101EA8001DB0000003B40148019001BDED6B0100B5
:101EB80003B40148019001BDAD0F010003B401480E
:101EC800019001BD3D4B010003B40148019001BDE3
:101ED800CD36010003B40148019001BDC9A9000035
:101EE80003B40148019001BD5703021103B401482E
:101EF800019001BD154D010003B40148019001BDD9
:101F0800B14E000003B40148019001BDD94F010052
:101F180003B40148019001BD2D11010003B401482B
:101F2800019001BD8914010003B40148019001BD6D
:101F38006189000003B40148019001BD2516021112
:101F480003B40148019001BDD1A5000003B40148C4
:101F5800019001BD5516021103B40148019001BD5D
:101F6800090E000003B40148019001BDD5440100E9
:101F780003B40148019001BD2D6C010003B4014870
:101F8800019001BD7997000003B40148019001BD9B
:101F98006911010003B40148019001BDE512010077
:101FA80003B40148019001BDF90D0100F3B587B0F4
:101FB8000446484F012C00D1474F6001474940185B
:101FC800007E00280BD08420C059C6B2002503E04B
:101FD800387803A948556D1CB542F9DB04E00126A1
:101FE800387D38786946087360013C494018C069F3
:101FF80000280CD069460898087003A801900E7252
:102008006001364A8018C1696846884700BF09B030
:10201800F0BDF0B585B00546680130494018041D8B
:102028002C4803906801085C002801D105B0F0BD78
:1020380068012A494018007E002800D1F6E76801A7
:1020480026494018807E002800D1EFE72078022832
:1020580000D0EBE7A768A0886188401A86B2102EE6
:1020680001DD102000E030460646002E1FD1012079
:10207800207000206080A080680118494018C0695D
:1020880000280AD0164A07CA6B4607C36801134AD4
:102098008018C1696846884700BF002D03D1082011
:1020A80002F056FF02E0192002F052FFBEE7012DB0
:1020B80001D10948039005E06188481C6080795C7B
:1020C800039801703046711E8EB20028F4D100BF0B
:1020D800ACE7000000400040009000409895FF1FCA
:1020E800606EFF1F0446FFF77FFC0C48C069402163
:1020F80088430A49C8612046FFF77CFC02F07CFE51
:1021080000210648C030416004200449C0310860FD
:102118000120FFF775FC00BFFEE7000000F000405B
:1021280010B5FFF761FC0E48046840170C49803170
:1021380008600C480A490860002003F0CFFDFFF74B
:1021480065FC204610BD10B50446FFF74DFC044859
:102158000460012003F0C2FDFFF758FC10BD000029
:1021680000E100E01000100070B50446064D002C98
:1021780006D004222146252000012818FFF74CFC30
:1021880025200001281870BD7C71FF1FF8B5044692
:102198000D461646064F31462846A0473946FF31B8
:1021A8000D3104A0FFF73EFC03A0FFF73BFCF8BD90
:1021B8007C71FF1F0A2573000D0A000070B50446E4
:1021C8002546281D07C8FFF7E1FF70BDF8B505468D
:1021D8000E4617461020FFF72BFC0446002C00D1B2
:1021E800F8BD6560A660E760F3202070002060708D
:1021F800204600F045F800BFF2E7000070B505463C
:102208000E4600240EE00C206043401942680C2062
:102218006043295805A0FFF705FC07A0FFF702FC5B
:10222800601C84B2B442EEDB002070BD636D643A7A
:1022380020257309092573000D0A000070B50546AD
:102248000E460A4C2560A6800948056009490E70AB
:102258000020A0602146FF310D3107A0FFF7E2FB07
:1022680006A0FFF7DFFB002070BD00007C71FF1F98
:102278007471FF1F7871FF1F0A2573000D0A000093
:1022880010B50446214602480078FFF7D7FB10BD79
:102298007A70FF1FFEB5324D2E460C36A8680190A5
:1022A80003E0761C0198401E01903078202802D067
:1022B8003078092802D101980028F2D10198002825
:1022C80001D10820FEBD00200090741C1CE020787D
:1022D800202808D02078092805D020780D2802D099
:1022E80020780A2802D1002020700CE020462038EF
:1022F800C07F002807D10098411C00918100284622
:10230800FF3051304450641C01983018A042DED888
:10231800002001E0411CC8B200998842FAD3344633
:10232800002716E00C2078432A6811583046FFF73A
:102338008BFB00280BD10C2179432A6851182A46B7
:10234800FF32513288680099FFF740FF04E0781C9B
:1023580087B2A888B842E5DC00BF0020B2E70000D9
:102368007C71FF1FF0B505460E4614460021002378
:1023780008E0E95C202901D0092900D100E003E048
:10238800581C83B2B342F4DB00BF002201272D2979
:1023980002D1571E581C83B224E0E95C302908DBBF
:1023A800392906DC10466043024608463038821850
:1023B80016E0612908DB662906DC10466043024600
:1023C8000846573882180BE0412908DB462906DC05
:1023D80010466043024608463738821800E003E09A
:1023E800581C83B2B342D8DB00BF38465043F0BD17
:1023F800F0B587B004460D4616460C9F1048069067
:10240800104801460EC9C0680493039202910590D2
:102418006846057246723846FFF71CFB402802D30F
:10242800062007B0F0BD39460698FF300D30FFF79B
:1024380093FA009402A80FC802F098FEF1E7000092
:102448007C71FF1F8C6EFF1F70B505461A4C002665
:102458002CE0A068FF2802D90020A06070BD686841
:10246800805D0D2803D06868805D0A2809D10021A5
:1024780020460C30A2688154FFF70CFF0020A060B2
:10248800ECE76868805D202803DB6868805D7D284C
:1024980003DD0AA0FFF7C6FAE0E76868815DA26875
:1024A800501CA06020460C308154761C287AB0421B
:1024B800CFD800BFD2E700007C71FF1F5061727354
:1024C80065206661696C65642C20636D64206861B1
:1024D8007320696C6C6567616C2063686172616305
:1024E8007465720A0000000070B50124A407A3688F
:1024F80010252B43A360FFF7B3FAA068A843A06098
:1025080070BD0000FFB5064601208007816881B0D4
:102518001D46102211438160554F00203860304617
:10252800D730FFF7A3FA9D20800034468059FF3644
:10253800CA3401360028306822462CD00121FFF722
:102548009BFA4B4F2078F863641C2046FFF79AFAF1
:1025580000BA000AE17800020843B863241D204647
:10256800FFF790FA00BA000AE1780002084378639E
:10257800241D2046FFF786FA00BA000AE178000217
:10258800084338630398029900020843F860039FE0
:1025980000243F1D0EE00021D1E72819401CFFF759
:1025A80071FA0102285D0143324820180160241D98
:1025B800A4B23F1F042FF0DA032F04D0022F08D053
:1025C800012F0CD011E02819FFF75CFA0102090A63
:1025D80006E0291948780A780102114300E0295DCC
:1025E800244820180160241DA4B20021214F02E0D4
:1025F800E0190160241DFF2CFADD1D481E4A4260C7
:102608000F220261012202604269002AFCD042695D
:10261800930701D4520708D401208007826810214B
:102628008A438260002005B0F0BD01600020039A53
:1026380011E0C11909682954401C80B20B0A2B54B7
:10264800401C0B0C80B22B54401C80B2090E29543C
:10265800401C80B2121F002AEBDC3068401C30603E
:1026680001208007826810218A4382600120DAE70E
:102678000000044000010440080F0000FFB50546B3
:1026880001208007816881B01E46102211438160B5
:10269800504F002038602846D730FFF7E7F99D20D3
:1026A80080002C464059CA3480350028E86F2246FD
:1026B8002BD00021FFF7E0F9464F2078F863641C1F
:1026C8002046FFF7DFF900BA000AE1780002084364
:1026D800B863241D2046FFF7D5F900BA000AE1784F
:1026E800000208437863241D2046FFF7CBF900BA9F
:1026F800000AE1780002084338630398029900024F
:102708000843F8600024039F0EE00121D2E7301946
:10271800401CFFF7B7F90102305D01432E4820182D
:102728000160241DA4B23F1F042FF0DA032F04D048
:10273800022F08D0012F0FD014E03019FFF7A2F9AB
:102748000102090A09E031194878097800020843AA
:1027580021496118086003E0315D1F4820180160B5
:10276800241DA4B200211C4B02E0E0180160241DC6
:10277800FF2CFADD0F221748120242600F22026175
:10278800012202604269002AFCD00160039A0020FD
:10279800121D11E0C11809683154401C80B20C0A9E
:1027A8003454401C0C0C80B23454401C80B2090EC6
:1027B8003154401C80B2121F002AEBDCE86F401C29
:1027C800E86701208007826810218A43826005B08B
:1027D800F0BD00000000044000010440F8B5FFF718
:1027E80057F9644908600420FFF758F9FFF75CF9C6
:1027F8000546C00715D06049002008605F4800788A
:10280800012811D0032813D0042815D0022817D086
:10281800052819D0FFF74EF9594F044601281AD058
:102828001EE0FFF74DF9F8BD2846FFF74FF90EE017
:102838002846FFF751F90AE02846FFF753F906E062
:102848002846FFF755F902E02846FFF757F940B246
:102858000128E8D05FE03878052809D0062807D095
:102868004848494E0078022806D0052804D009E0D7
:10287800284603F05DFA4EE0002C06D0022808D066
:10288800052806D0022C0ED005E0284603F074FA7D
:1028980041E0022C02D0012C13D016E0B17B0029B4
:1028A80007D0022905D03978052906D001281AD081
:1028B8000BE0284603F06CFA18E0284603F044FAC7
:1028C80014E0012807D0062809D02846FFF71CF98C
:1028D800022C0BD01FE0284603F072FA1BE02846B2
:1028E80003F062FA17E0284603F03AFA387801282C
:1028F80011D168050FD4707BC10701D0252004E0F1
:10290800800701D5262000E02720317D814202D9A9
:102918003220FFF7FFF81B4C2078042804D0032846
:102928001AD007281DD020E0FFF7FAF800281CD09D
:10293800FFF7FCF85820FFF7FFF82078002801D0AF
:10294800022020701148407800280ED020780028F6
:102958000BD10320207008E00D48807CFFF7F2F8C7
:1029680003E00C48807BFFF7F3F80320FFF796F8A5
:10297800F8BD00009C09FF1F9809FF1F9009FF1F61
:102988001C09FF1F2309FF1FA60BFF1FD473FF1F7E
:10299800BC0BFF1FD40BFF1FF8B50C4610490C42A7
:1029A8001AD1610518D500250E48AF003E18717878
:1029B800012909D1C15D7088FFF7D0F80A487080F5
:1029C80008490020C85570706D1CEDB2102DEBD36E
:1029D800012080026040F8BD2146FFF7C5F8F8BD28
:1029E800DE090000C8DBFF1FFFFF000010B5012053
:1029F80003F0F4FAFFF7BEF80446002003F0EEFAFD
:102A0800204610BD70B50446FFF7BAF8E21DFF3244
:102A1800FA32D06F0021000C0004D06710468038CD
:102A28008B001B19FF330133C56A491CDD66082971
:102A3800F6DB00218B001B19FF338133C56A491C63
:102A4800DD600829F6DB0120D06470BDC106C90E1F
:102A580001208840014908607047000000E100E05B
:102A680010B5002819DB1A4A03231B02D218830861
:102A78009B00D2588307DC0EFF23A3409A438B07A1
:102A88001B0E8407E40EA3401A43114B03242402AF
:102A98001B198408A4001A5118E00E4A03071B0FDB
:102AA800083B9B089B00D2588307DC0EFF23A340FA
:102AB8009A438B071B0E8407E40EA3401A43054B69
:102AC8000407240F083CA408A4001A5110BD0000F4
:102AD80000E100E01CED00E010B5002819DB1A4AFF
:102AE80003231B02D21883089B00D2588307DC0EED
:102AF800FF23A3409A438B071B0E8407E40EA340D1
:102B08001A43114B032424021B198408A4001A51E8
:102B180018E00E4A03071B0F083B9B089B00D2587E
:102B28008307DC0EFF23A3409A438B071B0E840701
:102B3800E40EA3401A43054B0407240F083CA408DD
:102B4800A4001A5110BD000000E100E01CED00E0F7
:102B580010B5002819DB1A4A03231B02D218830870
:102B68009B00D2588307DC0EFF23A3409A438B07B0
:102B78001B0E8407E40EA3401A43114B03242402BE
:102B88001B198408A4001A5118E00E4A03071B0FEA
:102B9800083B9B089B00D2588307DC0EFF23A34009
:102BA8009A438B071B0E8407E40EA3401A43054B78
:102BB8000407240F083CA408A4001A5110BD000003
:102BC80000E100E01CED00E00148024908607047A0
:102BD80040787D01D073FF1FEFF30380704702E058
:102BE80008C8121F08C1002AFAD170477047002090
:102BF80001E001C1121F002AFBD170470248C069D9
:102C0800002800D0004770474003FF1FFFB5074664
:102C180001208007816883B01C46154602914669E9
:102C280039490968384A4900490801910021C943CE
:102C380080321160354A1268520052080092334AB5
:102C48008032116032498160212141611F20FFF7E4
:102C5800FDFEE20780212F48002A02D042680A437D
:102C68004260A20704D54268FF2301331A43426039
:102C7800002D0CD02A07520F04D0012214434268B9
:102C88000A43426041682A07D20B11434160214937
:102C98004039CA6B5201520FBA4206D0CA6B072399
:102CA8001B069A433B061A43CA63CA6B5307049A26
:102CB8005B0F934205D0CA6B049BD208D2001A431B
:102CC800CA634168FF2281329143E20111434160A6
:102CD80041680F22520391436A03114341600C4833
:102CE800029901438007816001210E43466141003A
:102CF800054880300160054900980860024901983C
:102D0800086007B0F0BD000000E100E000E200E06C
:102D18000100080040F000401CB569460120FEF79C
:102D280035FF012000900348019000F0F5FC0120D8
:102D38001CBD0000BB0B000088B0044625463F4878
:102D4800C06800780790002006903D480590002351
:102D580012220521E1204002FEF71EFF39A0FEF7EE
:102D680021FF286B00903DA0EB6AAA6A696AFEF70A
:102D780019FF2869009044A0291D0EC9FEF712FF0B
:102D8800286A00904BA0EB69AA696969FEF70AFFF7
:102D9800E86B009052A0AB6B2A68696BFEF702FFE4
:102DA8005AA0296CFEF7FEFE5C4841685CA0FEF75D
:102DB800F9FE059801780798814206DA1F4881686C
:102DC80005980078800008580690059800780190CA
:102DD80006980290564800680390FEF7E9FE0490B2
:102DE8000498009053A001A90EC9FEF7DBFE5EA06F
:102DF800FEF7D8FE66492E680E40002711E0F0194C
:102E08006349884200D90EE03807000F002803D133
:102E1800F11960A0FEF7C6FEF15960A0FEF7C2FEE8
:102E28003F1DFF2FEBDD00BF5E480068002802D081
:102E38005C480068804700BFFEE700000000FF1FF5
:102E4800B408FF1F0A5B48617264206661756C7480
:102E58002068616E646C65725D0A000052302D5204
:102E68003320202020202020203D20307825303895
:102E78007820307825303878203078253038782018
:102E88003078253038780A0052342D5237202020E7
:102E980020202020203D20307825303878203078B8
:102EA800253038782030782530387820307825302B
:102EB80038780A0052382D52313120202020202025
:102EC800203D203078253038782030782530387803
:102ED80020307825303878203078253038780A0046
:102EE8005231322C53502C4C522C5043203D203020
:102EF8007825303878203078253038782030782593
:102F0800303878203078253038780A0050535220ED
:102F1800203D2030782530387820200000ED00E072
:102F280049435352203D203078253038780A000034
:102F38006008FF1F5B4F53414C5D6964782025642E
:102F48002046756E63203078253038782073797381
:102F58007469636B202530387820727463202530BB
:102F680038780A20000000002D2D2D2D2D2D2D2D17
:102F78002D2D2D64756D7020737461636B2D2D2D4F
:102F88002D2D2D2D2D2D2D2D2D2D2D0A0000000040
:102F9800FCFFFF1F0A5B253038585D002530387864
:102FA800200000007071FF1F1CB569460320FEF762
:102FB800EDFD684602F082F90098002802D10198D8
:102FC800002800D001201CBD10B500F01BFBFFF746
:102FD800A3FE002802D00248804710BDFEE700008B
:102FE800E1A200003EB50446002C26D00020009047
:102FF80003460222014601903520FEF7DFFD00BF9F
:1030080000BF22480069022108400228F9D0202088
:10301800019000BF0198411E01910028FAD100BF1C
:103028001A4880380068C00FC0070028F8D000BFD1
:10303800012102A8FEF7C8FD25E000200090034604
:103048000222014601900520FEF7B8FD00BF00BF2F
:103058000E480069022108400228F9D0202001907A
:1030680000BF0198411E01910028FAD100BF07480E
:1030780080380068C00FC0070028F8D000BF0121C1
:1030880002A8FEF7A1FD6846007A3EBD80C8004050
:10309800F8B505460E4600960EE00020FFF7A2FFA1
:1030A800044620462840002800D1F8BD0520FEF738
:1030B80091FD0098401E009000980028EDD1112045
:1030C800F3E700000E480F4988600020C8601B2005
:1030D800400308614D20C00348610B4888610B48D4
:1030E800C861002008624862C862086348630549ED
:1030F8008031086248628862012088637047000056
:10310800000C000600F0004040400601ABFF010043
:1031180010B5FEF765FD0120FEF768FDFEF76CFDB2
:10312800002010BD1CB5012109030748FEF76AFD00
:10313800012004210B4602460091019003490448EE
:10314800FEF766FD1CBD00006884FF1F4874FF1F62
:10315800E481FF1FF8B54E484068C043000603D518
:103168003C20FEF737FDF8BDFEF722FD484D0090E4
:10317800803D28680121890408432860E869454999
:1031880008402830E8610320FEF724FD686AC70379
:10319800FF0B0320FEF71EFD686AC403E40B03203F
:1031A800FEF718FD686AC603F60BA74201D320464E
:1031B80000E03846B04200D33046A74201D3394632
:1031C80000E02146B14200D23146334ABA18C32A38
:1031D80026D2314BDB439C4222D9304A94421FD23B
:1031E8009E421DD996421BD2081A132818D2284885
:1031F80042680C218A4342604168FF2212029143CF
:1032080041601420FEF7E6FC21488038416AC26913
:10321800C903C90B08239A43C26121488162F8BDDA
:10322800274634460320FEF7D5FC19488038406A03
:10323800C603F60BFEF7BCFC0099884201D3401A7E
:1032480001E0401A401E17498842AED31048416831
:1032580009040D0E4168FF22120291436A1C1206EE
:10326800120C1143416041680C229143091D4160D1
:103278000020FEF7D3FC642D02D3054800214160ED
:10328800062D00D306250748A840FEF72BFF8CE73C
:10329800C0F0004000FEFEFF91FCFFFF320400007A
:1032A800D473FF1FE40C0000F8B53D4840683C4C5F
:1032B8000006803C8021002806DB606808436060C7
:1032C8000320FEF787FCF8BD364D002028632068F0
:1032D8000122920410432060334F60688021084324
:1032E80060600320FEF776FC286B401C286360684A
:1032F80001210904084360600026E0692B49384031
:103308004018E0610320FEF765FC606AE169C003CC
:10331800C00B08229143E161A96A06225143814208
:1033280001D3091A00E0411A3C2909D2E2690121B6
:1033380009048A43E26162688A436260E862F8BD10
:10334800761CF6B2052ED8D3E1690120000481432A
:10335800E161616881436160286B2E46052807D3C7
:10336800BFF34F8F13491248C860BFF34F8FFEE772
:1033780060688021884360600320FEF72BFCE069C9
:1033880038402830E0610320FEF724FC606AC0035F
:10339800C00BB062E16908208143E1619DE700004C
:1033A800C0F00040D473FF1F00FEFEFF280001009C
:1033B8000400FA0500ED00E0FEB504461948C16BAB
:1033C800194D4907C90E6958164AC90B4032009170
:1033D8001168490304D4116801239B04194311603F
:1033E800C16B18221143C163C06B104F4001400FDD
:1033F8000190B84706462046B84706430C49F007EF
:10340800C00F88470346A0000A492858086000985A
:10341800411E0091FBD2324621460198FFF7F6FB88
:103428000020FEBD00F00040E07B0100018C0000A0
:10343800A98A00007408FF1FF8B506460120FEF7A8
:10344800C9FB214D214F2878214C002816D0FEF7C2
:10345800EBFB206001F028FF002802D002F076FE86
:1034680078611C498B6A1C4803601C48C76A1C4A5F
:103478001268974205D2C06A101A03E0F8684069DA
:10348800E7E70020174A10609819C862486A29229D
:10349800D203104348622878002812D012480178D5
:1034A800022908D00178012908D00078032820686B
:1034B80008D0C01E04E020680F3801E020680838F2
:1034C8002060F8BD401FFBE71C09FF1FD473FF1FD6
:1034D800E408FF1F00F00040340AFF1F00100040FE
:1034E800180AFF1F1C0AFF1F4A0AFF1F10B5034ACC
:1034F800D16B906B00F0E4F910BD00005CD8FF1FA1
:1035080010B5034A916BD06B00F0DAF910BD0000DA
:103518005CD8FF1FF8B507460D4614462E4606E050
:103528003178384600F008F80746761C641E002CEF
:10353800F6D13846F8BD000030B50307DB0E0D4C58
:10354800E25A0304180D034653400C07E40E094DD4
:103558002C5B634018460307DB0E2C46E25A001129
:10356800034653400C06240F64002C5B6340184646
:1035780030BD00006C6EFF1F10B51E48A121807879
:10358800890048431C49A12309689B0044189121DC
:1035980089000A591749002089785943164B1B6836
:1035A800C918C98E002A1ED01448C068FF300130DF
:1035B800012A0CD0114BDB68FF338133062A08D867
:1035C8006479012C05D00D4C5234125D04E0006B77
:1035D80009E00A4A543212791B6D006B5A430B0AF0
:1035E8005B1C5A431018064AC9085143814200D847
:1035F800084610BD300DFF1F3409FF1FD473FF1F8D
:1036080053070000034900204861034908604860E7
:103618007047000040F0004040F100401CB52748CA
:10362800A12180788900484325490968441825481C
:10363800406A80B2009091208000015900290FD083
:103648002148C068FF30013001290ED01E4AD268D7
:10365800FF32813206290AD81B4B5233C95C09E074
:10366800608CE18E484340100DE0006B0AE016497B
:1036780054310979126D006B5143E28E120A521CC3
:10368800514308184000009940180090FFF774FF54
:103698000190019900980D4B421AE069C1085943FD
:1036A8008A4201D8009805E0094940084843019931
:1036B80040180090FEF7BEFA1CBD0000300DFF1F39
:1036C8003409FF1F00100340D473FF1F5307000085
:1036D8007102000070B50D4C0546E068808D40050C
:1036E80005D50B48406AC003C00B02F003FD00205B
:1036F80002F058FC002808D006480168E068FF304E
:10370800813041652846FEF79BFA70BDD473FF1FD0
:1037180040F000400080FF1F70B58AB000241E4DA5
:10372800049405942878012806D004A90120FEF7FE
:103738002DFA002802D000200AB070BD049800902D
:1037480005980190154881680291C0681349039053
:1037580006AA10316846FEF779FA104E1022203674
:10376800314606A8FEF778FA002811D00120287003
:103778000B4A31466846FEF769FA04940020694608
:1037880005948200401C8C500428FADB0120D3E702
:10379800FF202870CFE700003D74FF1F00290011AB
:1037A80028DCFF1F10B504460248047000F080FBB7
:1037B80010BD00007A70FF1F70B506460C46012048
:1037C800C0032040002815D00B480078FEF74AFABD
:1037D8000546002D0DD02878F32802D12846FEF79B
:1037E800EDFC2846FEF744FA20460121C90348406B
:1037F80070BD00BF0020FBE77A70FF1FF7B58AB0E5
:1038080007460524002550E0002647E02B48408E57
:1038180068431030310140180190019A0B998818BB
:10382800102202A9FEF72AFA01997818102206A98F
:10383800FEF724FA102206A902A8FEF725FA00903E
:103848000098002829D002A8005D002811D002A8FD
:10385800005DFF280DD006A8005D002809D1174893
:103868002030007C0C218843001D14492031087445
:1038780010E002A8005D02280CD006A8005D02280E
:1038880008D10E482030007C80088000401C0B497D
:103898002031087400980DB0F0BD761C0748408EA2
:1038A80010380009B042B1D86D1C0448418E0C98FC
:1038B800FEF7F0F9A842A7DC0020ECE75CD8FF1F70
:1038C800F0B585B005460E46002700244BE029498F
:1038D800498E6143881910226946FEF7CFF900988E
:1038E800401C002801D0009506E02249498E61431A
:1038F8004819FEF7D5F935E00120694648721D4997
:10390800498E61434819FEF7CBF91A49498E61433C
:10391800481910226946FEF7C9F91648408E6043D7
:1039280007461037134B5B8E103B9AB2F119E81912
:10393800FEF7BCF9002804D000F070F91F2005B08C
:10394800F0BD0020694648720A49498E614348190A
:1039580010226946FEF7AAF9002000900190029013
:10396800039000BF641C03482030007DA042AEDCF9
:103978000020E4E75CD8FF1F01480249086070474F
:1039880074D7FF1FA070FF1F0148024908607047E5
:103998005CD6FF1FA070FF1F70B506460C46154683
:1039A800FFF7F2FF29463046FEF786F9FFF7E4FFF6
:1039B80029462046FEF780F9002070BD10B5FFF7B4
:1039C800E3FFFEF77FF9002806D01248007C800844
:1039D8008000401C0F490874FFF7CEFFFEF772F90C
:1039E800002806D00B48007C0C218843001D09499B
:1039F80008740848007C8007800F002805D1054816
:103A0800007C0007800F002802D000F007F910BDE5
:103A18000020FCE77CD8FF1F10B50446FFF7B4FF71
:103A28002046FEF755F9002805D1FFF7A5FF2046E7
:103A3800FEF74EF910BD0120FCE770B50546FFF70B
:103A4800A3FF2846FEF74AF90446FFF795FF2846E4
:103A5800FEF744F90646B44201D1204670BD012064
:103A6800FCE70000F8B506460D4614462048866374
:103A7800C563012109034186203004752038408E32
:103A8800604382B229463046FFF7B8FE0746002F4A
:103A98001DD017482030007CF0218843144920317C
:103AA800097C0909491C0901F02211400843104901
:103AB800203108740846007C0009022804DD0DA0A6
:103AC800FDF7B0FF0120F8BD00F0A8F8FBE7FFF70D
:103AD8005BFF21463046FEF707F9002806D1FFF7BD
:103AE8004BFF21462846FEF7FFF8ECE70120EAE7FE
:103AF8005CD8FF1F726570616972206661696C210C
:103B080021200A0070B50546FFF73EFF2846FEF75C
:103B1800F1F80446002C08D0252C06D01448007C67
:103B280080088000401C12490874FFF725FF2846CA
:103B3800FEF7E0F80446002C08D0252C06D00C48E7
:103B4800007C0C218843001D094908740848007C42
:103B58008007800F002805D10548007C0007800FEA
:103B6800002802D000F05AF870BD2046FCE700009B
:103B78007CD8FF1FFFB581B005460E461746FFF7F4
:103B880003FF3A4631462846049BFEF7B9F8044637
:103B9800002C09D1FFF7F0FE3A4631462846049B2F
:103BA800FEF7AEF805B0F0BD2046FBE770B5044659
:103BB8000D461646FFF7E8FE324629462046FEF730
:103BC800A5F8002806D01448007C80088000401C16
:103BD80011490874FFF7D0FE324629462046FEF701
:103BE80095F8002806D00C48007C0C218843001D5D
:103BF800094908740848007C8007800F002805D10F
:103C08000548007C0007800F002802D000F006F865
:103C180070BD0020FCE700007CD8FF1F10B588B0FD
:103C28003C48007C8007800F00281BD03948007C66
:103C38000007800F002815D0364B1A7D203BD96B22
:103C4800986BFFF7A9FE3348007C80088000314953
:103C580008740846007C0C2188432E49087400200B
:103C680008B010BD00243BE02A4920398A6B498EF0
:103C780061435018102204A9FEF700F8254920399D
:103C8800CA6B498E6143501810226946FDF7F6FF4A
:103C98006846007A012809D06846407A012805D08C
:103CA8001C48007C0007800F002802D0FFF728FC82
:103CB8001AE06846007E01280ED06846407E01283A
:103CC8000AD01448007C8007800F002804D11148CE
:103CD800007D401EA04202D1FFF708FC04E0641CEE
:103CE8000C48007DA042BFDC00BF0A48007C800869
:103CF8008000084908740846007C0C21884305495F
:103D080008740B461A7D203BD96B986BFFF7AAFE07
:103D18000020A5E77CD8FF1F70B50446012080036A
:103D2800204305462846FDF7F7FF70BD70B50446E9
:103D380001208003204305462046FDF7DBFF284687
:103D4800FDF7D8FF002070BDF8B504460E461746AB
:103D5800012080032040002801D02220F8BD012145
:103D6800890321430846002332463946FDF7C8FF38
:103D780005461E2D01D0252D0CD101218903214393
:103D88000846FDF7B7FF0023324639462046FDF7BF
:103D9800B7FFE3E72846E1E7FEB504460D461646B9
:103DA8000027012080032043009001208003204049
:103DB800002801D02220FEBD01A92046FDF7B2FF50
:103DC800002806D12046FDF795FF002801D00120E4
:103DD800F1E701A90098FDF7A5FF002807D12146C2
:103DE8000098FDF7A5FF002801D00120E3E72A4647
:103DF80031460098FDF78AFF0746002F05D039465F
:103E080003A0FDF70FFE0A20D5E70020D3E7000046
:103E180077725F7265743A25640A0000F8B50C463B
:103E28002068FDF717FE87B20A2239462068FEF798
:103E380099FA85B22846FFF76FFF86B20020FEF791
:103E480093F907460421FDF779FF314603A0FDF7F2
:103E5800E9FD04A0FDF7E6FD0020F8BD5B25642C14
:103E680020305D000D0A0000F8B506460F46FFF742
:103E7800A5FD0446002000906846FDF729FF0020B4
:103E8800FEF772F905460421FDF758FF214604A004
:103E9800009AFDF7C7FD05A0FDF7C4FD0020F8BD99
:103EA8005B25642C2025645D000000000D0A0000DD
:103EB80010B510210348FEF7C1F90021084600F0AB
:103EC800BDF810BDB070FF1FF8B50C462068FDF7AF
:103ED800C1FD87B20A2239462068FEF743FA85B247
:103EE8002846FFF70FFE86B20020FEF73DF9074689
:103EF8000421FDF723FF314603A0FDF793FD04A03D
:103F0800FDF790FD0020F8BD5B25642C20305D0096
:103F18000D0A0000F8B50C462068FDF79BFD87B236
:103F28000A2239462068FEF71DFA85B22846FFF7AF
:103F3800FDFE86B20020FEF717F907460421FDF7BB
:103F4800FDFE314603A0FDF76DFD04A0FDF76AFDF7
:103F58000020F8BD5B25642C20305D000D0A0000B0
:103F6800F8B506460F4604220A490B48FFF714FD28
:103F780004460020FEF7F8F805460421FDF7DEFEAA
:103F8800214606A0FDF74EFD06A0FDF74BFD0020DB
:103F9800F8BD000000100311008003115B25642C9C
:103FA80020305D000D0A0000F8B505460E4668464B
:103FB800FFF732FD00280CD1FEF7D6F8044604219D
:103FC800FDF7BCFE04A00099FDF72CFD04A0FDF749
:103FD80029FD0020F8BD00005B25642C20305D0021
:103FE8000D0A0000F8B506460F466846FFF725FD9E
:103FF80004460020FEF7B8F805460421FDF79EFEAA
:10400800214604A0009AFDF70DFD05A0FDF70AFD65
:104018000020F8BD5B25642C2025645D00000000AD
:104028000D0A000070B504460D4610210248FEF73F
:10403800E5F8002070BD0000B070FF1FF8B5064617
:104048000F46FDF781FE002805D104220A490B48D6
:10405800FFF708FD04460020FEF786F80546042110
:10406800FDF76CFE214606A0FDF7DCFC06A0FDF777
:10407800D9FC0020F8BD00000010031100800311D6
:104088005B25642C20305D000D0A0000F0B585B07A
:104098000C462068FDF7DEFC80B201900A222068F9
:1040A8000199FEF75FF980B203906068FDF7D2FCD2
:1040B80080B201900A2260680199FEF753F985B22F
:1040C80000200290FDF746FEC6B22D48465502ABC9
:1040D8002A4601460398FFF74DFD0746002F0ED0EC
:1040E8000020FEF741F804210190FDF727FE39462C
:1040F80024A0FDF797FC25A0FDF794FC3DE0684659
:104108000089A8420ED00020FEF72EF80421019065
:10411800FDF714FE0B211BA0FDF784FC1BA0FDF787
:1041280081FC2AE01648405DB0420FD00020FEF71F
:104138001BF804210190FDF701FE2D22022114A095
:10414800FDF770FC11A0FDF76DFC16E00020019052
:104158002A460B49FFF7DEF901900020FEF704F824
:1041680004210090FDF7EAFD00210CA0019AFDF75B
:1041780059FC06A0FDF756FC00BF002005B0F0BDB5
:104188005C96FF1F5B25642C20305D000D0A000043
:104198005B25642C2025645D000000005B25642CF1
:1041A80025645D00FEB50C462068FDF753FC80B21F
:1041B80001900A2220680199FEF7D4F880B2029093
:1041C8006068FDF747FC80B201900A226068019997
:1041D800FEF7C8F885B2FDF7BDFDC6B222484655C0
:1041E800024629460298FFF7AFFD0746002F0ED07A
:1041F8000020FDF7B9FF04210190FDF79FFD394626
:104208001AA0FDF70FFC1BA0FDF70CFC2AE01648CE
:10421800405DB0420FD00020FDF7A6FF04210190B9
:10422800FDF78CFD2D22022113A0FDF7FBFB11A049
:10423800FDF7F8FB16E0002001902A460A49FFF72F
:1042480069F901900020FDF78FFF04210090FDF728
:1042580075FD00210BA0019AFDF7E4FB05A0FDF711
:10426800E1FB00BF0020FEBD5C96FF1F5B25642CB0
:1042780020305D000D0A00005B25642C2025645D5C
:10428800000000005B25642C25645D00F0B585B056
:104298000C462068FDF7DEFB87B20A223946206803
:1042A800FEF760F885B26068FDF7D4FB87B20A2292
:1042B80039466068FEF756F886B2039600F04CFF60
:1042C800019003AB012292030D492846FDF718FD22
:1042D800029000F041FF0199401A00900020FDF77C
:1042E80043FF07460421FDF729FD06A0029A00991D
:1042F800FDF798FB06A0FDF795FB002005B0F0BD83
:104308005C96FF1F5B25642C2025645D000000007F
:104318000D0A00000020FDF727FF04460421FDF7E1
:104328000DFD00210EA0FDF77DFB0FA0FDF77AFB28
:1043380000BF00BF00BF00BF00BFBFF34F8F00BF6B
:1043480000BF00BF09480A49C86000BF00BF00BFDE
:10435800BFF34F8F00BF00BF00BF00BF00BFFDE726
:104368005B25642C20305D000D0A00000400FA056E
:1043780000ED00E0F0B585B00C4603A8FDF7A8FCF9
:104388002068FDF767FB87B20A2239462068FDF7E7
:10439800E9FF80B202906068FDF75CFB87B20A22F1
:1043A80039466068FDF7DEFF85B2FDF7D3FCC0B281
:1043B800019000200090039885424CD8002704E023
:1043C800FDF7C8FC2C49C8557F1CAF42F8DB2A46CC
:1043D80029490020FFF79EF8009027490198485581
:1043E8002A460298FFF7E2FB0646002E0ED0002070
:1043F800FDF7BAFE07460421FDF7A0FC31461FA0D1
:10440800FDF710FB1FA0FDF70DFB32E01A48415DD8
:10441800019881420FD00020FDF7A6FE074604212F
:10442800FDF78CFC2D22022117A0FDF7FBFA15A041
:10443800FDF7F8FA1DE00020FDF796FE0746042177
:10444800FDF77CFC002110A0009AFDF7EBFA0DA007
:10445800FDF7E8FA0DE00020FDF786FE0746042187
:10446800FDF76CFC23210BA0FDF7DCFA05A0FDF796
:10447800D9FA002005B0F0BD5C96FF1F5B25642CBF
:10448800305D00000D0A00005B25642C2025645D6A
:10449800000000005B25642C20305D00F0B585B07D
:1044A8000D4603A8FDF714FC2868FDF7D3FA87B278
:1044B8000A2239462868FDF755FF80B202906868DD
:1044C800FDF7C8FA87B20A2239466868FDF74AFF3D
:1044D80084B2FDF73FFCC0B2019000200090039821
:1044E80084424DD8002704E0FDF734FC2D49C85517
:1044F8007F1CA742F8DB22462A490020FFF70AF86A
:1045080000902849019808550A4621460298FFF765
:1045180043FC0646002E0ED00020FDF725FE074678
:104528000421FDF70BFC31461FA0FDF77BFA20A004
:10453800FDF778FA32E01B48015D019881420FD0FF
:104548000020FDF711FE07460421FDF7F7FB2D2299
:10455800022118A0FDF766FA15A0FDF763FA1DE021
:104568000020FDF701FE07460421FDF7E7FB0021C7
:1045780010A0009AFDF756FA0DA0FDF753FA0DE0CA
:104588000020FDF7F1FD07460421FDF7D7FB2321A5
:104598000BA0FDF747FA06A0FDF744FA002005B086
:1045A800F0BD00005C96FF1F5B25642C305D0000A9
:1045B8000D0A00005B25642C2025645D00000000C6
:1045C8005B25642C20305D00F0B585B00C4603A84F
:1045D800FDF77EFB2068FDF73DFA85B20A222946E1
:1045E8002068FDF7BFFE80B201906068FDF732FADF
:1045F80085B20A2229466068FDF7B4FE86B20398A0
:10460800864227D8002504E0FDF7A4FB1349485546
:104618006D1C012080038542F6DB00F09DFD0746F6
:1046280032460E490198FFF7C1FA029000F094FD56
:10463800C01B00900020FDF797FD05460421FDF7FB
:104648007DFB07A0029A0099FDF7ECF907A0FDF79A
:10465800E9F900BF002005B0F0BD00005C96FF1F1F
:104668005B25642C2025645D000000000D0A000015
:1046780010B52248037822491022C968022B08D0B5
:104688000378012B05D00378032B02D00378042B81
:1046980000D10A6204780E23022C09D00478012C78
:1046A80008D00478032C07D00478042C06D007E03F
:1046B8001B2404E0122402E04B6001E00C244C604F
:1046C80004780F49C9688031022C0BD00478012C7A
:1046D8000CD00478032C0ED00078042801D1CB61CB
:1046E8000A6210BD1F20C861212002E01420C861A1
:1046F8001820086210BD1320CA61FAE74A0AFF1F92
:10470800D473FF1F10B50948006AC007C00F0028FE
:104718000BD00648103000F025FD05480068002839
:1047280003D0052002490968884710BD40100040A1
:104738009C70FF1F10B50948406BC007C00F0028C8
:104748000BD00648243000F00DFD0548006800280D
:1047580003D0062002490968884710BD4010004070
:104768009C70FF1F10B5134880680407240F062C9F
:1047780017D004DC022C10D0042C17D108E0072C29
:1047880010D00C2C12D102210020FDF70FFC0EE0F6
:1047980001210020FDF70AFC09E00020FDF739FCA3
:1047A80005E004E003484030C06B00E000BF00BFF4
:1047B80010BD00000040004010B513488068040791
:1047C800240F062C17D004DC022C10D0042C17D18F
:1047D80008E0072C10D00C2C12D102210120FDF783
:1047E800E5FB0EE001210846FDF7E0FB09E00120AA
:1047F800FDF70FFC05E004E003484030C06B00E023
:1048080000BF00BF10BD00000090004008B5642044
:104818000090412000F06EF8402000F06BF8022074
:104828004107486200BF0098411E00910028FAD154
:10483800032001218907486200F006F800200121C1
:104848008907886208BD000038B5FDF7CDF801205A
:104858008007846A08200090002C02D1012081077B
:10486800886202200E49086000BF0098411E00912E
:104878000028FAD103200A4908600820009000BFE8
:104888000098411E00910028FAD105490860002CC3
:1048980002D1012189078862FDF7B8F838BD000008
:1048A80000C00040202809DA01218907896801220F
:1048B800824091430122920791601AE040280BDA66
:1048C800012189074A690146203901238B409A430F
:1048D800012189074A610CE060280ADA0121890769
:1048E8000A6A0146403901238B409A43012189070E
:1048F8000A627047202809DA01218907896801229C
:10490800824011430122920791601AE040280BDA95
:10491800012189074A690146203901238B401A433E
:10492800012189074A610CE060280ADA0121890718
:10493800096A0246403A012393401943012292072B
:1049480011627047202823DA15280FDB16280DDCA2
:1049580001218907096820229143520611601146F6
:104968000968202211435206116056E00121890787
:104978000968012282409143012292071160114681
:10498800096801228240114301229207116044E024
:10499800402827DA35280FDB38280DDC0121890764
:1049A800C968102291439206D1601146C968102245
:1049B80011439206D16030E001218907C968024697
:1049C800203A01239340994301229207D16011466E
:1049D800C9680246203A01239340194301229207ED
:1049E800D1601AE0602818DA01218907496A02466D
:1049F800413A01239B1A01229A40914301229207CE
:104A080051621146496A0246413A01239B1A012222
:104A18009A4011430122920751627047F8B5054642
:104A2800FDF77EFB064601208007876A00BFFCF77A
:104A3800DBFF02202F490860410748620120886295
:104A4800FCF7E4FF00BF00BF00BF2B48006902214C
:104A580008400228F9D02020009000BF0098411E8D
:104A680000910028FAD100BF234880380068C00FA1
:104A7800C0070028F8D000BF2049012001F036FE09
:104A88002846FDF76DF9C4B200BF00BF1A48006997
:104A9800022108400228F9D02020009000BF009889
:104AA800411E00910028FAD100BF134880380068E1
:104AB800C00FC0070028F8D000BF1049032001F03C
:104AC80015FE00BFFCF790FF00200A49086003208C
:104AD80001218907486200208862FCF797FF00BF20
:104AE800002F01D1FFF7B0FE3046FDF72CFB204622
:104AF800F8BD000000C0004080C80040FFFFFF076D
:104B0800FEB504460E461746FDF70AFB0290600301
:104B1800400B11210906401801908801806A009015
:104B28002002000A284988420DD91F20C0042546C2
:104B38000540002D07D02548456200680121090479
:104B4800084322490860009800280CD100BFFCF7F0
:104B58004BFF02201E490860410748620120886215
:104B6800FCF754FF00BF002003E00199095C3154B1
:104B7800401CB842F9D3009800280ED100BFFCF7BA
:104B880033FF002012490860032001218907486289
:104B980000208862FCF73AFF00BF2002000A0A4999
:104BA80088420BD9002D09D00020084948620846E0
:104BB8000068012109048843044908600298FDF748
:104BC800C2FA0020FEBD0000FFFF070000C8004039
:104BD80000C00040FEB505460E4617463748007827
:104BE800012801D10F20FEBD012034490870FDF7CE
:104BF80097FA019000BFFCF7F7FE022030490860E1
:104C08004107486201208862FCF700FF00BF00BF2F
:104C180000BF2C480069022108400228F9D0202052
:104C2800009000BF0098411E00910028FAD100BFF3
:104C3800244880380068C00FC0070028F8D000BF9B
:104C48002149012001F052FD3A4631462846FDF738
:104C58008DF8C4B200BF00BF1A480069022108409D
:104C68000228F9D02020009000BF0098411E009132
:104C78000028FAD100BF134880380068C00FC00769
:104C88000028F8D000BF1049012001F02FFD00BF17
:104C9800FCF7AAFE00200A490860032001218907C1
:104CA800486200208862FCF7B1FE00BF0198FDF75A
:104CB8004AFA002001490870204694E7A870FF1FAF
:104CC80000C0004080C80040FFFFFF0710B500206B
:104CD800FDF752F8002010BD1CB500F029F80E4869
:104CE8000078FEF769FB0D48007800F0C5F900F080
:104CF800A1F80B4800680190019800F011FA09A08A
:104D0800E1235B020622052100900020FDF770FBDD
:104D1800FDF738F81CBD00004A0AFF1F7870FF1F16
:104D28005C6EFF1F667374636D643E3E3A0000005C
:104D380010B586B014221B4901A8FDF729F80024F4
:104D480009E0620001ABD21851786200985CFDF767
:104D580025F8601CC4B20A2CF3D3134840690F210C
:104D6800C90388430521090440180F4948610846CA
:104D7800406901214906884340180B4948610846A3
:104D8800406903214905884301214905401806491E
:104D98004861032000F016F800F03AF800F006F831
:104DA80006B010BD486EFF1F00F00040044840697F
:104DB800012189068843024948610F207047000095
:104DC80000F00040014648094001002807D0094882
:104DD8000078C008C000074A1070062070470548D0
:104DE8000078C008C0004A07520F1043014A1070EB
:104DF8000020F3E78D70FF1F0448C0691F21490494
:104E080088430249C86100207047000000F0004054
:104E18000648C0691F21490488430549097849079C
:104E2800090B08430149C8610020704700F00040A1
:104E38008D70FF1F10B578210A48FCF7B5FF0A48A6
:104E48000078012804D0022806D0042807D100E001
:104E580000BFFCF7AFFF02E0FCF7B2FF00BF00BFE6
:104E6800002010BDD895FF1F8C70FF1F70B5054638
:104E7800122617480078012803D01548007804281E
:104E880003D1FCF797FF002070BDFCF7ADFD0024AF
:104E980017E00C2060430F49085C002800D112E09D
:104EA8000C2060430B49085CA84209D101210C2061
:104EB8006043084A80184170FCF77CFF002602E036
:104EC800641C0A2CE5DB00BFFCF7A0FD3046DBE7DD
:104ED8008C70FF1FD895FF1FF0B503460C4615468A
:104EE8000021002220E00C205043164E305C9842EE
:104EF80001D10720F0BD0C205043124E305C002831
